{
	"contracts/Vesting.sol": {
		"Vesting": {
			"abi": [
				{
					"anonymous": false,
					"inputs": [
						{
							"indexed": false,
							"internalType": "uint256",
							"name": "startTime",
							"type": "uint256"
						},
						{
							"indexed": false,
							"internalType": "uint256",
							"name": "vestingPeriod",
							"type": "uint256"
						}
					],
					"name": "NewStakeholder",
					"type": "event"
				},
				{
					"anonymous": false,
					"inputs": [
						{
							"indexed": false,
							"internalType": "uint256",
							"name": "time",
							"type": "uint256"
						},
						{
							"indexed": false,
							"internalType": "address",
							"name": "stakeholder",
							"type": "address"
						}
					],
					"name": "Whitelisted",
					"type": "event"
				},
				{
					"inputs": [
						{
							"internalType": "uint256",
							"name": "_amount",
							"type": "uint256"
						}
					],
					"name": "claimToken",
					"outputs": [],
					"stateMutability": "nonpayable",
					"type": "function"
				},
				{
					"inputs": [
						{
							"internalType": "address",
							"name": "_orgAddress",
							"type": "address"
						},
						{
							"internalType": "string",
							"name": "_tokenName",
							"type": "string"
						},
						{
							"internalType": "string",
							"name": "_tokenSymbol",
							"type": "string"
						},
						{
							"internalType": "uint256",
							"name": "_tokenAmount",
							"type": "uint256"
						}
					],
					"name": "createOrganization",
					"outputs": [],
					"stateMutability": "nonpayable",
					"type": "function"
				},
				{
					"inputs": [
						{
							"internalType": "address",
							"name": "_userAddress",
							"type": "address"
						},
						{
							"internalType": "string",
							"name": "_role",
							"type": "string"
						},
						{
							"internalType": "uint256",
							"name": "_vestingPeriod",
							"type": "uint256"
						},
						{
							"internalType": "uint256",
							"name": "_tokenAmount",
							"type": "uint256"
						}
					],
					"name": "newStakeholder",
					"outputs": [],
					"stateMutability": "nonpayable",
					"type": "function"
				},
				{
					"inputs": [
						{
							"internalType": "address",
							"name": "",
							"type": "address"
						}
					],
					"name": "organizations",
					"outputs": [
						{
							"internalType": "address",
							"name": "orgAddress",
							"type": "address"
						},
						{
							"internalType": "string",
							"name": "tokenName",
							"type": "string"
						},
						{
							"internalType": "string",
							"name": "tokenSymbol",
							"type": "string"
						},
						{
							"internalType": "uint256",
							"name": "tokenAmount",
							"type": "uint256"
						},
						{
							"internalType": "uint256",
							"name": "totalSupply",
							"type": "uint256"
						}
					],
					"stateMutability": "view",
					"type": "function"
				},
				{
					"inputs": [
						{
							"internalType": "address",
							"name": "",
							"type": "address"
						}
					],
					"name": "stakeholders",
					"outputs": [
						{
							"internalType": "address",
							"name": "userAddress",
							"type": "address"
						},
						{
							"internalType": "string",
							"name": "role",
							"type": "string"
						},
						{
							"internalType": "uint256",
							"name": "vestingPeriod",
							"type": "uint256"
						},
						{
							"internalType": "uint256",
							"name": "startTime",
							"type": "uint256"
						},
						{
							"internalType": "uint256",
							"name": "tokenAmount",
							"type": "uint256"
						},
						{
							"internalType": "uint256",
							"name": "claimedToken",
							"type": "uint256"
						}
					],
					"stateMutability": "view",
					"type": "function"
				},
				{
					"inputs": [
						{
							"internalType": "address",
							"name": "_stakeholder",
							"type": "address"
						}
					],
					"name": "whitelistAddress",
					"outputs": [],
					"stateMutability": "nonpayable",
					"type": "function"
				},
				{
					"inputs": [
						{
							"internalType": "address",
							"name": "",
							"type": "address"
						}
					],
					"name": "whitelistedAddresses",
					"outputs": [
						{
							"internalType": "bool",
							"name": "",
							"type": "bool"
						}
					],
					"stateMutability": "view",
					"type": "function"
				}
			],
			"devdoc": {
				"kind": "dev",
				"methods": {},
				"version": 1
			},
			"evm": {
				"assembly": "    /* \"contracts/Vesting.sol\":58:4403  contract Vesting {... */\n  mstore(0x40, 0x80)\n  callvalue\n  dup1\n  iszero\n  tag_1\n  jumpi\n  0x00\n  dup1\n  revert\ntag_1:\n  pop\n  dataSize(sub_0)\n  dup1\n  dataOffset(sub_0)\n  0x00\n  codecopy\n  0x00\n  return\nstop\n\nsub_0: assembly {\n        /* \"contracts/Vesting.sol\":58:4403  contract Vesting {... */\n      mstore(0x40, 0x80)\n      callvalue\n      dup1\n      iszero\n      tag_1\n      jumpi\n      0x00\n      dup1\n      revert\n    tag_1:\n      pop\n      jumpi(tag_2, lt(calldatasize, 0x04))\n      shr(0xe0, calldataload(0x00))\n      dup1\n      0x4c0be449\n      gt\n      tag_10\n      jumpi\n      dup1\n      0x4c0be449\n      eq\n      tag_6\n      jumpi\n      dup1\n      0x5a1f7406\n      eq\n      tag_7\n      jumpi\n      dup1\n      0xa9e7c2e5\n      eq\n      tag_8\n      jumpi\n      dup1\n      0xc07cfca9\n      eq\n      tag_9\n      jumpi\n      jump(tag_2)\n    tag_10:\n      dup1\n      0x06c933d8\n      eq\n      tag_3\n      jumpi\n      dup1\n      0x41566585\n      eq\n      tag_4\n      jumpi\n      dup1\n      0x436c91df\n      eq\n      tag_5\n      jumpi\n    tag_2:\n      0x00\n      dup1\n      revert\n        /* \"contracts/Vesting.sol\":699:751  mapping(address => bool) public whitelistedAddresses */\n    tag_3:\n      tag_11\n      0x04\n      dup1\n      calldatasize\n      sub\n      dup2\n      add\n      swap1\n      tag_12\n      swap2\n      swap1\n      tag_13\n      jump\t// in\n    tag_12:\n      tag_14\n      jump\t// in\n    tag_11:\n      mload(0x40)\n      tag_15\n      swap2\n      swap1\n      tag_16\n      jump\t// in\n    tag_15:\n      mload(0x40)\n      dup1\n      swap2\n      sub\n      swap1\n      return\n        /* \"contracts/Vesting.sol\":2889:3211  function whitelistAddress(address _stakeholder) external {... */\n    tag_4:\n      tag_17\n      0x04\n      dup1\n      calldatasize\n      sub\n      dup2\n      add\n      swap1\n      tag_18\n      swap2\n      swap1\n      tag_13\n      jump\t// in\n    tag_18:\n      tag_19\n      jump\t// in\n    tag_17:\n      stop\n        /* \"contracts/Vesting.sol\":1145:1565  function createOrganization(... */\n    tag_5:\n      tag_20\n      0x04\n      dup1\n      calldatasize\n      sub\n      dup2\n      add\n      swap1\n      tag_21\n      swap2\n      swap1\n      tag_22\n      jump\t// in\n    tag_21:\n      tag_23\n      jump\t// in\n    tag_20:\n      stop\n        /* \"contracts/Vesting.sol\":1601:2834  function newStakeholder(... */\n    tag_6:\n      tag_24\n      0x04\n      dup1\n      calldatasize\n      sub\n      dup2\n      add\n      swap1\n      tag_25\n      swap2\n      swap1\n      tag_26\n      jump\t// in\n    tag_25:\n      tag_27\n      jump\t// in\n    tag_24:\n      stop\n        /* \"contracts/Vesting.sol\":814:867  mapping(address => Organization) public organizations */\n    tag_7:\n      tag_28\n      0x04\n      dup1\n      calldatasize\n      sub\n      dup2\n      add\n      swap1\n      tag_29\n      swap2\n      swap1\n      tag_13\n      jump\t// in\n    tag_29:\n      tag_30\n      jump\t// in\n    tag_28:\n      mload(0x40)\n      tag_31\n      swap6\n      swap5\n      swap4\n      swap3\n      swap2\n      swap1\n      tag_32\n      jump\t// in\n    tag_31:\n      mload(0x40)\n      dup1\n      swap2\n      sub\n      swap1\n      return\n        /* \"contracts/Vesting.sol\":3268:4401  function claimToken(uint256 _amount) external {... */\n    tag_8:\n      tag_33\n      0x04\n      dup1\n      calldatasize\n      sub\n      dup2\n      add\n      swap1\n      tag_34\n      swap2\n      swap1\n      tag_35\n      jump\t// in\n    tag_34:\n      tag_36\n      jump\t// in\n    tag_33:\n      stop\n        /* \"contracts/Vesting.sol\":594:645  mapping(address => Stakeholder) public stakeholders */\n    tag_9:\n      tag_37\n      0x04\n      dup1\n      calldatasize\n      sub\n      dup2\n      add\n      swap1\n      tag_38\n      swap2\n      swap1\n      tag_13\n      jump\t// in\n    tag_38:\n      tag_39\n      jump\t// in\n    tag_37:\n      mload(0x40)\n      tag_40\n      swap7\n      swap6\n      swap5\n      swap4\n      swap3\n      swap2\n      swap1\n      tag_41\n      jump\t// in\n    tag_40:\n      mload(0x40)\n      dup1\n      swap2\n      sub\n      swap1\n      return\n        /* \"contracts/Vesting.sol\":699:751  mapping(address => bool) public whitelistedAddresses */\n    tag_14:\n      mstore(0x20, 0x01)\n      dup1\n      0x00\n      mstore\n      keccak256(0x00, 0x40)\n      0x00\n      swap2\n      pop\n      sload\n      swap1\n      0x0100\n      exp\n      swap1\n      div\n      0xff\n      and\n      dup2\n      jump\t// out\n        /* \"contracts/Vesting.sol\":2889:3211  function whitelistAddress(address _stakeholder) external {... */\n    tag_19:\n        /* \"contracts/Vesting.sol\":3017:3027  msg.sender */\n      caller\n        /* \"contracts/Vesting.sol\":2977:3027  organizations[msg.sender].orgAddress == msg.sender */\n      0xffffffffffffffffffffffffffffffffffffffff\n      and\n        /* \"contracts/Vesting.sol\":2977:2990  organizations */\n      0x02\n        /* \"contracts/Vesting.sol\":2977:3002  organizations[msg.sender] */\n      0x00\n        /* \"contracts/Vesting.sol\":2991:3001  msg.sender */\n      caller\n        /* \"contracts/Vesting.sol\":2977:3002  organizations[msg.sender] */\n      0xffffffffffffffffffffffffffffffffffffffff\n      and\n      0xffffffffffffffffffffffffffffffffffffffff\n      and\n      dup2\n      mstore\n      0x20\n      add\n      swap1\n      dup2\n      mstore\n      0x20\n      add\n      0x00\n      keccak256\n        /* \"contracts/Vesting.sol\":2977:3013  organizations[msg.sender].orgAddress */\n      0x00\n      add\n      0x00\n      swap1\n      sload\n      swap1\n      0x0100\n      exp\n      swap1\n      div\n      0xffffffffffffffffffffffffffffffffffffffff\n      and\n        /* \"contracts/Vesting.sol\":2977:3027  organizations[msg.sender].orgAddress == msg.sender */\n      0xffffffffffffffffffffffffffffffffffffffff\n      and\n      eq\n        /* \"contracts/Vesting.sol\":2956:3095  require(... */\n      tag_43\n      jumpi\n      mload(0x40)\n      0x08c379a000000000000000000000000000000000000000000000000000000000\n      dup2\n      mstore\n      0x04\n      add\n      tag_44\n      swap1\n      tag_45\n      jump\t// in\n    tag_44:\n      mload(0x40)\n      dup1\n      swap2\n      sub\n      swap1\n      revert\n    tag_43:\n        /* \"contracts/Vesting.sol\":3142:3146  true */\n      0x01\n        /* \"contracts/Vesting.sol\":3105:3125  whitelistedAddresses */\n      dup1\n        /* \"contracts/Vesting.sol\":3105:3139  whitelistedAddresses[_stakeholder] */\n      0x00\n        /* \"contracts/Vesting.sol\":3126:3138  _stakeholder */\n      dup4\n        /* \"contracts/Vesting.sol\":3105:3139  whitelistedAddresses[_stakeholder] */\n      0xffffffffffffffffffffffffffffffffffffffff\n      and\n      0xffffffffffffffffffffffffffffffffffffffff\n      and\n      dup2\n      mstore\n      0x20\n      add\n      swap1\n      dup2\n      mstore\n      0x20\n      add\n      0x00\n      keccak256\n      0x00\n        /* \"contracts/Vesting.sol\":3105:3146  whitelistedAddresses[_stakeholder] = true */\n      0x0100\n      exp\n      dup2\n      sload\n      dup2\n      0xff\n      mul\n      not\n      and\n      swap1\n      dup4\n      iszero\n      iszero\n      mul\n      or\n      swap1\n      sstore\n      pop\n        /* \"contracts/Vesting.sol\":3162:3204  Whitelisted(block.timestamp, _stakeholder) */\n      0x2279719af4080e08a5a2b25c8234a83b76079141524127d1096409ac07fa5d0f\n        /* \"contracts/Vesting.sol\":3174:3189  block.timestamp */\n      timestamp\n        /* \"contracts/Vesting.sol\":3191:3203  _stakeholder */\n      dup3\n        /* \"contracts/Vesting.sol\":3162:3204  Whitelisted(block.timestamp, _stakeholder) */\n      mload(0x40)\n      tag_46\n      swap3\n      swap2\n      swap1\n      tag_47\n      jump\t// in\n    tag_46:\n      mload(0x40)\n      dup1\n      swap2\n      sub\n      swap1\n      log1\n        /* \"contracts/Vesting.sol\":2889:3211  function whitelistAddress(address _stakeholder) external {... */\n      pop\n      jump\t// out\n        /* \"contracts/Vesting.sol\":1145:1565  function createOrganization(... */\n    tag_23:\n        /* \"contracts/Vesting.sol\":1356:1558  Organization({... */\n      mload(0x40)\n      dup1\n      0xa0\n      add\n      0x40\n      mstore\n      dup1\n        /* \"contracts/Vesting.sol\":1395:1406  _orgAddress */\n      dup6\n        /* \"contracts/Vesting.sol\":1356:1558  Organization({... */\n      0xffffffffffffffffffffffffffffffffffffffff\n      and\n      dup2\n      mstore\n      0x20\n      add\n        /* \"contracts/Vesting.sol\":1431:1441  _tokenName */\n      dup5\n        /* \"contracts/Vesting.sol\":1356:1558  Organization({... */\n      dup2\n      mstore\n      0x20\n      add\n        /* \"contracts/Vesting.sol\":1468:1480  _tokenSymbol */\n      dup4\n        /* \"contracts/Vesting.sol\":1356:1558  Organization({... */\n      dup2\n      mstore\n      0x20\n      add\n        /* \"contracts/Vesting.sol\":1507:1519  _tokenAmount */\n      dup3\n        /* \"contracts/Vesting.sol\":1356:1558  Organization({... */\n      dup2\n      mstore\n      0x20\n      add\n        /* \"contracts/Vesting.sol\":1546:1547  0 */\n      0x00\n        /* \"contracts/Vesting.sol\":1356:1558  Organization({... */\n      dup2\n      mstore\n      pop\n        /* \"contracts/Vesting.sol\":1327:1340  organizations */\n      0x02\n        /* \"contracts/Vesting.sol\":1327:1353  organizations[_orgAddress] */\n      0x00\n        /* \"contracts/Vesting.sol\":1341:1352  _orgAddress */\n      dup7\n        /* \"contracts/Vesting.sol\":1327:1353  organizations[_orgAddress] */\n      0xffffffffffffffffffffffffffffffffffffffff\n      and\n      0xffffffffffffffffffffffffffffffffffffffff\n      and\n      dup2\n      mstore\n      0x20\n      add\n      swap1\n      dup2\n      mstore\n      0x20\n      add\n      0x00\n      keccak256\n        /* \"contracts/Vesting.sol\":1327:1558  organizations[_orgAddress] = Organization({... */\n      0x00\n      dup3\n      add\n      mload\n      dup2\n      0x00\n      add\n      exp(0x0100, 0x00)\n      dup2\n      sload\n      dup2\n      0xffffffffffffffffffffffffffffffffffffffff\n      mul\n      not\n      and\n      swap1\n      dup4\n      0xffffffffffffffffffffffffffffffffffffffff\n      and\n      mul\n      or\n      swap1\n      sstore\n      pop\n      0x20\n      dup3\n      add\n      mload\n      dup2\n      0x01\n      add\n      swap1\n      dup2\n      tag_49\n      swap2\n      swap1\n      tag_50\n      jump\t// in\n    tag_49:\n      pop\n      0x40\n      dup3\n      add\n      mload\n      dup2\n      0x02\n      add\n      swap1\n      dup2\n      tag_51\n      swap2\n      swap1\n      tag_50\n      jump\t// in\n    tag_51:\n      pop\n      0x60\n      dup3\n      add\n      mload\n      dup2\n      0x03\n      add\n      sstore\n      0x80\n      dup3\n      add\n      mload\n      dup2\n      0x04\n      add\n      sstore\n      swap1\n      pop\n      pop\n        /* \"contracts/Vesting.sol\":1145:1565  function createOrganization(... */\n      pop\n      pop\n      pop\n      pop\n      jump\t// out\n        /* \"contracts/Vesting.sol\":1601:2834  function newStakeholder(... */\n    tag_27:\n        /* \"contracts/Vesting.sol\":1878:1888  msg.sender */\n      caller\n        /* \"contracts/Vesting.sol\":1838:1888  organizations[msg.sender].orgAddress == msg.sender */\n      0xffffffffffffffffffffffffffffffffffffffff\n      and\n        /* \"contracts/Vesting.sol\":1838:1851  organizations */\n      0x02\n        /* \"contracts/Vesting.sol\":1838:1863  organizations[msg.sender] */\n      0x00\n        /* \"contracts/Vesting.sol\":1852:1862  msg.sender */\n      caller\n        /* \"contracts/Vesting.sol\":1838:1863  organizations[msg.sender] */\n      0xffffffffffffffffffffffffffffffffffffffff\n      and\n      0xffffffffffffffffffffffffffffffffffffffff\n      and\n      dup2\n      mstore\n      0x20\n      add\n      swap1\n      dup2\n      mstore\n      0x20\n      add\n      0x00\n      keccak256\n        /* \"contracts/Vesting.sol\":1838:1874  organizations[msg.sender].orgAddress */\n      0x00\n      add\n      0x00\n      swap1\n      sload\n      swap1\n      0x0100\n      exp\n      swap1\n      div\n      0xffffffffffffffffffffffffffffffffffffffff\n      and\n        /* \"contracts/Vesting.sol\":1838:1888  organizations[msg.sender].orgAddress == msg.sender */\n      0xffffffffffffffffffffffffffffffffffffffff\n      and\n      eq\n        /* \"contracts/Vesting.sol\":1830:1905  require(organizations[msg.sender].orgAddress == msg.sender, \"Unauthorized\") */\n      tag_53\n      jumpi\n      mload(0x40)\n      0x08c379a000000000000000000000000000000000000000000000000000000000\n      dup2\n      mstore\n      0x04\n      add\n      tag_54\n      swap1\n      tag_55\n      jump\t// in\n    tag_54:\n      mload(0x40)\n      dup1\n      swap2\n      sub\n      swap1\n      revert\n    tag_53:\n        /* \"contracts/Vesting.sol\":2048:2060  _tokenAmount */\n      dup1\n        /* \"contracts/Vesting.sol\":2007:2020  organizations */\n      0x02\n        /* \"contracts/Vesting.sol\":2007:2032  organizations[msg.sender] */\n      0x00\n        /* \"contracts/Vesting.sol\":2021:2031  msg.sender */\n      caller\n        /* \"contracts/Vesting.sol\":2007:2032  organizations[msg.sender] */\n      0xffffffffffffffffffffffffffffffffffffffff\n      and\n      0xffffffffffffffffffffffffffffffffffffffff\n      and\n      dup2\n      mstore\n      0x20\n      add\n      swap1\n      dup2\n      mstore\n      0x20\n      add\n      0x00\n      keccak256\n        /* \"contracts/Vesting.sol\":2007:2044  organizations[msg.sender].tokenAmount */\n      0x03\n      add\n      sload\n        /* \"contracts/Vesting.sol\":2007:2060  organizations[msg.sender].tokenAmount >= _tokenAmount */\n      lt\n      iszero\n        /* \"contracts/Vesting.sol\":1986:2128  require(... */\n      tag_56\n      jumpi\n      mload(0x40)\n      0x08c379a000000000000000000000000000000000000000000000000000000000\n      dup2\n      mstore\n      0x04\n      add\n      tag_57\n      swap1\n      tag_58\n      jump\t// in\n    tag_57:\n      mload(0x40)\n      dup1\n      swap2\n      sub\n      swap1\n      revert\n    tag_56:\n        /* \"contracts/Vesting.sol\":2226:2465  Stakeholder({... */\n      mload(0x40)\n      dup1\n      0xc0\n      add\n      0x40\n      mstore\n      dup1\n        /* \"contracts/Vesting.sol\":2265:2277  _userAddress */\n      dup6\n        /* \"contracts/Vesting.sol\":2226:2465  Stakeholder({... */\n      0xffffffffffffffffffffffffffffffffffffffff\n      and\n      dup2\n      mstore\n      0x20\n      add\n        /* \"contracts/Vesting.sol\":2297:2302  _role */\n      dup5\n        /* \"contracts/Vesting.sol\":2226:2465  Stakeholder({... */\n      dup2\n      mstore\n      0x20\n      add\n        /* \"contracts/Vesting.sol\":2332:2346  _vestingPeriod */\n      dup4\n        /* \"contracts/Vesting.sol\":2226:2465  Stakeholder({... */\n      dup2\n      mstore\n      0x20\n      add\n        /* \"contracts/Vesting.sol\":2371:2386  block.timestamp */\n      timestamp\n        /* \"contracts/Vesting.sol\":2226:2465  Stakeholder({... */\n      dup2\n      mstore\n      0x20\n      add\n        /* \"contracts/Vesting.sol\":2413:2425  _tokenAmount */\n      dup3\n        /* \"contracts/Vesting.sol\":2226:2465  Stakeholder({... */\n      dup2\n      mstore\n      0x20\n      add\n        /* \"contracts/Vesting.sol\":2453:2454  0 */\n      0x00\n        /* \"contracts/Vesting.sol\":2226:2465  Stakeholder({... */\n      dup2\n      mstore\n      pop\n        /* \"contracts/Vesting.sol\":2197:2209  stakeholders */\n      0x00\n        /* \"contracts/Vesting.sol\":2197:2223  stakeholders[_userAddress] */\n      dup1\n        /* \"contracts/Vesting.sol\":2210:2222  _userAddress */\n      dup7\n        /* \"contracts/Vesting.sol\":2197:2223  stakeholders[_userAddress] */\n      0xffffffffffffffffffffffffffffffffffffffff\n      and\n      0xffffffffffffffffffffffffffffffffffffffff\n      and\n      dup2\n      mstore\n      0x20\n      add\n      swap1\n      dup2\n      mstore\n      0x20\n      add\n      0x00\n      keccak256\n        /* \"contracts/Vesting.sol\":2197:2465  stakeholders[_userAddress] = Stakeholder({... */\n      0x00\n      dup3\n      add\n      mload\n      dup2\n      0x00\n      add\n      exp(0x0100, 0x00)\n      dup2\n      sload\n      dup2\n      0xffffffffffffffffffffffffffffffffffffffff\n      mul\n      not\n      and\n      swap1\n      dup4\n      0xffffffffffffffffffffffffffffffffffffffff\n      and\n      mul\n      or\n      swap1\n      sstore\n      pop\n      0x20\n      dup3\n      add\n      mload\n      dup2\n      0x01\n      add\n      swap1\n      dup2\n      tag_59\n      swap2\n      swap1\n      tag_50\n      jump\t// in\n    tag_59:\n      pop\n      0x40\n      dup3\n      add\n      mload\n      dup2\n      0x02\n      add\n      sstore\n      0x60\n      dup3\n      add\n      mload\n      dup2\n      0x03\n      add\n      sstore\n      0x80\n      dup3\n      add\n      mload\n      dup2\n      0x04\n      add\n      sstore\n      0xa0\n      dup3\n      add\n      mload\n      dup2\n      0x05\n      add\n      sstore\n      swap1\n      pop\n      pop\n        /* \"contracts/Vesting.sol\":2567:2579  _tokenAmount */\n      dup1\n        /* \"contracts/Vesting.sol\":2526:2539  organizations */\n      0x02\n        /* \"contracts/Vesting.sol\":2526:2551  organizations[msg.sender] */\n      0x00\n        /* \"contracts/Vesting.sol\":2540:2550  msg.sender */\n      caller\n        /* \"contracts/Vesting.sol\":2526:2551  organizations[msg.sender] */\n      0xffffffffffffffffffffffffffffffffffffffff\n      and\n      0xffffffffffffffffffffffffffffffffffffffff\n      and\n      dup2\n      mstore\n      0x20\n      add\n      swap1\n      dup2\n      mstore\n      0x20\n      add\n      0x00\n      keccak256\n        /* \"contracts/Vesting.sol\":2526:2563  organizations[msg.sender].tokenAmount */\n      0x03\n      add\n      0x00\n        /* \"contracts/Vesting.sol\":2526:2579  organizations[msg.sender].tokenAmount -= _tokenAmount */\n      dup3\n      dup3\n      sload\n      tag_60\n      swap2\n      swap1\n      tag_61\n      jump\t// in\n    tag_60:\n      swap3\n      pop\n      pop\n      dup2\n      swap1\n      sstore\n      pop\n        /* \"contracts/Vesting.sol\":2681:2693  _tokenAmount */\n      dup1\n        /* \"contracts/Vesting.sol\":2640:2653  organizations */\n      0x02\n        /* \"contracts/Vesting.sol\":2640:2665  organizations[msg.sender] */\n      0x00\n        /* \"contracts/Vesting.sol\":2654:2664  msg.sender */\n      caller\n        /* \"contracts/Vesting.sol\":2640:2665  organizations[msg.sender] */\n      0xffffffffffffffffffffffffffffffffffffffff\n      and\n      0xffffffffffffffffffffffffffffffffffffffff\n      and\n      dup2\n      mstore\n      0x20\n      add\n      swap1\n      dup2\n      mstore\n      0x20\n      add\n      0x00\n      keccak256\n        /* \"contracts/Vesting.sol\":2640:2677  organizations[msg.sender].totalSupply */\n      0x04\n      add\n      0x00\n        /* \"contracts/Vesting.sol\":2640:2693  organizations[msg.sender].totalSupply += _tokenAmount */\n      dup3\n      dup3\n      sload\n      tag_62\n      swap2\n      swap1\n      tag_63\n      jump\t// in\n    tag_62:\n      swap3\n      pop\n      pop\n      dup2\n      swap1\n      sstore\n      pop\n        /* \"contracts/Vesting.sol\":2780:2827  NewStakeholder(block.timestamp, _vestingPeriod) */\n      0x6b14c643c7a21d055dece27d5b28b6c529fdf91f89c8a4d6feabd94cc9926768\n        /* \"contracts/Vesting.sol\":2795:2810  block.timestamp */\n      timestamp\n        /* \"contracts/Vesting.sol\":2812:2826  _vestingPeriod */\n      dup4\n        /* \"contracts/Vesting.sol\":2780:2827  NewStakeholder(block.timestamp, _vestingPeriod) */\n      mload(0x40)\n      tag_64\n      swap3\n      swap2\n      swap1\n      tag_65\n      jump\t// in\n    tag_64:\n      mload(0x40)\n      dup1\n      swap2\n      sub\n      swap1\n      log1\n        /* \"contracts/Vesting.sol\":1601:2834  function newStakeholder(... */\n      pop\n      pop\n      pop\n      pop\n      jump\t// out\n        /* \"contracts/Vesting.sol\":814:867  mapping(address => Organization) public organizations */\n    tag_30:\n      mstore(0x20, 0x02)\n      dup1\n      0x00\n      mstore\n      keccak256(0x00, 0x40)\n      0x00\n      swap2\n      pop\n      swap1\n      pop\n      dup1\n      0x00\n      add\n      0x00\n      swap1\n      sload\n      swap1\n      0x0100\n      exp\n      swap1\n      div\n      0xffffffffffffffffffffffffffffffffffffffff\n      and\n      swap1\n      dup1\n      0x01\n      add\n      dup1\n      sload\n      tag_66\n      swap1\n      tag_67\n      jump\t// in\n    tag_66:\n      dup1\n      0x1f\n      add\n      0x20\n      dup1\n      swap2\n      div\n      mul\n      0x20\n      add\n      mload(0x40)\n      swap1\n      dup2\n      add\n      0x40\n      mstore\n      dup1\n      swap3\n      swap2\n      swap1\n      dup2\n      dup2\n      mstore\n      0x20\n      add\n      dup3\n      dup1\n      sload\n      tag_68\n      swap1\n      tag_67\n      jump\t// in\n    tag_68:\n      dup1\n      iszero\n      tag_69\n      jumpi\n      dup1\n      0x1f\n      lt\n      tag_70\n      jumpi\n      0x0100\n      dup1\n      dup4\n      sload\n      div\n      mul\n      dup4\n      mstore\n      swap2\n      0x20\n      add\n      swap2\n      jump(tag_69)\n    tag_70:\n      dup3\n      add\n      swap2\n      swap1\n      0x00\n      mstore\n      keccak256(0x00, 0x20)\n      swap1\n    tag_71:\n      dup2\n      sload\n      dup2\n      mstore\n      swap1\n      0x01\n      add\n      swap1\n      0x20\n      add\n      dup1\n      dup4\n      gt\n      tag_71\n      jumpi\n      dup3\n      swap1\n      sub\n      0x1f\n      and\n      dup3\n      add\n      swap2\n    tag_69:\n      pop\n      pop\n      pop\n      pop\n      pop\n      swap1\n      dup1\n      0x02\n      add\n      dup1\n      sload\n      tag_72\n      swap1\n      tag_67\n      jump\t// in\n    tag_72:\n      dup1\n      0x1f\n      add\n      0x20\n      dup1\n      swap2\n      div\n      mul\n      0x20\n      add\n      mload(0x40)\n      swap1\n      dup2\n      add\n      0x40\n      mstore\n      dup1\n      swap3\n      swap2\n      swap1\n      dup2\n      dup2\n      mstore\n      0x20\n      add\n      dup3\n      dup1\n      sload\n      tag_73\n      swap1\n      tag_67\n      jump\t// in\n    tag_73:\n      dup1\n      iszero\n      tag_74\n      jumpi\n      dup1\n      0x1f\n      lt\n      tag_75\n      jumpi\n      0x0100\n      dup1\n      dup4\n      sload\n      div\n      mul\n      dup4\n      mstore\n      swap2\n      0x20\n      add\n      swap2\n      jump(tag_74)\n    tag_75:\n      dup3\n      add\n      swap2\n      swap1\n      0x00\n      mstore\n      keccak256(0x00, 0x20)\n      swap1\n    tag_76:\n      dup2\n      sload\n      dup2\n      mstore\n      swap1\n      0x01\n      add\n      swap1\n      0x20\n      add\n      dup1\n      dup4\n      gt\n      tag_76\n      jumpi\n      dup3\n      swap1\n      sub\n      0x1f\n      and\n      dup3\n      add\n      swap2\n    tag_74:\n      pop\n      pop\n      pop\n      pop\n      pop\n      swap1\n      dup1\n      0x03\n      add\n      sload\n      swap1\n      dup1\n      0x04\n      add\n      sload\n      swap1\n      pop\n      dup6\n      jump\t// out\n        /* \"contracts/Vesting.sol\":3268:4401  function claimToken(uint256 _amount) external {... */\n    tag_36:\n        /* \"contracts/Vesting.sol\":3378:3398  whitelistedAddresses */\n      0x01\n        /* \"contracts/Vesting.sol\":3378:3410  whitelistedAddresses[msg.sender] */\n      0x00\n        /* \"contracts/Vesting.sol\":3399:3409  msg.sender */\n      caller\n        /* \"contracts/Vesting.sol\":3378:3410  whitelistedAddresses[msg.sender] */\n      0xffffffffffffffffffffffffffffffffffffffff\n      and\n      0xffffffffffffffffffffffffffffffffffffffff\n      and\n      dup2\n      mstore\n      0x20\n      add\n      swap1\n      dup2\n      mstore\n      0x20\n      add\n      0x00\n      keccak256\n      0x00\n      swap1\n      sload\n      swap1\n      0x0100\n      exp\n      swap1\n      div\n      0xff\n      and\n        /* \"contracts/Vesting.sol\":3370:3437  require(whitelistedAddresses[msg.sender], \"You're not whitelisted\") */\n      tag_78\n      jumpi\n      mload(0x40)\n      0x08c379a000000000000000000000000000000000000000000000000000000000\n      dup2\n      mstore\n      0x04\n      add\n      tag_79\n      swap1\n      tag_80\n      jump\t// in\n    tag_79:\n      mload(0x40)\n      dup1\n      swap2\n      sub\n      swap1\n      revert\n    tag_78:\n        /* \"contracts/Vesting.sol\":3506:3537  Stakeholder storage stakeholder */\n      0x00\n        /* \"contracts/Vesting.sol\":3540:3552  stakeholders */\n      dup1\n        /* \"contracts/Vesting.sol\":3540:3564  stakeholders[msg.sender] */\n      0x00\n        /* \"contracts/Vesting.sol\":3553:3563  msg.sender */\n      caller\n        /* \"contracts/Vesting.sol\":3540:3564  stakeholders[msg.sender] */\n      0xffffffffffffffffffffffffffffffffffffffff\n      and\n      0xffffffffffffffffffffffffffffffffffffffff\n      and\n      dup2\n      mstore\n      0x20\n      add\n      swap1\n      dup2\n      mstore\n      0x20\n      add\n      0x00\n      keccak256\n        /* \"contracts/Vesting.sol\":3506:3564  Stakeholder storage stakeholder = stakeholders[msg.sender] */\n      swap1\n      pop\n        /* \"contracts/Vesting.sol\":3744:3754  msg.sender */\n      caller\n        /* \"contracts/Vesting.sol\":3704:3754  organizations[msg.sender].orgAddress == msg.sender */\n      0xffffffffffffffffffffffffffffffffffffffff\n      and\n        /* \"contracts/Vesting.sol\":3704:3717  organizations */\n      0x02\n        /* \"contracts/Vesting.sol\":3704:3729  organizations[msg.sender] */\n      0x00\n        /* \"contracts/Vesting.sol\":3718:3728  msg.sender */\n      caller\n        /* \"contracts/Vesting.sol\":3704:3729  organizations[msg.sender] */\n      0xffffffffffffffffffffffffffffffffffffffff\n      and\n      0xffffffffffffffffffffffffffffffffffffffff\n      and\n      dup2\n      mstore\n      0x20\n      add\n      swap1\n      dup2\n      mstore\n      0x20\n      add\n      0x00\n      keccak256\n        /* \"contracts/Vesting.sol\":3704:3740  organizations[msg.sender].orgAddress */\n      0x00\n      add\n      0x00\n      swap1\n      sload\n      swap1\n      0x0100\n      exp\n      swap1\n      div\n      0xffffffffffffffffffffffffffffffffffffffff\n      and\n        /* \"contracts/Vesting.sol\":3704:3754  organizations[msg.sender].orgAddress == msg.sender */\n      0xffffffffffffffffffffffffffffffffffffffff\n      and\n      eq\n        /* \"contracts/Vesting.sol\":3704:3808  organizations[msg.sender].orgAddress == msg.sender || ... */\n      dup1\n      tag_81\n      jumpi\n      pop\n        /* \"contracts/Vesting.sol\":3798:3808  msg.sender */\n      caller\n        /* \"contracts/Vesting.sol\":3771:3808  stakeholder.userAddress == msg.sender */\n      0xffffffffffffffffffffffffffffffffffffffff\n      and\n        /* \"contracts/Vesting.sol\":3771:3782  stakeholder */\n      dup2\n        /* \"contracts/Vesting.sol\":3771:3794  stakeholder.userAddress */\n      0x00\n      add\n      0x00\n      swap1\n      sload\n      swap1\n      0x0100\n      exp\n      swap1\n      div\n      0xffffffffffffffffffffffffffffffffffffffff\n      and\n        /* \"contracts/Vesting.sol\":3771:3808  stakeholder.userAddress == msg.sender */\n      0xffffffffffffffffffffffffffffffffffffffff\n      and\n      eq\n        /* \"contracts/Vesting.sol\":3704:3808  organizations[msg.sender].orgAddress == msg.sender || ... */\n    tag_81:\n        /* \"contracts/Vesting.sol\":3683:3848  require(... */\n      tag_82\n      jumpi\n      mload(0x40)\n      0x08c379a000000000000000000000000000000000000000000000000000000000\n      dup2\n      mstore\n      0x04\n      add\n      tag_83\n      swap1\n      tag_84\n      jump\t// in\n    tag_83:\n      mload(0x40)\n      dup1\n      swap2\n      sub\n      swap1\n      revert\n    tag_82:\n        /* \"contracts/Vesting.sol\":3973:3984  stakeholder */\n      dup1\n        /* \"contracts/Vesting.sol\":3973:3998  stakeholder.vestingPeriod */\n      0x02\n      add\n      sload\n        /* \"contracts/Vesting.sol\":3949:3960  stakeholder */\n      dup2\n        /* \"contracts/Vesting.sol\":3949:3970  stakeholder.startTime */\n      0x03\n      add\n      sload\n        /* \"contracts/Vesting.sol\":3949:3998  stakeholder.startTime + stakeholder.vestingPeriod */\n      tag_85\n      swap2\n      swap1\n      tag_63\n      jump\t// in\n    tag_85:\n        /* \"contracts/Vesting.sol\":3930:3945  block.timestamp */\n      timestamp\n        /* \"contracts/Vesting.sol\":3930:3998  block.timestamp >= stakeholder.startTime + stakeholder.vestingPeriod */\n      lt\n      iszero\n        /* \"contracts/Vesting.sol\":3909:4051  require(... */\n      tag_86\n      jumpi\n      mload(0x40)\n      0x08c379a000000000000000000000000000000000000000000000000000000000\n      dup2\n      mstore\n      0x04\n      add\n      tag_87\n      swap1\n      tag_88\n      jump\t// in\n    tag_87:\n      mload(0x40)\n      dup1\n      swap2\n      sub\n      swap1\n      revert\n    tag_86:\n        /* \"contracts/Vesting.sol\":4142:4143  0 */\n      0x00\n        /* \"contracts/Vesting.sol\":4116:4127  stakeholder */\n      dup2\n        /* \"contracts/Vesting.sol\":4116:4139  stakeholder.tokenAmount */\n      0x04\n      add\n      sload\n        /* \"contracts/Vesting.sol\":4116:4143  stakeholder.tokenAmount > 0 */\n      gt\n        /* \"contracts/Vesting.sol\":4107:4167  require( stakeholder.tokenAmount > 0, \"No claimable tokens\") */\n      tag_89\n      jumpi\n      mload(0x40)\n      0x08c379a000000000000000000000000000000000000000000000000000000000\n      dup2\n      mstore\n      0x04\n      add\n      tag_90\n      swap1\n      tag_91\n      jump\t// in\n    tag_90:\n      mload(0x40)\n      dup1\n      swap2\n      sub\n      swap1\n      revert\n    tag_89:\n        /* \"contracts/Vesting.sol\":4279:4286  _amount */\n      dup2\n        /* \"contracts/Vesting.sol\":4252:4263  stakeholder */\n      dup2\n        /* \"contracts/Vesting.sol\":4252:4275  stakeholder.tokenAmount */\n      0x04\n      add\n      0x00\n        /* \"contracts/Vesting.sol\":4252:4286  stakeholder.tokenAmount -= _amount */\n      dup3\n      dup3\n      sload\n      tag_92\n      swap2\n      swap1\n      tag_61\n      jump\t// in\n    tag_92:\n      swap3\n      pop\n      pop\n      dup2\n      swap1\n      sstore\n      pop\n        /* \"contracts/Vesting.sol\":4387:4394  _amount */\n      dup2\n        /* \"contracts/Vesting.sol\":4359:4370  stakeholder */\n      dup2\n        /* \"contracts/Vesting.sol\":4359:4383  stakeholder.claimedToken */\n      0x05\n      add\n      0x00\n        /* \"contracts/Vesting.sol\":4359:4394  stakeholder.claimedToken += _amount */\n      dup3\n      dup3\n      sload\n      tag_93\n      swap2\n      swap1\n      tag_63\n      jump\t// in\n    tag_93:\n      swap3\n      pop\n      pop\n      dup2\n      swap1\n      sstore\n      pop\n        /* \"contracts/Vesting.sol\":3314:4401  {... */\n      pop\n        /* \"contracts/Vesting.sol\":3268:4401  function claimToken(uint256 _amount) external {... */\n      pop\n      jump\t// out\n        /* \"contracts/Vesting.sol\":594:645  mapping(address => Stakeholder) public stakeholders */\n    tag_39:\n      mstore(0x20, 0x00)\n      dup1\n      0x00\n      mstore\n      keccak256(0x00, 0x40)\n      0x00\n      swap2\n      pop\n      swap1\n      pop\n      dup1\n      0x00\n      add\n      0x00\n      swap1\n      sload\n      swap1\n      0x0100\n      exp\n      swap1\n      div\n      0xffffffffffffffffffffffffffffffffffffffff\n      and\n      swap1\n      dup1\n      0x01\n      add\n      dup1\n      sload\n      tag_94\n      swap1\n      tag_67\n      jump\t// in\n    tag_94:\n      dup1\n      0x1f\n      add\n      0x20\n      dup1\n      swap2\n      div\n      mul\n      0x20\n      add\n      mload(0x40)\n      swap1\n      dup2\n      add\n      0x40\n      mstore\n      dup1\n      swap3\n      swap2\n      swap1\n      dup2\n      dup2\n      mstore\n      0x20\n      add\n      dup3\n      dup1\n      sload\n      tag_95\n      swap1\n      tag_67\n      jump\t// in\n    tag_95:\n      dup1\n      iszero\n      tag_96\n      jumpi\n      dup1\n      0x1f\n      lt\n      tag_97\n      jumpi\n      0x0100\n      dup1\n      dup4\n      sload\n      div\n      mul\n      dup4\n      mstore\n      swap2\n      0x20\n      add\n      swap2\n      jump(tag_96)\n    tag_97:\n      dup3\n      add\n      swap2\n      swap1\n      0x00\n      mstore\n      keccak256(0x00, 0x20)\n      swap1\n    tag_98:\n      dup2\n      sload\n      dup2\n      mstore\n      swap1\n      0x01\n      add\n      swap1\n      0x20\n      add\n      dup1\n      dup4\n      gt\n      tag_98\n      jumpi\n      dup3\n      swap1\n      sub\n      0x1f\n      and\n      dup3\n      add\n      swap2\n    tag_96:\n      pop\n      pop\n      pop\n      pop\n      pop\n      swap1\n      dup1\n      0x02\n      add\n      sload\n      swap1\n      dup1\n      0x03\n      add\n      sload\n      swap1\n      dup1\n      0x04\n      add\n      sload\n      swap1\n      dup1\n      0x05\n      add\n      sload\n      swap1\n      pop\n      dup7\n      jump\t// out\n        /* \"#utility.yul\":7:82   */\n    tag_99:\n        /* \"#utility.yul\":40:46   */\n      0x00\n        /* \"#utility.yul\":73:75   */\n      0x40\n        /* \"#utility.yul\":67:76   */\n      mload\n        /* \"#utility.yul\":57:76   */\n      swap1\n      pop\n        /* \"#utility.yul\":7:82   */\n      swap1\n      jump\t// out\n        /* \"#utility.yul\":88:205   */\n    tag_100:\n        /* \"#utility.yul\":197:198   */\n      0x00\n        /* \"#utility.yul\":194:195   */\n      dup1\n        /* \"#utility.yul\":187:199   */\n      revert\n        /* \"#utility.yul\":211:328   */\n    tag_101:\n        /* \"#utility.yul\":320:321   */\n      0x00\n        /* \"#utility.yul\":317:318   */\n      dup1\n        /* \"#utility.yul\":310:322   */\n      revert\n        /* \"#utility.yul\":334:460   */\n    tag_102:\n        /* \"#utility.yul\":371:378   */\n      0x00\n        /* \"#utility.yul\":411:453   */\n      0xffffffffffffffffffffffffffffffffffffffff\n        /* \"#utility.yul\":404:409   */\n      dup3\n        /* \"#utility.yul\":400:454   */\n      and\n        /* \"#utility.yul\":389:454   */\n      swap1\n      pop\n        /* \"#utility.yul\":334:460   */\n      swap2\n      swap1\n      pop\n      jump\t// out\n        /* \"#utility.yul\":466:562   */\n    tag_103:\n        /* \"#utility.yul\":503:510   */\n      0x00\n        /* \"#utility.yul\":532:556   */\n      tag_164\n        /* \"#utility.yul\":550:555   */\n      dup3\n        /* \"#utility.yul\":532:556   */\n      tag_102\n      jump\t// in\n    tag_164:\n        /* \"#utility.yul\":521:556   */\n      swap1\n      pop\n        /* \"#utility.yul\":466:562   */\n      swap2\n      swap1\n      pop\n      jump\t// out\n        /* \"#utility.yul\":568:690   */\n    tag_104:\n        /* \"#utility.yul\":641:665   */\n      tag_166\n        /* \"#utility.yul\":659:664   */\n      dup2\n        /* \"#utility.yul\":641:665   */\n      tag_103\n      jump\t// in\n    tag_166:\n        /* \"#utility.yul\":634:639   */\n      dup2\n        /* \"#utility.yul\":631:666   */\n      eq\n        /* \"#utility.yul\":621:684   */\n      tag_167\n      jumpi\n        /* \"#utility.yul\":680:681   */\n      0x00\n        /* \"#utility.yul\":677:678   */\n      dup1\n        /* \"#utility.yul\":670:682   */\n      revert\n        /* \"#utility.yul\":621:684   */\n    tag_167:\n        /* \"#utility.yul\":568:690   */\n      pop\n      jump\t// out\n        /* \"#utility.yul\":696:835   */\n    tag_105:\n        /* \"#utility.yul\":742:747   */\n      0x00\n        /* \"#utility.yul\":780:786   */\n      dup2\n        /* \"#utility.yul\":767:787   */\n      calldataload\n        /* \"#utility.yul\":758:787   */\n      swap1\n      pop\n        /* \"#utility.yul\":796:829   */\n      tag_169\n        /* \"#utility.yul\":823:828   */\n      dup2\n        /* \"#utility.yul\":796:829   */\n      tag_104\n      jump\t// in\n    tag_169:\n        /* \"#utility.yul\":696:835   */\n      swap3\n      swap2\n      pop\n      pop\n      jump\t// out\n        /* \"#utility.yul\":841:1170   */\n    tag_13:\n        /* \"#utility.yul\":900:906   */\n      0x00\n        /* \"#utility.yul\":949:951   */\n      0x20\n        /* \"#utility.yul\":937:946   */\n      dup3\n        /* \"#utility.yul\":928:935   */\n      dup5\n        /* \"#utility.yul\":924:947   */\n      sub\n        /* \"#utility.yul\":920:952   */\n      slt\n        /* \"#utility.yul\":917:1036   */\n      iszero\n      tag_171\n      jumpi\n        /* \"#utility.yul\":955:1034   */\n      tag_172\n      tag_100\n      jump\t// in\n    tag_172:\n        /* \"#utility.yul\":917:1036   */\n    tag_171:\n        /* \"#utility.yul\":1075:1076   */\n      0x00\n        /* \"#utility.yul\":1100:1153   */\n      tag_173\n        /* \"#utility.yul\":1145:1152   */\n      dup5\n        /* \"#utility.yul\":1136:1142   */\n      dup3\n        /* \"#utility.yul\":1125:1134   */\n      dup6\n        /* \"#utility.yul\":1121:1143   */\n      add\n        /* \"#utility.yul\":1100:1153   */\n      tag_105\n      jump\t// in\n    tag_173:\n        /* \"#utility.yul\":1090:1153   */\n      swap2\n      pop\n        /* \"#utility.yul\":1046:1163   */\n      pop\n        /* \"#utility.yul\":841:1170   */\n      swap3\n      swap2\n      pop\n      pop\n      jump\t// out\n        /* \"#utility.yul\":1176:1266   */\n    tag_106:\n        /* \"#utility.yul\":1210:1217   */\n      0x00\n        /* \"#utility.yul\":1253:1258   */\n      dup2\n        /* \"#utility.yul\":1246:1259   */\n      iszero\n        /* \"#utility.yul\":1239:1260   */\n      iszero\n        /* \"#utility.yul\":1228:1260   */\n      swap1\n      pop\n        /* \"#utility.yul\":1176:1266   */\n      swap2\n      swap1\n      pop\n      jump\t// out\n        /* \"#utility.yul\":1272:1381   */\n    tag_107:\n        /* \"#utility.yul\":1353:1374   */\n      tag_176\n        /* \"#utility.yul\":1368:1373   */\n      dup2\n        /* \"#utility.yul\":1353:1374   */\n      tag_106\n      jump\t// in\n    tag_176:\n        /* \"#utility.yul\":1348:1351   */\n      dup3\n        /* \"#utility.yul\":1341:1375   */\n      mstore\n        /* \"#utility.yul\":1272:1381   */\n      pop\n      pop\n      jump\t// out\n        /* \"#utility.yul\":1387:1597   */\n    tag_16:\n        /* \"#utility.yul\":1474:1478   */\n      0x00\n        /* \"#utility.yul\":1512:1514   */\n      0x20\n        /* \"#utility.yul\":1501:1510   */\n      dup3\n        /* \"#utility.yul\":1497:1515   */\n      add\n        /* \"#utility.yul\":1489:1515   */\n      swap1\n      pop\n        /* \"#utility.yul\":1525:1590   */\n      tag_178\n        /* \"#utility.yul\":1587:1588   */\n      0x00\n        /* \"#utility.yul\":1576:1585   */\n      dup4\n        /* \"#utility.yul\":1572:1589   */\n      add\n        /* \"#utility.yul\":1563:1569   */\n      dup5\n        /* \"#utility.yul\":1525:1590   */\n      tag_107\n      jump\t// in\n    tag_178:\n        /* \"#utility.yul\":1387:1597   */\n      swap3\n      swap2\n      pop\n      pop\n      jump\t// out\n        /* \"#utility.yul\":1603:1720   */\n    tag_108:\n        /* \"#utility.yul\":1712:1713   */\n      0x00\n        /* \"#utility.yul\":1709:1710   */\n      dup1\n        /* \"#utility.yul\":1702:1714   */\n      revert\n        /* \"#utility.yul\":1726:1843   */\n    tag_109:\n        /* \"#utility.yul\":1835:1836   */\n      0x00\n        /* \"#utility.yul\":1832:1833   */\n      dup1\n        /* \"#utility.yul\":1825:1837   */\n      revert\n        /* \"#utility.yul\":1849:1951   */\n    tag_110:\n        /* \"#utility.yul\":1890:1896   */\n      0x00\n        /* \"#utility.yul\":1941:1943   */\n      0x1f\n        /* \"#utility.yul\":1937:1944   */\n      not\n        /* \"#utility.yul\":1932:1934   */\n      0x1f\n        /* \"#utility.yul\":1925:1930   */\n      dup4\n        /* \"#utility.yul\":1921:1935   */\n      add\n        /* \"#utility.yul\":1917:1945   */\n      and\n        /* \"#utility.yul\":1907:1945   */\n      swap1\n      pop\n        /* \"#utility.yul\":1849:1951   */\n      swap2\n      swap1\n      pop\n      jump\t// out\n        /* \"#utility.yul\":1957:2137   */\n    tag_111:\n        /* \"#utility.yul\":2005:2082   */\n      0x4e487b7100000000000000000000000000000000000000000000000000000000\n        /* \"#utility.yul\":2002:2003   */\n      0x00\n        /* \"#utility.yul\":1995:2083   */\n      mstore\n        /* \"#utility.yul\":2102:2106   */\n      0x41\n        /* \"#utility.yul\":2099:2100   */\n      0x04\n        /* \"#utility.yul\":2092:2107   */\n      mstore\n        /* \"#utility.yul\":2126:2130   */\n      0x24\n        /* \"#utility.yul\":2123:2124   */\n      0x00\n        /* \"#utility.yul\":2116:2131   */\n      revert\n        /* \"#utility.yul\":2143:2424   */\n    tag_112:\n        /* \"#utility.yul\":2226:2253   */\n      tag_184\n        /* \"#utility.yul\":2248:2252   */\n      dup3\n        /* \"#utility.yul\":2226:2253   */\n      tag_110\n      jump\t// in\n    tag_184:\n        /* \"#utility.yul\":2218:2224   */\n      dup2\n        /* \"#utility.yul\":2214:2254   */\n      add\n        /* \"#utility.yul\":2356:2362   */\n      dup2\n        /* \"#utility.yul\":2344:2354   */\n      dup2\n        /* \"#utility.yul\":2341:2363   */\n      lt\n        /* \"#utility.yul\":2320:2338   */\n      0xffffffffffffffff\n        /* \"#utility.yul\":2308:2318   */\n      dup3\n        /* \"#utility.yul\":2305:2339   */\n      gt\n        /* \"#utility.yul\":2302:2364   */\n      or\n        /* \"#utility.yul\":2299:2387   */\n      iszero\n      tag_185\n      jumpi\n        /* \"#utility.yul\":2367:2385   */\n      tag_186\n      tag_111\n      jump\t// in\n    tag_186:\n        /* \"#utility.yul\":2299:2387   */\n    tag_185:\n        /* \"#utility.yul\":2407:2417   */\n      dup1\n        /* \"#utility.yul\":2403:2405   */\n      0x40\n        /* \"#utility.yul\":2396:2418   */\n      mstore\n        /* \"#utility.yul\":2186:2424   */\n      pop\n        /* \"#utility.yul\":2143:2424   */\n      pop\n      pop\n      jump\t// out\n        /* \"#utility.yul\":2430:2559   */\n    tag_113:\n        /* \"#utility.yul\":2464:2470   */\n      0x00\n        /* \"#utility.yul\":2491:2511   */\n      tag_188\n      tag_99\n      jump\t// in\n    tag_188:\n        /* \"#utility.yul\":2481:2511   */\n      swap1\n      pop\n        /* \"#utility.yul\":2520:2553   */\n      tag_189\n        /* \"#utility.yul\":2548:2552   */\n      dup3\n        /* \"#utility.yul\":2540:2546   */\n      dup3\n        /* \"#utility.yul\":2520:2553   */\n      tag_112\n      jump\t// in\n    tag_189:\n        /* \"#utility.yul\":2430:2559   */\n      swap2\n      swap1\n      pop\n      jump\t// out\n        /* \"#utility.yul\":2565:2873   */\n    tag_114:\n        /* \"#utility.yul\":2627:2631   */\n      0x00\n        /* \"#utility.yul\":2717:2735   */\n      0xffffffffffffffff\n        /* \"#utility.yul\":2709:2715   */\n      dup3\n        /* \"#utility.yul\":2706:2736   */\n      gt\n        /* \"#utility.yul\":2703:2759   */\n      iszero\n      tag_191\n      jumpi\n        /* \"#utility.yul\":2739:2757   */\n      tag_192\n      tag_111\n      jump\t// in\n    tag_192:\n        /* \"#utility.yul\":2703:2759   */\n    tag_191:\n        /* \"#utility.yul\":2777:2806   */\n      tag_193\n        /* \"#utility.yul\":2799:2805   */\n      dup3\n        /* \"#utility.yul\":2777:2806   */\n      tag_110\n      jump\t// in\n    tag_193:\n        /* \"#utility.yul\":2769:2806   */\n      swap1\n      pop\n        /* \"#utility.yul\":2861:2865   */\n      0x20\n        /* \"#utility.yul\":2855:2859   */\n      dup2\n        /* \"#utility.yul\":2851:2866   */\n      add\n        /* \"#utility.yul\":2843:2866   */\n      swap1\n      pop\n        /* \"#utility.yul\":2565:2873   */\n      swap2\n      swap1\n      pop\n      jump\t// out\n        /* \"#utility.yul\":2879:3025   */\n    tag_115:\n        /* \"#utility.yul\":2976:2982   */\n      dup3\n        /* \"#utility.yul\":2971:2974   */\n      dup2\n        /* \"#utility.yul\":2966:2969   */\n      dup4\n        /* \"#utility.yul\":2953:2983   */\n      calldatacopy\n        /* \"#utility.yul\":3017:3018   */\n      0x00\n        /* \"#utility.yul\":3008:3014   */\n      dup4\n        /* \"#utility.yul\":3003:3006   */\n      dup4\n        /* \"#utility.yul\":2999:3015   */\n      add\n        /* \"#utility.yul\":2992:3019   */\n      mstore\n        /* \"#utility.yul\":2879:3025   */\n      pop\n      pop\n      pop\n      jump\t// out\n        /* \"#utility.yul\":3031:3456   */\n    tag_116:\n        /* \"#utility.yul\":3109:3114   */\n      0x00\n        /* \"#utility.yul\":3134:3200   */\n      tag_196\n        /* \"#utility.yul\":3150:3199   */\n      tag_197\n        /* \"#utility.yul\":3192:3198   */\n      dup5\n        /* \"#utility.yul\":3150:3199   */\n      tag_114\n      jump\t// in\n    tag_197:\n        /* \"#utility.yul\":3134:3200   */\n      tag_113\n      jump\t// in\n    tag_196:\n        /* \"#utility.yul\":3125:3200   */\n      swap1\n      pop\n        /* \"#utility.yul\":3223:3229   */\n      dup3\n        /* \"#utility.yul\":3216:3221   */\n      dup2\n        /* \"#utility.yul\":3209:3230   */\n      mstore\n        /* \"#utility.yul\":3261:3265   */\n      0x20\n        /* \"#utility.yul\":3254:3259   */\n      dup2\n        /* \"#utility.yul\":3250:3266   */\n      add\n        /* \"#utility.yul\":3299:3302   */\n      dup5\n        /* \"#utility.yul\":3290:3296   */\n      dup5\n        /* \"#utility.yul\":3285:3288   */\n      dup5\n        /* \"#utility.yul\":3281:3297   */\n      add\n        /* \"#utility.yul\":3278:3303   */\n      gt\n        /* \"#utility.yul\":3275:3387   */\n      iszero\n      tag_198\n      jumpi\n        /* \"#utility.yul\":3306:3385   */\n      tag_199\n      tag_109\n      jump\t// in\n    tag_199:\n        /* \"#utility.yul\":3275:3387   */\n    tag_198:\n        /* \"#utility.yul\":3396:3450   */\n      tag_200\n        /* \"#utility.yul\":3443:3449   */\n      dup5\n        /* \"#utility.yul\":3438:3441   */\n      dup3\n        /* \"#utility.yul\":3433:3436   */\n      dup6\n        /* \"#utility.yul\":3396:3450   */\n      tag_115\n      jump\t// in\n    tag_200:\n        /* \"#utility.yul\":3115:3456   */\n      pop\n        /* \"#utility.yul\":3031:3456   */\n      swap4\n      swap3\n      pop\n      pop\n      pop\n      jump\t// out\n        /* \"#utility.yul\":3476:3816   */\n    tag_117:\n        /* \"#utility.yul\":3532:3537   */\n      0x00\n        /* \"#utility.yul\":3581:3584   */\n      dup3\n        /* \"#utility.yul\":3574:3578   */\n      0x1f\n        /* \"#utility.yul\":3566:3572   */\n      dup4\n        /* \"#utility.yul\":3562:3579   */\n      add\n        /* \"#utility.yul\":3558:3585   */\n      slt\n        /* \"#utility.yul\":3548:3670   */\n      tag_202\n      jumpi\n        /* \"#utility.yul\":3589:3668   */\n      tag_203\n      tag_108\n      jump\t// in\n    tag_203:\n        /* \"#utility.yul\":3548:3670   */\n    tag_202:\n        /* \"#utility.yul\":3706:3712   */\n      dup2\n        /* \"#utility.yul\":3693:3713   */\n      calldataload\n        /* \"#utility.yul\":3731:3810   */\n      tag_204\n        /* \"#utility.yul\":3806:3809   */\n      dup5\n        /* \"#utility.yul\":3798:3804   */\n      dup3\n        /* \"#utility.yul\":3791:3795   */\n      0x20\n        /* \"#utility.yul\":3783:3789   */\n      dup7\n        /* \"#utility.yul\":3779:3796   */\n      add\n        /* \"#utility.yul\":3731:3810   */\n      tag_116\n      jump\t// in\n    tag_204:\n        /* \"#utility.yul\":3722:3810   */\n      swap2\n      pop\n        /* \"#utility.yul\":3538:3816   */\n      pop\n        /* \"#utility.yul\":3476:3816   */\n      swap3\n      swap2\n      pop\n      pop\n      jump\t// out\n        /* \"#utility.yul\":3822:3899   */\n    tag_118:\n        /* \"#utility.yul\":3859:3866   */\n      0x00\n        /* \"#utility.yul\":3888:3893   */\n      dup2\n        /* \"#utility.yul\":3877:3893   */\n      swap1\n      pop\n        /* \"#utility.yul\":3822:3899   */\n      swap2\n      swap1\n      pop\n      jump\t// out\n        /* \"#utility.yul\":3905:4027   */\n    tag_119:\n        /* \"#utility.yul\":3978:4002   */\n      tag_207\n        /* \"#utility.yul\":3996:4001   */\n      dup2\n        /* \"#utility.yul\":3978:4002   */\n      tag_118\n      jump\t// in\n    tag_207:\n        /* \"#utility.yul\":3971:3976   */\n      dup2\n        /* \"#utility.yul\":3968:4003   */\n      eq\n        /* \"#utility.yul\":3958:4021   */\n      tag_208\n      jumpi\n        /* \"#utility.yul\":4017:4018   */\n      0x00\n        /* \"#utility.yul\":4014:4015   */\n      dup1\n        /* \"#utility.yul\":4007:4019   */\n      revert\n        /* \"#utility.yul\":3958:4021   */\n    tag_208:\n        /* \"#utility.yul\":3905:4027   */\n      pop\n      jump\t// out\n        /* \"#utility.yul\":4033:4172   */\n    tag_120:\n        /* \"#utility.yul\":4079:4084   */\n      0x00\n        /* \"#utility.yul\":4117:4123   */\n      dup2\n        /* \"#utility.yul\":4104:4124   */\n      calldataload\n        /* \"#utility.yul\":4095:4124   */\n      swap1\n      pop\n        /* \"#utility.yul\":4133:4166   */\n      tag_210\n        /* \"#utility.yul\":4160:4165   */\n      dup2\n        /* \"#utility.yul\":4133:4166   */\n      tag_119\n      jump\t// in\n    tag_210:\n        /* \"#utility.yul\":4033:4172   */\n      swap3\n      swap2\n      pop\n      pop\n      jump\t// out\n        /* \"#utility.yul\":4178:5303   */\n    tag_22:\n        /* \"#utility.yul\":4284:4290   */\n      0x00\n        /* \"#utility.yul\":4292:4298   */\n      dup1\n        /* \"#utility.yul\":4300:4306   */\n      0x00\n        /* \"#utility.yul\":4308:4314   */\n      dup1\n        /* \"#utility.yul\":4357:4360   */\n      0x80\n        /* \"#utility.yul\":4345:4354   */\n      dup6\n        /* \"#utility.yul\":4336:4343   */\n      dup8\n        /* \"#utility.yul\":4332:4355   */\n      sub\n        /* \"#utility.yul\":4328:4361   */\n      slt\n        /* \"#utility.yul\":4325:4445   */\n      iszero\n      tag_212\n      jumpi\n        /* \"#utility.yul\":4364:4443   */\n      tag_213\n      tag_100\n      jump\t// in\n    tag_213:\n        /* \"#utility.yul\":4325:4445   */\n    tag_212:\n        /* \"#utility.yul\":4484:4485   */\n      0x00\n        /* \"#utility.yul\":4509:4562   */\n      tag_214\n        /* \"#utility.yul\":4554:4561   */\n      dup8\n        /* \"#utility.yul\":4545:4551   */\n      dup3\n        /* \"#utility.yul\":4534:4543   */\n      dup9\n        /* \"#utility.yul\":4530:4552   */\n      add\n        /* \"#utility.yul\":4509:4562   */\n      tag_105\n      jump\t// in\n    tag_214:\n        /* \"#utility.yul\":4499:4562   */\n      swap5\n      pop\n        /* \"#utility.yul\":4455:4572   */\n      pop\n        /* \"#utility.yul\":4639:4641   */\n      0x20\n        /* \"#utility.yul\":4628:4637   */\n      dup6\n        /* \"#utility.yul\":4624:4642   */\n      add\n        /* \"#utility.yul\":4611:4643   */\n      calldataload\n        /* \"#utility.yul\":4670:4688   */\n      0xffffffffffffffff\n        /* \"#utility.yul\":4662:4668   */\n      dup2\n        /* \"#utility.yul\":4659:4689   */\n      gt\n        /* \"#utility.yul\":4656:4773   */\n      iszero\n      tag_215\n      jumpi\n        /* \"#utility.yul\":4692:4771   */\n      tag_216\n      tag_101\n      jump\t// in\n    tag_216:\n        /* \"#utility.yul\":4656:4773   */\n    tag_215:\n        /* \"#utility.yul\":4797:4860   */\n      tag_217\n        /* \"#utility.yul\":4852:4859   */\n      dup8\n        /* \"#utility.yul\":4843:4849   */\n      dup3\n        /* \"#utility.yul\":4832:4841   */\n      dup9\n        /* \"#utility.yul\":4828:4850   */\n      add\n        /* \"#utility.yul\":4797:4860   */\n      tag_117\n      jump\t// in\n    tag_217:\n        /* \"#utility.yul\":4787:4860   */\n      swap4\n      pop\n        /* \"#utility.yul\":4582:4870   */\n      pop\n        /* \"#utility.yul\":4937:4939   */\n      0x40\n        /* \"#utility.yul\":4926:4935   */\n      dup6\n        /* \"#utility.yul\":4922:4940   */\n      add\n        /* \"#utility.yul\":4909:4941   */\n      calldataload\n        /* \"#utility.yul\":4968:4986   */\n      0xffffffffffffffff\n        /* \"#utility.yul\":4960:4966   */\n      dup2\n        /* \"#utility.yul\":4957:4987   */\n      gt\n        /* \"#utility.yul\":4954:5071   */\n      iszero\n      tag_218\n      jumpi\n        /* \"#utility.yul\":4990:5069   */\n      tag_219\n      tag_101\n      jump\t// in\n    tag_219:\n        /* \"#utility.yul\":4954:5071   */\n    tag_218:\n        /* \"#utility.yul\":5095:5158   */\n      tag_220\n        /* \"#utility.yul\":5150:5157   */\n      dup8\n        /* \"#utility.yul\":5141:5147   */\n      dup3\n        /* \"#utility.yul\":5130:5139   */\n      dup9\n        /* \"#utility.yul\":5126:5148   */\n      add\n        /* \"#utility.yul\":5095:5158   */\n      tag_117\n      jump\t// in\n    tag_220:\n        /* \"#utility.yul\":5085:5158   */\n      swap3\n      pop\n        /* \"#utility.yul\":4880:5168   */\n      pop\n        /* \"#utility.yul\":5207:5209   */\n      0x60\n        /* \"#utility.yul\":5233:5286   */\n      tag_221\n        /* \"#utility.yul\":5278:5285   */\n      dup8\n        /* \"#utility.yul\":5269:5275   */\n      dup3\n        /* \"#utility.yul\":5258:5267   */\n      dup9\n        /* \"#utility.yul\":5254:5276   */\n      add\n        /* \"#utility.yul\":5233:5286   */\n      tag_120\n      jump\t// in\n    tag_221:\n        /* \"#utility.yul\":5223:5286   */\n      swap2\n      pop\n        /* \"#utility.yul\":5178:5296   */\n      pop\n        /* \"#utility.yul\":4178:5303   */\n      swap3\n      swap6\n      swap2\n      swap5\n      pop\n      swap3\n      pop\n      jump\t// out\n        /* \"#utility.yul\":5309:6254   */\n    tag_26:\n        /* \"#utility.yul\":5405:5411   */\n      0x00\n        /* \"#utility.yul\":5413:5419   */\n      dup1\n        /* \"#utility.yul\":5421:5427   */\n      0x00\n        /* \"#utility.yul\":5429:5435   */\n      dup1\n        /* \"#utility.yul\":5478:5481   */\n      0x80\n        /* \"#utility.yul\":5466:5475   */\n      dup6\n        /* \"#utility.yul\":5457:5464   */\n      dup8\n        /* \"#utility.yul\":5453:5476   */\n      sub\n        /* \"#utility.yul\":5449:5482   */\n      slt\n        /* \"#utility.yul\":5446:5566   */\n      iszero\n      tag_223\n      jumpi\n        /* \"#utility.yul\":5485:5564   */\n      tag_224\n      tag_100\n      jump\t// in\n    tag_224:\n        /* \"#utility.yul\":5446:5566   */\n    tag_223:\n        /* \"#utility.yul\":5605:5606   */\n      0x00\n        /* \"#utility.yul\":5630:5683   */\n      tag_225\n        /* \"#utility.yul\":5675:5682   */\n      dup8\n        /* \"#utility.yul\":5666:5672   */\n      dup3\n        /* \"#utility.yul\":5655:5664   */\n      dup9\n        /* \"#utility.yul\":5651:5673   */\n      add\n        /* \"#utility.yul\":5630:5683   */\n      tag_105\n      jump\t// in\n    tag_225:\n        /* \"#utility.yul\":5620:5683   */\n      swap5\n      pop\n        /* \"#utility.yul\":5576:5693   */\n      pop\n        /* \"#utility.yul\":5760:5762   */\n      0x20\n        /* \"#utility.yul\":5749:5758   */\n      dup6\n        /* \"#utility.yul\":5745:5763   */\n      add\n        /* \"#utility.yul\":5732:5764   */\n      calldataload\n        /* \"#utility.yul\":5791:5809   */\n      0xffffffffffffffff\n        /* \"#utility.yul\":5783:5789   */\n      dup2\n        /* \"#utility.yul\":5780:5810   */\n      gt\n        /* \"#utility.yul\":5777:5894   */\n      iszero\n      tag_226\n      jumpi\n        /* \"#utility.yul\":5813:5892   */\n      tag_227\n      tag_101\n      jump\t// in\n    tag_227:\n        /* \"#utility.yul\":5777:5894   */\n    tag_226:\n        /* \"#utility.yul\":5918:5981   */\n      tag_228\n        /* \"#utility.yul\":5973:5980   */\n      dup8\n        /* \"#utility.yul\":5964:5970   */\n      dup3\n        /* \"#utility.yul\":5953:5962   */\n      dup9\n        /* \"#utility.yul\":5949:5971   */\n      add\n        /* \"#utility.yul\":5918:5981   */\n      tag_117\n      jump\t// in\n    tag_228:\n        /* \"#utility.yul\":5908:5981   */\n      swap4\n      pop\n        /* \"#utility.yul\":5703:5991   */\n      pop\n        /* \"#utility.yul\":6030:6032   */\n      0x40\n        /* \"#utility.yul\":6056:6109   */\n      tag_229\n        /* \"#utility.yul\":6101:6108   */\n      dup8\n        /* \"#utility.yul\":6092:6098   */\n      dup3\n        /* \"#utility.yul\":6081:6090   */\n      dup9\n        /* \"#utility.yul\":6077:6099   */\n      add\n        /* \"#utility.yul\":6056:6109   */\n      tag_120\n      jump\t// in\n    tag_229:\n        /* \"#utility.yul\":6046:6109   */\n      swap3\n      pop\n        /* \"#utility.yul\":6001:6119   */\n      pop\n        /* \"#utility.yul\":6158:6160   */\n      0x60\n        /* \"#utility.yul\":6184:6237   */\n      tag_230\n        /* \"#utility.yul\":6229:6236   */\n      dup8\n        /* \"#utility.yul\":6220:6226   */\n      dup3\n        /* \"#utility.yul\":6209:6218   */\n      dup9\n        /* \"#utility.yul\":6205:6227   */\n      add\n        /* \"#utility.yul\":6184:6237   */\n      tag_120\n      jump\t// in\n    tag_230:\n        /* \"#utility.yul\":6174:6237   */\n      swap2\n      pop\n        /* \"#utility.yul\":6129:6247   */\n      pop\n        /* \"#utility.yul\":5309:6254   */\n      swap3\n      swap6\n      swap2\n      swap5\n      pop\n      swap3\n      pop\n      jump\t// out\n        /* \"#utility.yul\":6260:6378   */\n    tag_121:\n        /* \"#utility.yul\":6347:6371   */\n      tag_232\n        /* \"#utility.yul\":6365:6370   */\n      dup2\n        /* \"#utility.yul\":6347:6371   */\n      tag_103\n      jump\t// in\n    tag_232:\n        /* \"#utility.yul\":6342:6345   */\n      dup3\n        /* \"#utility.yul\":6335:6372   */\n      mstore\n        /* \"#utility.yul\":6260:6378   */\n      pop\n      pop\n      jump\t// out\n        /* \"#utility.yul\":6384:6483   */\n    tag_122:\n        /* \"#utility.yul\":6436:6442   */\n      0x00\n        /* \"#utility.yul\":6470:6475   */\n      dup2\n        /* \"#utility.yul\":6464:6476   */\n      mload\n        /* \"#utility.yul\":6454:6476   */\n      swap1\n      pop\n        /* \"#utility.yul\":6384:6483   */\n      swap2\n      swap1\n      pop\n      jump\t// out\n        /* \"#utility.yul\":6489:6658   */\n    tag_123:\n        /* \"#utility.yul\":6573:6584   */\n      0x00\n        /* \"#utility.yul\":6607:6613   */\n      dup3\n        /* \"#utility.yul\":6602:6605   */\n      dup3\n        /* \"#utility.yul\":6595:6614   */\n      mstore\n        /* \"#utility.yul\":6647:6651   */\n      0x20\n        /* \"#utility.yul\":6642:6645   */\n      dup3\n        /* \"#utility.yul\":6638:6652   */\n      add\n        /* \"#utility.yul\":6623:6652   */\n      swap1\n      pop\n        /* \"#utility.yul\":6489:6658   */\n      swap3\n      swap2\n      pop\n      pop\n      jump\t// out\n        /* \"#utility.yul\":6664:6910   */\n    tag_124:\n        /* \"#utility.yul\":6745:6746   */\n      0x00\n        /* \"#utility.yul\":6755:6868   */\n    tag_236:\n        /* \"#utility.yul\":6769:6775   */\n      dup4\n        /* \"#utility.yul\":6766:6767   */\n      dup2\n        /* \"#utility.yul\":6763:6776   */\n      lt\n        /* \"#utility.yul\":6755:6868   */\n      iszero\n      tag_238\n      jumpi\n        /* \"#utility.yul\":6854:6855   */\n      dup1\n        /* \"#utility.yul\":6849:6852   */\n      dup3\n        /* \"#utility.yul\":6845:6856   */\n      add\n        /* \"#utility.yul\":6839:6857   */\n      mload\n        /* \"#utility.yul\":6835:6836   */\n      dup2\n        /* \"#utility.yul\":6830:6833   */\n      dup5\n        /* \"#utility.yul\":6826:6837   */\n      add\n        /* \"#utility.yul\":6819:6858   */\n      mstore\n        /* \"#utility.yul\":6791:6793   */\n      0x20\n        /* \"#utility.yul\":6788:6789   */\n      dup2\n        /* \"#utility.yul\":6784:6794   */\n      add\n        /* \"#utility.yul\":6779:6794   */\n      swap1\n      pop\n        /* \"#utility.yul\":6755:6868   */\n      jump(tag_236)\n    tag_238:\n        /* \"#utility.yul\":6902:6903   */\n      0x00\n        /* \"#utility.yul\":6893:6899   */\n      dup5\n        /* \"#utility.yul\":6888:6891   */\n      dup5\n        /* \"#utility.yul\":6884:6900   */\n      add\n        /* \"#utility.yul\":6877:6904   */\n      mstore\n        /* \"#utility.yul\":6726:6910   */\n      pop\n        /* \"#utility.yul\":6664:6910   */\n      pop\n      pop\n      pop\n      jump\t// out\n        /* \"#utility.yul\":6916:7293   */\n    tag_125:\n        /* \"#utility.yul\":7004:7007   */\n      0x00\n        /* \"#utility.yul\":7032:7071   */\n      tag_240\n        /* \"#utility.yul\":7065:7070   */\n      dup3\n        /* \"#utility.yul\":7032:7071   */\n      tag_122\n      jump\t// in\n    tag_240:\n        /* \"#utility.yul\":7087:7158   */\n      tag_241\n        /* \"#utility.yul\":7151:7157   */\n      dup2\n        /* \"#utility.yul\":7146:7149   */\n      dup6\n        /* \"#utility.yul\":7087:7158   */\n      tag_123\n      jump\t// in\n    tag_241:\n        /* \"#utility.yul\":7080:7158   */\n      swap4\n      pop\n        /* \"#utility.yul\":7167:7232   */\n      tag_242\n        /* \"#utility.yul\":7225:7231   */\n      dup2\n        /* \"#utility.yul\":7220:7223   */\n      dup6\n        /* \"#utility.yul\":7213:7217   */\n      0x20\n        /* \"#utility.yul\":7206:7211   */\n      dup7\n        /* \"#utility.yul\":7202:7218   */\n      add\n        /* \"#utility.yul\":7167:7232   */\n      tag_124\n      jump\t// in\n    tag_242:\n        /* \"#utility.yul\":7257:7286   */\n      tag_243\n        /* \"#utility.yul\":7279:7285   */\n      dup2\n        /* \"#utility.yul\":7257:7286   */\n      tag_110\n      jump\t// in\n    tag_243:\n        /* \"#utility.yul\":7252:7255   */\n      dup5\n        /* \"#utility.yul\":7248:7287   */\n      add\n        /* \"#utility.yul\":7241:7287   */\n      swap2\n      pop\n        /* \"#utility.yul\":7008:7293   */\n      pop\n        /* \"#utility.yul\":6916:7293   */\n      swap3\n      swap2\n      pop\n      pop\n      jump\t// out\n        /* \"#utility.yul\":7299:7417   */\n    tag_126:\n        /* \"#utility.yul\":7386:7410   */\n      tag_245\n        /* \"#utility.yul\":7404:7409   */\n      dup2\n        /* \"#utility.yul\":7386:7410   */\n      tag_118\n      jump\t// in\n    tag_245:\n        /* \"#utility.yul\":7381:7384   */\n      dup3\n        /* \"#utility.yul\":7374:7411   */\n      mstore\n        /* \"#utility.yul\":7299:7417   */\n      pop\n      pop\n      jump\t// out\n        /* \"#utility.yul\":7423:8269   */\n    tag_32:\n        /* \"#utility.yul\":7668:7672   */\n      0x00\n        /* \"#utility.yul\":7706:7709   */\n      0xa0\n        /* \"#utility.yul\":7695:7704   */\n      dup3\n        /* \"#utility.yul\":7691:7710   */\n      add\n        /* \"#utility.yul\":7683:7710   */\n      swap1\n      pop\n        /* \"#utility.yul\":7720:7791   */\n      tag_247\n        /* \"#utility.yul\":7788:7789   */\n      0x00\n        /* \"#utility.yul\":7777:7786   */\n      dup4\n        /* \"#utility.yul\":7773:7790   */\n      add\n        /* \"#utility.yul\":7764:7770   */\n      dup9\n        /* \"#utility.yul\":7720:7791   */\n      tag_121\n      jump\t// in\n    tag_247:\n        /* \"#utility.yul\":7838:7847   */\n      dup2\n        /* \"#utility.yul\":7832:7836   */\n      dup2\n        /* \"#utility.yul\":7828:7848   */\n      sub\n        /* \"#utility.yul\":7823:7825   */\n      0x20\n        /* \"#utility.yul\":7812:7821   */\n      dup4\n        /* \"#utility.yul\":7808:7826   */\n      add\n        /* \"#utility.yul\":7801:7849   */\n      mstore\n        /* \"#utility.yul\":7866:7944   */\n      tag_248\n        /* \"#utility.yul\":7939:7943   */\n      dup2\n        /* \"#utility.yul\":7930:7936   */\n      dup8\n        /* \"#utility.yul\":7866:7944   */\n      tag_125\n      jump\t// in\n    tag_248:\n        /* \"#utility.yul\":7858:7944   */\n      swap1\n      pop\n        /* \"#utility.yul\":7991:8000   */\n      dup2\n        /* \"#utility.yul\":7985:7989   */\n      dup2\n        /* \"#utility.yul\":7981:8001   */\n      sub\n        /* \"#utility.yul\":7976:7978   */\n      0x40\n        /* \"#utility.yul\":7965:7974   */\n      dup4\n        /* \"#utility.yul\":7961:7979   */\n      add\n        /* \"#utility.yul\":7954:8002   */\n      mstore\n        /* \"#utility.yul\":8019:8097   */\n      tag_249\n        /* \"#utility.yul\":8092:8096   */\n      dup2\n        /* \"#utility.yul\":8083:8089   */\n      dup7\n        /* \"#utility.yul\":8019:8097   */\n      tag_125\n      jump\t// in\n    tag_249:\n        /* \"#utility.yul\":8011:8097   */\n      swap1\n      pop\n        /* \"#utility.yul\":8107:8179   */\n      tag_250\n        /* \"#utility.yul\":8175:8177   */\n      0x60\n        /* \"#utility.yul\":8164:8173   */\n      dup4\n        /* \"#utility.yul\":8160:8178   */\n      add\n        /* \"#utility.yul\":8151:8157   */\n      dup6\n        /* \"#utility.yul\":8107:8179   */\n      tag_126\n      jump\t// in\n    tag_250:\n        /* \"#utility.yul\":8189:8262   */\n      tag_251\n        /* \"#utility.yul\":8257:8260   */\n      0x80\n        /* \"#utility.yul\":8246:8255   */\n      dup4\n        /* \"#utility.yul\":8242:8261   */\n      add\n        /* \"#utility.yul\":8233:8239   */\n      dup5\n        /* \"#utility.yul\":8189:8262   */\n      tag_126\n      jump\t// in\n    tag_251:\n        /* \"#utility.yul\":7423:8269   */\n      swap7\n      swap6\n      pop\n      pop\n      pop\n      pop\n      pop\n      pop\n      jump\t// out\n        /* \"#utility.yul\":8275:8604   */\n    tag_35:\n        /* \"#utility.yul\":8334:8340   */\n      0x00\n        /* \"#utility.yul\":8383:8385   */\n      0x20\n        /* \"#utility.yul\":8371:8380   */\n      dup3\n        /* \"#utility.yul\":8362:8369   */\n      dup5\n        /* \"#utility.yul\":8358:8381   */\n      sub\n        /* \"#utility.yul\":8354:8386   */\n      slt\n        /* \"#utility.yul\":8351:8470   */\n      iszero\n      tag_253\n      jumpi\n        /* \"#utility.yul\":8389:8468   */\n      tag_254\n      tag_100\n      jump\t// in\n    tag_254:\n        /* \"#utility.yul\":8351:8470   */\n    tag_253:\n        /* \"#utility.yul\":8509:8510   */\n      0x00\n        /* \"#utility.yul\":8534:8587   */\n      tag_255\n        /* \"#utility.yul\":8579:8586   */\n      dup5\n        /* \"#utility.yul\":8570:8576   */\n      dup3\n        /* \"#utility.yul\":8559:8568   */\n      dup6\n        /* \"#utility.yul\":8555:8577   */\n      add\n        /* \"#utility.yul\":8534:8587   */\n      tag_120\n      jump\t// in\n    tag_255:\n        /* \"#utility.yul\":8524:8587   */\n      swap2\n      pop\n        /* \"#utility.yul\":8480:8597   */\n      pop\n        /* \"#utility.yul\":8275:8604   */\n      swap3\n      swap2\n      pop\n      pop\n      jump\t// out\n        /* \"#utility.yul\":8610:9476   */\n    tag_41:\n        /* \"#utility.yul\":8863:8867   */\n      0x00\n        /* \"#utility.yul\":8901:8904   */\n      0xc0\n        /* \"#utility.yul\":8890:8899   */\n      dup3\n        /* \"#utility.yul\":8886:8905   */\n      add\n        /* \"#utility.yul\":8878:8905   */\n      swap1\n      pop\n        /* \"#utility.yul\":8915:8986   */\n      tag_257\n        /* \"#utility.yul\":8983:8984   */\n      0x00\n        /* \"#utility.yul\":8972:8981   */\n      dup4\n        /* \"#utility.yul\":8968:8985   */\n      add\n        /* \"#utility.yul\":8959:8965   */\n      dup10\n        /* \"#utility.yul\":8915:8986   */\n      tag_121\n      jump\t// in\n    tag_257:\n        /* \"#utility.yul\":9033:9042   */\n      dup2\n        /* \"#utility.yul\":9027:9031   */\n      dup2\n        /* \"#utility.yul\":9023:9043   */\n      sub\n        /* \"#utility.yul\":9018:9020   */\n      0x20\n        /* \"#utility.yul\":9007:9016   */\n      dup4\n        /* \"#utility.yul\":9003:9021   */\n      add\n        /* \"#utility.yul\":8996:9044   */\n      mstore\n        /* \"#utility.yul\":9061:9139   */\n      tag_258\n        /* \"#utility.yul\":9134:9138   */\n      dup2\n        /* \"#utility.yul\":9125:9131   */\n      dup9\n        /* \"#utility.yul\":9061:9139   */\n      tag_125\n      jump\t// in\n    tag_258:\n        /* \"#utility.yul\":9053:9139   */\n      swap1\n      pop\n        /* \"#utility.yul\":9149:9221   */\n      tag_259\n        /* \"#utility.yul\":9217:9219   */\n      0x40\n        /* \"#utility.yul\":9206:9215   */\n      dup4\n        /* \"#utility.yul\":9202:9220   */\n      add\n        /* \"#utility.yul\":9193:9199   */\n      dup8\n        /* \"#utility.yul\":9149:9221   */\n      tag_126\n      jump\t// in\n    tag_259:\n        /* \"#utility.yul\":9231:9303   */\n      tag_260\n        /* \"#utility.yul\":9299:9301   */\n      0x60\n        /* \"#utility.yul\":9288:9297   */\n      dup4\n        /* \"#utility.yul\":9284:9302   */\n      add\n        /* \"#utility.yul\":9275:9281   */\n      dup7\n        /* \"#utility.yul\":9231:9303   */\n      tag_126\n      jump\t// in\n    tag_260:\n        /* \"#utility.yul\":9313:9386   */\n      tag_261\n        /* \"#utility.yul\":9381:9384   */\n      0x80\n        /* \"#utility.yul\":9370:9379   */\n      dup4\n        /* \"#utility.yul\":9366:9385   */\n      add\n        /* \"#utility.yul\":9357:9363   */\n      dup6\n        /* \"#utility.yul\":9313:9386   */\n      tag_126\n      jump\t// in\n    tag_261:\n        /* \"#utility.yul\":9396:9469   */\n      tag_262\n        /* \"#utility.yul\":9464:9467   */\n      0xa0\n        /* \"#utility.yul\":9453:9462   */\n      dup4\n        /* \"#utility.yul\":9449:9468   */\n      add\n        /* \"#utility.yul\":9440:9446   */\n      dup5\n        /* \"#utility.yul\":9396:9469   */\n      tag_126\n      jump\t// in\n    tag_262:\n        /* \"#utility.yul\":8610:9476   */\n      swap8\n      swap7\n      pop\n      pop\n      pop\n      pop\n      pop\n      pop\n      pop\n      jump\t// out\n        /* \"#utility.yul\":9482:9706   */\n    tag_127:\n        /* \"#utility.yul\":9622:9656   */\n      0x4f6e6c79206f7267616e697a6174696f6e206f776e65722063616e2077686974\n        /* \"#utility.yul\":9618:9619   */\n      0x00\n        /* \"#utility.yul\":9610:9616   */\n      dup3\n        /* \"#utility.yul\":9606:9620   */\n      add\n        /* \"#utility.yul\":9599:9657   */\n      mstore\n        /* \"#utility.yul\":9691:9698   */\n      0x656c697374000000000000000000000000000000000000000000000000000000\n        /* \"#utility.yul\":9686:9688   */\n      0x20\n        /* \"#utility.yul\":9678:9684   */\n      dup3\n        /* \"#utility.yul\":9674:9689   */\n      add\n        /* \"#utility.yul\":9667:9699   */\n      mstore\n        /* \"#utility.yul\":9482:9706   */\n      pop\n      jump\t// out\n        /* \"#utility.yul\":9712:10078   */\n    tag_128:\n        /* \"#utility.yul\":9854:9857   */\n      0x00\n        /* \"#utility.yul\":9875:9942   */\n      tag_265\n        /* \"#utility.yul\":9939:9941   */\n      0x25\n        /* \"#utility.yul\":9934:9937   */\n      dup4\n        /* \"#utility.yul\":9875:9942   */\n      tag_123\n      jump\t// in\n    tag_265:\n        /* \"#utility.yul\":9868:9942   */\n      swap2\n      pop\n        /* \"#utility.yul\":9951:10044   */\n      tag_266\n        /* \"#utility.yul\":10040:10043   */\n      dup3\n        /* \"#utility.yul\":9951:10044   */\n      tag_127\n      jump\t// in\n    tag_266:\n        /* \"#utility.yul\":10069:10071   */\n      0x40\n        /* \"#utility.yul\":10064:10067   */\n      dup3\n        /* \"#utility.yul\":10060:10072   */\n      add\n        /* \"#utility.yul\":10053:10072   */\n      swap1\n      pop\n        /* \"#utility.yul\":9712:10078   */\n      swap2\n      swap1\n      pop\n      jump\t// out\n        /* \"#utility.yul\":10084:10503   */\n    tag_45:\n        /* \"#utility.yul\":10250:10254   */\n      0x00\n        /* \"#utility.yul\":10288:10290   */\n      0x20\n        /* \"#utility.yul\":10277:10286   */\n      dup3\n        /* \"#utility.yul\":10273:10291   */\n      add\n        /* \"#utility.yul\":10265:10291   */\n      swap1\n      pop\n        /* \"#utility.yul\":10337:10346   */\n      dup2\n        /* \"#utility.yul\":10331:10335   */\n      dup2\n        /* \"#utility.yul\":10327:10347   */\n      sub\n        /* \"#utility.yul\":10323:10324   */\n      0x00\n        /* \"#utility.yul\":10312:10321   */\n      dup4\n        /* \"#utility.yul\":10308:10325   */\n      add\n        /* \"#utility.yul\":10301:10348   */\n      mstore\n        /* \"#utility.yul\":10365:10496   */\n      tag_268\n        /* \"#utility.yul\":10491:10495   */\n      dup2\n        /* \"#utility.yul\":10365:10496   */\n      tag_128\n      jump\t// in\n    tag_268:\n        /* \"#utility.yul\":10357:10496   */\n      swap1\n      pop\n        /* \"#utility.yul\":10084:10503   */\n      swap2\n      swap1\n      pop\n      jump\t// out\n        /* \"#utility.yul\":10509:10841   */\n    tag_47:\n        /* \"#utility.yul\":10630:10634   */\n      0x00\n        /* \"#utility.yul\":10668:10670   */\n      0x40\n        /* \"#utility.yul\":10657:10666   */\n      dup3\n        /* \"#utility.yul\":10653:10671   */\n      add\n        /* \"#utility.yul\":10645:10671   */\n      swap1\n      pop\n        /* \"#utility.yul\":10681:10752   */\n      tag_270\n        /* \"#utility.yul\":10749:10750   */\n      0x00\n        /* \"#utility.yul\":10738:10747   */\n      dup4\n        /* \"#utility.yul\":10734:10751   */\n      add\n        /* \"#utility.yul\":10725:10731   */\n      dup6\n        /* \"#utility.yul\":10681:10752   */\n      tag_126\n      jump\t// in\n    tag_270:\n        /* \"#utility.yul\":10762:10834   */\n      tag_271\n        /* \"#utility.yul\":10830:10832   */\n      0x20\n        /* \"#utility.yul\":10819:10828   */\n      dup4\n        /* \"#utility.yul\":10815:10833   */\n      add\n        /* \"#utility.yul\":10806:10812   */\n      dup5\n        /* \"#utility.yul\":10762:10834   */\n      tag_121\n      jump\t// in\n    tag_271:\n        /* \"#utility.yul\":10509:10841   */\n      swap4\n      swap3\n      pop\n      pop\n      pop\n      jump\t// out\n        /* \"#utility.yul\":10847:11027   */\n    tag_129:\n        /* \"#utility.yul\":10895:10972   */\n      0x4e487b7100000000000000000000000000000000000000000000000000000000\n        /* \"#utility.yul\":10892:10893   */\n      0x00\n        /* \"#utility.yul\":10885:10973   */\n      mstore\n        /* \"#utility.yul\":10992:10996   */\n      0x22\n        /* \"#utility.yul\":10989:10990   */\n      0x04\n        /* \"#utility.yul\":10982:10997   */\n      mstore\n        /* \"#utility.yul\":11016:11020   */\n      0x24\n        /* \"#utility.yul\":11013:11014   */\n      0x00\n        /* \"#utility.yul\":11006:11021   */\n      revert\n        /* \"#utility.yul\":11033:11353   */\n    tag_67:\n        /* \"#utility.yul\":11077:11083   */\n      0x00\n        /* \"#utility.yul\":11114:11115   */\n      0x02\n        /* \"#utility.yul\":11108:11112   */\n      dup3\n        /* \"#utility.yul\":11104:11116   */\n      div\n        /* \"#utility.yul\":11094:11116   */\n      swap1\n      pop\n        /* \"#utility.yul\":11161:11162   */\n      0x01\n        /* \"#utility.yul\":11155:11159   */\n      dup3\n        /* \"#utility.yul\":11151:11163   */\n      and\n        /* \"#utility.yul\":11182:11200   */\n      dup1\n        /* \"#utility.yul\":11172:11253   */\n      tag_274\n      jumpi\n        /* \"#utility.yul\":11238:11242   */\n      0x7f\n        /* \"#utility.yul\":11230:11236   */\n      dup3\n        /* \"#utility.yul\":11226:11243   */\n      and\n        /* \"#utility.yul\":11216:11243   */\n      swap2\n      pop\n        /* \"#utility.yul\":11172:11253   */\n    tag_274:\n        /* \"#utility.yul\":11300:11302   */\n      0x20\n        /* \"#utility.yul\":11292:11298   */\n      dup3\n        /* \"#utility.yul\":11289:11303   */\n      lt\n        /* \"#utility.yul\":11269:11287   */\n      dup2\n        /* \"#utility.yul\":11266:11304   */\n      sub\n        /* \"#utility.yul\":11263:11347   */\n      tag_275\n      jumpi\n        /* \"#utility.yul\":11319:11337   */\n      tag_276\n      tag_129\n      jump\t// in\n    tag_276:\n        /* \"#utility.yul\":11263:11347   */\n    tag_275:\n        /* \"#utility.yul\":11084:11353   */\n      pop\n        /* \"#utility.yul\":11033:11353   */\n      swap2\n      swap1\n      pop\n      jump\t// out\n        /* \"#utility.yul\":11359:11500   */\n    tag_130:\n        /* \"#utility.yul\":11408:11412   */\n      0x00\n        /* \"#utility.yul\":11431:11434   */\n      dup2\n        /* \"#utility.yul\":11423:11434   */\n      swap1\n      pop\n        /* \"#utility.yul\":11454:11457   */\n      dup2\n        /* \"#utility.yul\":11451:11452   */\n      0x00\n        /* \"#utility.yul\":11444:11458   */\n      mstore\n        /* \"#utility.yul\":11488:11492   */\n      0x20\n        /* \"#utility.yul\":11485:11486   */\n      0x00\n        /* \"#utility.yul\":11475:11493   */\n      keccak256\n        /* \"#utility.yul\":11467:11493   */\n      swap1\n      pop\n        /* \"#utility.yul\":11359:11500   */\n      swap2\n      swap1\n      pop\n      jump\t// out\n        /* \"#utility.yul\":11506:11599   */\n    tag_131:\n        /* \"#utility.yul\":11543:11549   */\n      0x00\n        /* \"#utility.yul\":11590:11592   */\n      0x20\n        /* \"#utility.yul\":11585:11587   */\n      0x1f\n        /* \"#utility.yul\":11578:11583   */\n      dup4\n        /* \"#utility.yul\":11574:11588   */\n      add\n        /* \"#utility.yul\":11570:11593   */\n      div\n        /* \"#utility.yul\":11560:11593   */\n      swap1\n      pop\n        /* \"#utility.yul\":11506:11599   */\n      swap2\n      swap1\n      pop\n      jump\t// out\n        /* \"#utility.yul\":11605:11712   */\n    tag_132:\n        /* \"#utility.yul\":11649:11657   */\n      0x00\n        /* \"#utility.yul\":11699:11704   */\n      dup3\n        /* \"#utility.yul\":11693:11697   */\n      dup3\n        /* \"#utility.yul\":11689:11705   */\n      shl\n        /* \"#utility.yul\":11668:11705   */\n      swap1\n      pop\n        /* \"#utility.yul\":11605:11712   */\n      swap3\n      swap2\n      pop\n      pop\n      jump\t// out\n        /* \"#utility.yul\":11718:12111   */\n    tag_133:\n        /* \"#utility.yul\":11787:11793   */\n      0x00\n        /* \"#utility.yul\":11837:11838   */\n      0x08\n        /* \"#utility.yul\":11825:11835   */\n      dup4\n        /* \"#utility.yul\":11821:11839   */\n      mul\n        /* \"#utility.yul\":11860:11957   */\n      tag_281\n        /* \"#utility.yul\":11890:11956   */\n      0xffffffffffffffffffffffffffffffffffffffffffffffffffffffffffffffff\n        /* \"#utility.yul\":11879:11888   */\n      dup3\n        /* \"#utility.yul\":11860:11957   */\n      tag_132\n      jump\t// in\n    tag_281:\n        /* \"#utility.yul\":11978:12017   */\n      tag_282\n        /* \"#utility.yul\":12008:12016   */\n      dup7\n        /* \"#utility.yul\":11997:12006   */\n      dup4\n        /* \"#utility.yul\":11978:12017   */\n      tag_132\n      jump\t// in\n    tag_282:\n        /* \"#utility.yul\":11966:12017   */\n      swap6\n      pop\n        /* \"#utility.yul\":12050:12054   */\n      dup1\n        /* \"#utility.yul\":12046:12055   */\n      not\n        /* \"#utility.yul\":12039:12044   */\n      dup5\n        /* \"#utility.yul\":12035:12056   */\n      and\n        /* \"#utility.yul\":12026:12056   */\n      swap4\n      pop\n        /* \"#utility.yul\":12099:12103   */\n      dup1\n        /* \"#utility.yul\":12089:12097   */\n      dup7\n        /* \"#utility.yul\":12085:12104   */\n      and\n        /* \"#utility.yul\":12078:12083   */\n      dup5\n        /* \"#utility.yul\":12075:12105   */\n      or\n        /* \"#utility.yul\":12065:12105   */\n      swap3\n      pop\n        /* \"#utility.yul\":11794:12111   */\n      pop\n      pop\n        /* \"#utility.yul\":11718:12111   */\n      swap4\n      swap3\n      pop\n      pop\n      pop\n      jump\t// out\n        /* \"#utility.yul\":12117:12177   */\n    tag_134:\n        /* \"#utility.yul\":12145:12148   */\n      0x00\n        /* \"#utility.yul\":12166:12171   */\n      dup2\n        /* \"#utility.yul\":12159:12171   */\n      swap1\n      pop\n        /* \"#utility.yul\":12117:12177   */\n      swap2\n      swap1\n      pop\n      jump\t// out\n        /* \"#utility.yul\":12183:12325   */\n    tag_135:\n        /* \"#utility.yul\":12233:12242   */\n      0x00\n        /* \"#utility.yul\":12266:12319   */\n      tag_285\n        /* \"#utility.yul\":12284:12318   */\n      tag_286\n        /* \"#utility.yul\":12293:12317   */\n      tag_287\n        /* \"#utility.yul\":12311:12316   */\n      dup5\n        /* \"#utility.yul\":12293:12317   */\n      tag_118\n      jump\t// in\n    tag_287:\n        /* \"#utility.yul\":12284:12318   */\n      tag_134\n      jump\t// in\n    tag_286:\n        /* \"#utility.yul\":12266:12319   */\n      tag_118\n      jump\t// in\n    tag_285:\n        /* \"#utility.yul\":12253:12319   */\n      swap1\n      pop\n        /* \"#utility.yul\":12183:12325   */\n      swap2\n      swap1\n      pop\n      jump\t// out\n        /* \"#utility.yul\":12331:12406   */\n    tag_136:\n        /* \"#utility.yul\":12374:12377   */\n      0x00\n        /* \"#utility.yul\":12395:12400   */\n      dup2\n        /* \"#utility.yul\":12388:12400   */\n      swap1\n      pop\n        /* \"#utility.yul\":12331:12406   */\n      swap2\n      swap1\n      pop\n      jump\t// out\n        /* \"#utility.yul\":12412:12681   */\n    tag_137:\n        /* \"#utility.yul\":12522:12561   */\n      tag_290\n        /* \"#utility.yul\":12553:12560   */\n      dup4\n        /* \"#utility.yul\":12522:12561   */\n      tag_135\n      jump\t// in\n    tag_290:\n        /* \"#utility.yul\":12583:12674   */\n      tag_291\n        /* \"#utility.yul\":12632:12673   */\n      tag_292\n        /* \"#utility.yul\":12656:12672   */\n      dup3\n        /* \"#utility.yul\":12632:12673   */\n      tag_136\n      jump\t// in\n    tag_292:\n        /* \"#utility.yul\":12624:12630   */\n      dup5\n        /* \"#utility.yul\":12617:12621   */\n      dup5\n        /* \"#utility.yul\":12611:12622   */\n      sload\n        /* \"#utility.yul\":12583:12674   */\n      tag_133\n      jump\t// in\n    tag_291:\n        /* \"#utility.yul\":12577:12581   */\n      dup3\n        /* \"#utility.yul\":12570:12675   */\n      sstore\n        /* \"#utility.yul\":12488:12681   */\n      pop\n        /* \"#utility.yul\":12412:12681   */\n      pop\n      pop\n      pop\n      jump\t// out\n        /* \"#utility.yul\":12687:12760   */\n    tag_138:\n        /* \"#utility.yul\":12732:12735   */\n      0x00\n        /* \"#utility.yul\":12687:12760   */\n      swap1\n      jump\t// out\n        /* \"#utility.yul\":12766:12955   */\n    tag_139:\n        /* \"#utility.yul\":12843:12875   */\n      tag_295\n      tag_138\n      jump\t// in\n    tag_295:\n        /* \"#utility.yul\":12884:12949   */\n      tag_296\n        /* \"#utility.yul\":12942:12948   */\n      dup2\n        /* \"#utility.yul\":12934:12940   */\n      dup5\n        /* \"#utility.yul\":12928:12932   */\n      dup5\n        /* \"#utility.yul\":12884:12949   */\n      tag_137\n      jump\t// in\n    tag_296:\n        /* \"#utility.yul\":12819:12955   */\n      pop\n        /* \"#utility.yul\":12766:12955   */\n      pop\n      pop\n      jump\t// out\n        /* \"#utility.yul\":12961:13147   */\n    tag_140:\n        /* \"#utility.yul\":13021:13141   */\n    tag_298:\n        /* \"#utility.yul\":13038:13041   */\n      dup2\n        /* \"#utility.yul\":13031:13036   */\n      dup2\n        /* \"#utility.yul\":13028:13042   */\n      lt\n        /* \"#utility.yul\":13021:13141   */\n      iszero\n      tag_300\n      jumpi\n        /* \"#utility.yul\":13092:13131   */\n      tag_301\n        /* \"#utility.yul\":13129:13130   */\n      0x00\n        /* \"#utility.yul\":13122:13127   */\n      dup3\n        /* \"#utility.yul\":13092:13131   */\n      tag_139\n      jump\t// in\n    tag_301:\n        /* \"#utility.yul\":13065:13066   */\n      0x01\n        /* \"#utility.yul\":13058:13063   */\n      dup2\n        /* \"#utility.yul\":13054:13067   */\n      add\n        /* \"#utility.yul\":13045:13067   */\n      swap1\n      pop\n        /* \"#utility.yul\":13021:13141   */\n      jump(tag_298)\n    tag_300:\n        /* \"#utility.yul\":12961:13147   */\n      pop\n      pop\n      jump\t// out\n        /* \"#utility.yul\":13153:13696   */\n    tag_141:\n        /* \"#utility.yul\":13254:13256   */\n      0x1f\n        /* \"#utility.yul\":13249:13252   */\n      dup3\n        /* \"#utility.yul\":13246:13257   */\n      gt\n        /* \"#utility.yul\":13243:13689   */\n      iszero\n      tag_303\n      jumpi\n        /* \"#utility.yul\":13288:13326   */\n      tag_304\n        /* \"#utility.yul\":13320:13325   */\n      dup2\n        /* \"#utility.yul\":13288:13326   */\n      tag_130\n      jump\t// in\n    tag_304:\n        /* \"#utility.yul\":13372:13401   */\n      tag_305\n        /* \"#utility.yul\":13390:13400   */\n      dup5\n        /* \"#utility.yul\":13372:13401   */\n      tag_131\n      jump\t// in\n    tag_305:\n        /* \"#utility.yul\":13362:13370   */\n      dup2\n        /* \"#utility.yul\":13358:13402   */\n      add\n        /* \"#utility.yul\":13555:13557   */\n      0x20\n        /* \"#utility.yul\":13543:13553   */\n      dup6\n        /* \"#utility.yul\":13540:13558   */\n      lt\n        /* \"#utility.yul\":13537:13586   */\n      iszero\n      tag_306\n      jumpi\n        /* \"#utility.yul\":13576:13584   */\n      dup2\n        /* \"#utility.yul\":13561:13584   */\n      swap1\n      pop\n        /* \"#utility.yul\":13537:13586   */\n    tag_306:\n        /* \"#utility.yul\":13599:13679   */\n      tag_307\n        /* \"#utility.yul\":13655:13677   */\n      tag_308\n        /* \"#utility.yul\":13673:13676   */\n      dup6\n        /* \"#utility.yul\":13655:13677   */\n      tag_131\n      jump\t// in\n    tag_308:\n        /* \"#utility.yul\":13645:13653   */\n      dup4\n        /* \"#utility.yul\":13641:13678   */\n      add\n        /* \"#utility.yul\":13628:13639   */\n      dup3\n        /* \"#utility.yul\":13599:13679   */\n      tag_140\n      jump\t// in\n    tag_307:\n        /* \"#utility.yul\":13258:13689   */\n      pop\n      pop\n        /* \"#utility.yul\":13243:13689   */\n    tag_303:\n        /* \"#utility.yul\":13153:13696   */\n      pop\n      pop\n      pop\n      jump\t// out\n        /* \"#utility.yul\":13702:13819   */\n    tag_142:\n        /* \"#utility.yul\":13756:13764   */\n      0x00\n        /* \"#utility.yul\":13806:13811   */\n      dup3\n        /* \"#utility.yul\":13800:13804   */\n      dup3\n        /* \"#utility.yul\":13796:13812   */\n      shr\n        /* \"#utility.yul\":13775:13812   */\n      swap1\n      pop\n        /* \"#utility.yul\":13702:13819   */\n      swap3\n      swap2\n      pop\n      pop\n      jump\t// out\n        /* \"#utility.yul\":13825:13994   */\n    tag_143:\n        /* \"#utility.yul\":13869:13875   */\n      0x00\n        /* \"#utility.yul\":13902:13953   */\n      tag_311\n        /* \"#utility.yul\":13950:13951   */\n      0x00\n        /* \"#utility.yul\":13946:13952   */\n      not\n        /* \"#utility.yul\":13938:13943   */\n      dup5\n        /* \"#utility.yul\":13935:13936   */\n      0x08\n        /* \"#utility.yul\":13931:13944   */\n      mul\n        /* \"#utility.yul\":13902:13953   */\n      tag_142\n      jump\t// in\n    tag_311:\n        /* \"#utility.yul\":13898:13954   */\n      not\n        /* \"#utility.yul\":13983:13987   */\n      dup1\n        /* \"#utility.yul\":13977:13981   */\n      dup4\n        /* \"#utility.yul\":13973:13988   */\n      and\n        /* \"#utility.yul\":13963:13988   */\n      swap2\n      pop\n        /* \"#utility.yul\":13876:13994   */\n      pop\n        /* \"#utility.yul\":13825:13994   */\n      swap3\n      swap2\n      pop\n      pop\n      jump\t// out\n        /* \"#utility.yul\":13999:14294   */\n    tag_144:\n        /* \"#utility.yul\":14075:14079   */\n      0x00\n        /* \"#utility.yul\":14221:14250   */\n      tag_313\n        /* \"#utility.yul\":14246:14249   */\n      dup4\n        /* \"#utility.yul\":14240:14244   */\n      dup4\n        /* \"#utility.yul\":14221:14250   */\n      tag_143\n      jump\t// in\n    tag_313:\n        /* \"#utility.yul\":14213:14250   */\n      swap2\n      pop\n        /* \"#utility.yul\":14283:14286   */\n      dup3\n        /* \"#utility.yul\":14280:14281   */\n      0x02\n        /* \"#utility.yul\":14276:14287   */\n      mul\n        /* \"#utility.yul\":14270:14274   */\n      dup3\n        /* \"#utility.yul\":14267:14288   */\n      or\n        /* \"#utility.yul\":14259:14288   */\n      swap1\n      pop\n        /* \"#utility.yul\":13999:14294   */\n      swap3\n      swap2\n      pop\n      pop\n      jump\t// out\n        /* \"#utility.yul\":14299:15694   */\n    tag_50:\n        /* \"#utility.yul\":14416:14453   */\n      tag_315\n        /* \"#utility.yul\":14449:14452   */\n      dup3\n        /* \"#utility.yul\":14416:14453   */\n      tag_122\n      jump\t// in\n    tag_315:\n        /* \"#utility.yul\":14518:14536   */\n      0xffffffffffffffff\n        /* \"#utility.yul\":14510:14516   */\n      dup2\n        /* \"#utility.yul\":14507:14537   */\n      gt\n        /* \"#utility.yul\":14504:14560   */\n      iszero\n      tag_316\n      jumpi\n        /* \"#utility.yul\":14540:14558   */\n      tag_317\n      tag_111\n      jump\t// in\n    tag_317:\n        /* \"#utility.yul\":14504:14560   */\n    tag_316:\n        /* \"#utility.yul\":14584:14622   */\n      tag_318\n        /* \"#utility.yul\":14616:14620   */\n      dup3\n        /* \"#utility.yul\":14610:14621   */\n      sload\n        /* \"#utility.yul\":14584:14622   */\n      tag_67\n      jump\t// in\n    tag_318:\n        /* \"#utility.yul\":14669:14736   */\n      tag_319\n        /* \"#utility.yul\":14729:14735   */\n      dup3\n        /* \"#utility.yul\":14721:14727   */\n      dup3\n        /* \"#utility.yul\":14715:14719   */\n      dup6\n        /* \"#utility.yul\":14669:14736   */\n      tag_141\n      jump\t// in\n    tag_319:\n        /* \"#utility.yul\":14763:14764   */\n      0x00\n        /* \"#utility.yul\":14787:14791   */\n      0x20\n        /* \"#utility.yul\":14774:14791   */\n      swap1\n      pop\n        /* \"#utility.yul\":14819:14821   */\n      0x1f\n        /* \"#utility.yul\":14811:14817   */\n      dup4\n        /* \"#utility.yul\":14808:14822   */\n      gt\n        /* \"#utility.yul\":14836:14837   */\n      0x01\n        /* \"#utility.yul\":14831:15449   */\n      dup2\n      eq\n      tag_321\n      jumpi\n        /* \"#utility.yul\":15493:15494   */\n      0x00\n        /* \"#utility.yul\":15510:15516   */\n      dup5\n        /* \"#utility.yul\":15507:15584   */\n      iszero\n      tag_322\n      jumpi\n        /* \"#utility.yul\":15559:15568   */\n      dup3\n        /* \"#utility.yul\":15554:15557   */\n      dup8\n        /* \"#utility.yul\":15550:15569   */\n      add\n        /* \"#utility.yul\":15544:15570   */\n      mload\n        /* \"#utility.yul\":15535:15570   */\n      swap1\n      pop\n        /* \"#utility.yul\":15507:15584   */\n    tag_322:\n        /* \"#utility.yul\":15610:15677   */\n      tag_323\n        /* \"#utility.yul\":15670:15676   */\n      dup6\n        /* \"#utility.yul\":15663:15668   */\n      dup3\n        /* \"#utility.yul\":15610:15677   */\n      tag_144\n      jump\t// in\n    tag_323:\n        /* \"#utility.yul\":15604:15608   */\n      dup7\n        /* \"#utility.yul\":15597:15678   */\n      sstore\n        /* \"#utility.yul\":15466:15688   */\n      pop\n        /* \"#utility.yul\":14801:15688   */\n      jump(tag_320)\n        /* \"#utility.yul\":14831:15449   */\n    tag_321:\n        /* \"#utility.yul\":14883:14887   */\n      0x1f\n        /* \"#utility.yul\":14879:14888   */\n      not\n        /* \"#utility.yul\":14871:14877   */\n      dup5\n        /* \"#utility.yul\":14867:14889   */\n      and\n        /* \"#utility.yul\":14917:14954   */\n      tag_324\n        /* \"#utility.yul\":14949:14953   */\n      dup7\n        /* \"#utility.yul\":14917:14954   */\n      tag_130\n      jump\t// in\n    tag_324:\n        /* \"#utility.yul\":14976:14977   */\n      0x00\n        /* \"#utility.yul\":14990:15198   */\n    tag_325:\n        /* \"#utility.yul\":15004:15011   */\n      dup3\n        /* \"#utility.yul\":15001:15002   */\n      dup2\n        /* \"#utility.yul\":14998:15012   */\n      lt\n        /* \"#utility.yul\":14990:15198   */\n      iszero\n      tag_327\n      jumpi\n        /* \"#utility.yul\":15083:15092   */\n      dup5\n        /* \"#utility.yul\":15078:15081   */\n      dup10\n        /* \"#utility.yul\":15074:15093   */\n      add\n        /* \"#utility.yul\":15068:15094   */\n      mload\n        /* \"#utility.yul\":15060:15066   */\n      dup3\n        /* \"#utility.yul\":15053:15095   */\n      sstore\n        /* \"#utility.yul\":15134:15135   */\n      0x01\n        /* \"#utility.yul\":15126:15132   */\n      dup3\n        /* \"#utility.yul\":15122:15136   */\n      add\n        /* \"#utility.yul\":15112:15136   */\n      swap2\n      pop\n        /* \"#utility.yul\":15181:15183   */\n      0x20\n        /* \"#utility.yul\":15170:15179   */\n      dup6\n        /* \"#utility.yul\":15166:15184   */\n      add\n        /* \"#utility.yul\":15153:15184   */\n      swap5\n      pop\n        /* \"#utility.yul\":15027:15031   */\n      0x20\n        /* \"#utility.yul\":15024:15025   */\n      dup2\n        /* \"#utility.yul\":15020:15032   */\n      add\n        /* \"#utility.yul\":15015:15032   */\n      swap1\n      pop\n        /* \"#utility.yul\":14990:15198   */\n      jump(tag_325)\n    tag_327:\n        /* \"#utility.yul\":15226:15232   */\n      dup7\n        /* \"#utility.yul\":15217:15224   */\n      dup4\n        /* \"#utility.yul\":15214:15233   */\n      lt\n        /* \"#utility.yul\":15211:15390   */\n      iszero\n      tag_328\n      jumpi\n        /* \"#utility.yul\":15284:15293   */\n      dup5\n        /* \"#utility.yul\":15279:15282   */\n      dup10\n        /* \"#utility.yul\":15275:15294   */\n      add\n        /* \"#utility.yul\":15269:15295   */\n      mload\n        /* \"#utility.yul\":15327:15375   */\n      tag_329\n        /* \"#utility.yul\":15369:15373   */\n      0x1f\n        /* \"#utility.yul\":15361:15367   */\n      dup10\n        /* \"#utility.yul\":15357:15374   */\n      and\n        /* \"#utility.yul\":15346:15355   */\n      dup3\n        /* \"#utility.yul\":15327:15375   */\n      tag_143\n      jump\t// in\n    tag_329:\n        /* \"#utility.yul\":15319:15325   */\n      dup4\n        /* \"#utility.yul\":15312:15376   */\n      sstore\n        /* \"#utility.yul\":15234:15390   */\n      pop\n        /* \"#utility.yul\":15211:15390   */\n    tag_328:\n        /* \"#utility.yul\":15436:15437   */\n      0x01\n        /* \"#utility.yul\":15432:15433   */\n      0x02\n        /* \"#utility.yul\":15424:15430   */\n      dup9\n        /* \"#utility.yul\":15420:15434   */\n      mul\n        /* \"#utility.yul\":15416:15438   */\n      add\n        /* \"#utility.yul\":15410:15414   */\n      dup9\n        /* \"#utility.yul\":15403:15439   */\n      sstore\n        /* \"#utility.yul\":14838:15449   */\n      pop\n      pop\n      pop\n        /* \"#utility.yul\":14801:15688   */\n    tag_320:\n      pop\n        /* \"#utility.yul\":14391:15694   */\n      pop\n      pop\n      pop\n        /* \"#utility.yul\":14299:15694   */\n      pop\n      pop\n      jump\t// out\n        /* \"#utility.yul\":15700:15862   */\n    tag_145:\n        /* \"#utility.yul\":15840:15854   */\n      0x556e617574686f72697a65640000000000000000000000000000000000000000\n        /* \"#utility.yul\":15836:15837   */\n      0x00\n        /* \"#utility.yul\":15828:15834   */\n      dup3\n        /* \"#utility.yul\":15824:15838   */\n      add\n        /* \"#utility.yul\":15817:15855   */\n      mstore\n        /* \"#utility.yul\":15700:15862   */\n      pop\n      jump\t// out\n        /* \"#utility.yul\":15868:16234   */\n    tag_146:\n        /* \"#utility.yul\":16010:16013   */\n      0x00\n        /* \"#utility.yul\":16031:16098   */\n      tag_332\n        /* \"#utility.yul\":16095:16097   */\n      0x0c\n        /* \"#utility.yul\":16090:16093   */\n      dup4\n        /* \"#utility.yul\":16031:16098   */\n      tag_123\n      jump\t// in\n    tag_332:\n        /* \"#utility.yul\":16024:16098   */\n      swap2\n      pop\n        /* \"#utility.yul\":16107:16200   */\n      tag_333\n        /* \"#utility.yul\":16196:16199   */\n      dup3\n        /* \"#utility.yul\":16107:16200   */\n      tag_145\n      jump\t// in\n    tag_333:\n        /* \"#utility.yul\":16225:16227   */\n      0x20\n        /* \"#utility.yul\":16220:16223   */\n      dup3\n        /* \"#utility.yul\":16216:16228   */\n      add\n        /* \"#utility.yul\":16209:16228   */\n      swap1\n      pop\n        /* \"#utility.yul\":15868:16234   */\n      swap2\n      swap1\n      pop\n      jump\t// out\n        /* \"#utility.yul\":16240:16659   */\n    tag_55:\n        /* \"#utility.yul\":16406:16410   */\n      0x00\n        /* \"#utility.yul\":16444:16446   */\n      0x20\n        /* \"#utility.yul\":16433:16442   */\n      dup3\n        /* \"#utility.yul\":16429:16447   */\n      add\n        /* \"#utility.yul\":16421:16447   */\n      swap1\n      pop\n        /* \"#utility.yul\":16493:16502   */\n      dup2\n        /* \"#utility.yul\":16487:16491   */\n      dup2\n        /* \"#utility.yul\":16483:16503   */\n      sub\n        /* \"#utility.yul\":16479:16480   */\n      0x00\n        /* \"#utility.yul\":16468:16477   */\n      dup4\n        /* \"#utility.yul\":16464:16481   */\n      add\n        /* \"#utility.yul\":16457:16504   */\n      mstore\n        /* \"#utility.yul\":16521:16652   */\n      tag_335\n        /* \"#utility.yul\":16647:16651   */\n      dup2\n        /* \"#utility.yul\":16521:16652   */\n      tag_146\n      jump\t// in\n    tag_335:\n        /* \"#utility.yul\":16513:16652   */\n      swap1\n      pop\n        /* \"#utility.yul\":16240:16659   */\n      swap2\n      swap1\n      pop\n      jump\t// out\n        /* \"#utility.yul\":16665:16893   */\n    tag_147:\n        /* \"#utility.yul\":16805:16839   */\n      0x546f6b656e20616d6f756e742065786365656473206f7267616e697a6174696f\n        /* \"#utility.yul\":16801:16802   */\n      0x00\n        /* \"#utility.yul\":16793:16799   */\n      dup3\n        /* \"#utility.yul\":16789:16803   */\n      add\n        /* \"#utility.yul\":16782:16840   */\n      mstore\n        /* \"#utility.yul\":16874:16885   */\n      0x6e2062616c616e63650000000000000000000000000000000000000000000000\n        /* \"#utility.yul\":16869:16871   */\n      0x20\n        /* \"#utility.yul\":16861:16867   */\n      dup3\n        /* \"#utility.yul\":16857:16872   */\n      add\n        /* \"#utility.yul\":16850:16886   */\n      mstore\n        /* \"#utility.yul\":16665:16893   */\n      pop\n      jump\t// out\n        /* \"#utility.yul\":16899:17265   */\n    tag_148:\n        /* \"#utility.yul\":17041:17044   */\n      0x00\n        /* \"#utility.yul\":17062:17129   */\n      tag_338\n        /* \"#utility.yul\":17126:17128   */\n      0x29\n        /* \"#utility.yul\":17121:17124   */\n      dup4\n        /* \"#utility.yul\":17062:17129   */\n      tag_123\n      jump\t// in\n    tag_338:\n        /* \"#utility.yul\":17055:17129   */\n      swap2\n      pop\n        /* \"#utility.yul\":17138:17231   */\n      tag_339\n        /* \"#utility.yul\":17227:17230   */\n      dup3\n        /* \"#utility.yul\":17138:17231   */\n      tag_147\n      jump\t// in\n    tag_339:\n        /* \"#utility.yul\":17256:17258   */\n      0x40\n        /* \"#utility.yul\":17251:17254   */\n      dup3\n        /* \"#utility.yul\":17247:17259   */\n      add\n        /* \"#utility.yul\":17240:17259   */\n      swap1\n      pop\n        /* \"#utility.yul\":16899:17265   */\n      swap2\n      swap1\n      pop\n      jump\t// out\n        /* \"#utility.yul\":17271:17690   */\n    tag_58:\n        /* \"#utility.yul\":17437:17441   */\n      0x00\n        /* \"#utility.yul\":17475:17477   */\n      0x20\n        /* \"#utility.yul\":17464:17473   */\n      dup3\n        /* \"#utility.yul\":17460:17478   */\n      add\n        /* \"#utility.yul\":17452:17478   */\n      swap1\n      pop\n        /* \"#utility.yul\":17524:17533   */\n      dup2\n        /* \"#utility.yul\":17518:17522   */\n      dup2\n        /* \"#utility.yul\":17514:17534   */\n      sub\n        /* \"#utility.yul\":17510:17511   */\n      0x00\n        /* \"#utility.yul\":17499:17508   */\n      dup4\n        /* \"#utility.yul\":17495:17512   */\n      add\n        /* \"#utility.yul\":17488:17535   */\n      mstore\n        /* \"#utility.yul\":17552:17683   */\n      tag_341\n        /* \"#utility.yul\":17678:17682   */\n      dup2\n        /* \"#utility.yul\":17552:17683   */\n      tag_148\n      jump\t// in\n    tag_341:\n        /* \"#utility.yul\":17544:17683   */\n      swap1\n      pop\n        /* \"#utility.yul\":17271:17690   */\n      swap2\n      swap1\n      pop\n      jump\t// out\n        /* \"#utility.yul\":17696:17876   */\n    tag_149:\n        /* \"#utility.yul\":17744:17821   */\n      0x4e487b7100000000000000000000000000000000000000000000000000000000\n        /* \"#utility.yul\":17741:17742   */\n      0x00\n        /* \"#utility.yul\":17734:17822   */\n      mstore\n        /* \"#utility.yul\":17841:17845   */\n      0x11\n        /* \"#utility.yul\":17838:17839   */\n      0x04\n        /* \"#utility.yul\":17831:17846   */\n      mstore\n        /* \"#utility.yul\":17865:17869   */\n      0x24\n        /* \"#utility.yul\":17862:17863   */\n      0x00\n        /* \"#utility.yul\":17855:17870   */\n      revert\n        /* \"#utility.yul\":17882:18076   */\n    tag_61:\n        /* \"#utility.yul\":17922:17926   */\n      0x00\n        /* \"#utility.yul\":17942:17962   */\n      tag_344\n        /* \"#utility.yul\":17960:17961   */\n      dup3\n        /* \"#utility.yul\":17942:17962   */\n      tag_118\n      jump\t// in\n    tag_344:\n        /* \"#utility.yul\":17937:17962   */\n      swap2\n      pop\n        /* \"#utility.yul\":17976:17996   */\n      tag_345\n        /* \"#utility.yul\":17994:17995   */\n      dup4\n        /* \"#utility.yul\":17976:17996   */\n      tag_118\n      jump\t// in\n    tag_345:\n        /* \"#utility.yul\":17971:17996   */\n      swap3\n      pop\n        /* \"#utility.yul\":18020:18021   */\n      dup3\n        /* \"#utility.yul\":18017:18018   */\n      dup3\n        /* \"#utility.yul\":18013:18022   */\n      sub\n        /* \"#utility.yul\":18005:18022   */\n      swap1\n      pop\n        /* \"#utility.yul\":18044:18045   */\n      dup2\n        /* \"#utility.yul\":18038:18042   */\n      dup2\n        /* \"#utility.yul\":18035:18046   */\n      gt\n        /* \"#utility.yul\":18032:18069   */\n      iszero\n      tag_346\n      jumpi\n        /* \"#utility.yul\":18049:18067   */\n      tag_347\n      tag_149\n      jump\t// in\n    tag_347:\n        /* \"#utility.yul\":18032:18069   */\n    tag_346:\n        /* \"#utility.yul\":17882:18076   */\n      swap3\n      swap2\n      pop\n      pop\n      jump\t// out\n        /* \"#utility.yul\":18082:18273   */\n    tag_63:\n        /* \"#utility.yul\":18122:18125   */\n      0x00\n        /* \"#utility.yul\":18141:18161   */\n      tag_349\n        /* \"#utility.yul\":18159:18160   */\n      dup3\n        /* \"#utility.yul\":18141:18161   */\n      tag_118\n      jump\t// in\n    tag_349:\n        /* \"#utility.yul\":18136:18161   */\n      swap2\n      pop\n        /* \"#utility.yul\":18175:18195   */\n      tag_350\n        /* \"#utility.yul\":18193:18194   */\n      dup4\n        /* \"#utility.yul\":18175:18195   */\n      tag_118\n      jump\t// in\n    tag_350:\n        /* \"#utility.yul\":18170:18195   */\n      swap3\n      pop\n        /* \"#utility.yul\":18218:18219   */\n      dup3\n        /* \"#utility.yul\":18215:18216   */\n      dup3\n        /* \"#utility.yul\":18211:18220   */\n      add\n        /* \"#utility.yul\":18204:18220   */\n      swap1\n      pop\n        /* \"#utility.yul\":18239:18242   */\n      dup1\n        /* \"#utility.yul\":18236:18237   */\n      dup3\n        /* \"#utility.yul\":18233:18243   */\n      gt\n        /* \"#utility.yul\":18230:18266   */\n      iszero\n      tag_351\n      jumpi\n        /* \"#utility.yul\":18246:18264   */\n      tag_352\n      tag_149\n      jump\t// in\n    tag_352:\n        /* \"#utility.yul\":18230:18266   */\n    tag_351:\n        /* \"#utility.yul\":18082:18273   */\n      swap3\n      swap2\n      pop\n      pop\n      jump\t// out\n        /* \"#utility.yul\":18279:18611   */\n    tag_65:\n        /* \"#utility.yul\":18400:18404   */\n      0x00\n        /* \"#utility.yul\":18438:18440   */\n      0x40\n        /* \"#utility.yul\":18427:18436   */\n      dup3\n        /* \"#utility.yul\":18423:18441   */\n      add\n        /* \"#utility.yul\":18415:18441   */\n      swap1\n      pop\n        /* \"#utility.yul\":18451:18522   */\n      tag_354\n        /* \"#utility.yul\":18519:18520   */\n      0x00\n        /* \"#utility.yul\":18508:18517   */\n      dup4\n        /* \"#utility.yul\":18504:18521   */\n      add\n        /* \"#utility.yul\":18495:18501   */\n      dup6\n        /* \"#utility.yul\":18451:18522   */\n      tag_126\n      jump\t// in\n    tag_354:\n        /* \"#utility.yul\":18532:18604   */\n      tag_355\n        /* \"#utility.yul\":18600:18602   */\n      0x20\n        /* \"#utility.yul\":18589:18598   */\n      dup4\n        /* \"#utility.yul\":18585:18603   */\n      add\n        /* \"#utility.yul\":18576:18582   */\n      dup5\n        /* \"#utility.yul\":18532:18604   */\n      tag_126\n      jump\t// in\n    tag_355:\n        /* \"#utility.yul\":18279:18611   */\n      swap4\n      swap3\n      pop\n      pop\n      pop\n      jump\t// out\n        /* \"#utility.yul\":18617:18789   */\n    tag_150:\n        /* \"#utility.yul\":18757:18781   */\n      0x596f75277265206e6f742077686974656c697374656400000000000000000000\n        /* \"#utility.yul\":18753:18754   */\n      0x00\n        /* \"#utility.yul\":18745:18751   */\n      dup3\n        /* \"#utility.yul\":18741:18755   */\n      add\n        /* \"#utility.yul\":18734:18782   */\n      mstore\n        /* \"#utility.yul\":18617:18789   */\n      pop\n      jump\t// out\n        /* \"#utility.yul\":18795:19161   */\n    tag_151:\n        /* \"#utility.yul\":18937:18940   */\n      0x00\n        /* \"#utility.yul\":18958:19025   */\n      tag_358\n        /* \"#utility.yul\":19022:19024   */\n      0x16\n        /* \"#utility.yul\":19017:19020   */\n      dup4\n        /* \"#utility.yul\":18958:19025   */\n      tag_123\n      jump\t// in\n    tag_358:\n        /* \"#utility.yul\":18951:19025   */\n      swap2\n      pop\n        /* \"#utility.yul\":19034:19127   */\n      tag_359\n        /* \"#utility.yul\":19123:19126   */\n      dup3\n        /* \"#utility.yul\":19034:19127   */\n      tag_150\n      jump\t// in\n    tag_359:\n        /* \"#utility.yul\":19152:19154   */\n      0x20\n        /* \"#utility.yul\":19147:19150   */\n      dup3\n        /* \"#utility.yul\":19143:19155   */\n      add\n        /* \"#utility.yul\":19136:19155   */\n      swap1\n      pop\n        /* \"#utility.yul\":18795:19161   */\n      swap2\n      swap1\n      pop\n      jump\t// out\n        /* \"#utility.yul\":19167:19586   */\n    tag_80:\n        /* \"#utility.yul\":19333:19337   */\n      0x00\n        /* \"#utility.yul\":19371:19373   */\n      0x20\n        /* \"#utility.yul\":19360:19369   */\n      dup3\n        /* \"#utility.yul\":19356:19374   */\n      add\n        /* \"#utility.yul\":19348:19374   */\n      swap1\n      pop\n        /* \"#utility.yul\":19420:19429   */\n      dup2\n        /* \"#utility.yul\":19414:19418   */\n      dup2\n        /* \"#utility.yul\":19410:19430   */\n      sub\n        /* \"#utility.yul\":19406:19407   */\n      0x00\n        /* \"#utility.yul\":19395:19404   */\n      dup4\n        /* \"#utility.yul\":19391:19408   */\n      add\n        /* \"#utility.yul\":19384:19431   */\n      mstore\n        /* \"#utility.yul\":19448:19579   */\n      tag_361\n        /* \"#utility.yul\":19574:19578   */\n      dup2\n        /* \"#utility.yul\":19448:19579   */\n      tag_151\n      jump\t// in\n    tag_361:\n        /* \"#utility.yul\":19440:19579   */\n      swap1\n      pop\n        /* \"#utility.yul\":19167:19586   */\n      swap2\n      swap1\n      pop\n      jump\t// out\n        /* \"#utility.yul\":19592:19756   */\n    tag_152:\n        /* \"#utility.yul\":19732:19748   */\n      0x4e6f7420617574686f72697a6564000000000000000000000000000000000000\n        /* \"#utility.yul\":19728:19729   */\n      0x00\n        /* \"#utility.yul\":19720:19726   */\n      dup3\n        /* \"#utility.yul\":19716:19730   */\n      add\n        /* \"#utility.yul\":19709:19749   */\n      mstore\n        /* \"#utility.yul\":19592:19756   */\n      pop\n      jump\t// out\n        /* \"#utility.yul\":19762:20128   */\n    tag_153:\n        /* \"#utility.yul\":19904:19907   */\n      0x00\n        /* \"#utility.yul\":19925:19992   */\n      tag_364\n        /* \"#utility.yul\":19989:19991   */\n      0x0e\n        /* \"#utility.yul\":19984:19987   */\n      dup4\n        /* \"#utility.yul\":19925:19992   */\n      tag_123\n      jump\t// in\n    tag_364:\n        /* \"#utility.yul\":19918:19992   */\n      swap2\n      pop\n        /* \"#utility.yul\":20001:20094   */\n      tag_365\n        /* \"#utility.yul\":20090:20093   */\n      dup3\n        /* \"#utility.yul\":20001:20094   */\n      tag_152\n      jump\t// in\n    tag_365:\n        /* \"#utility.yul\":20119:20121   */\n      0x20\n        /* \"#utility.yul\":20114:20117   */\n      dup3\n        /* \"#utility.yul\":20110:20122   */\n      add\n        /* \"#utility.yul\":20103:20122   */\n      swap1\n      pop\n        /* \"#utility.yul\":19762:20128   */\n      swap2\n      swap1\n      pop\n      jump\t// out\n        /* \"#utility.yul\":20134:20553   */\n    tag_84:\n        /* \"#utility.yul\":20300:20304   */\n      0x00\n        /* \"#utility.yul\":20338:20340   */\n      0x20\n        /* \"#utility.yul\":20327:20336   */\n      dup3\n        /* \"#utility.yul\":20323:20341   */\n      add\n        /* \"#utility.yul\":20315:20341   */\n      swap1\n      pop\n        /* \"#utility.yul\":20387:20396   */\n      dup2\n        /* \"#utility.yul\":20381:20385   */\n      dup2\n        /* \"#utility.yul\":20377:20397   */\n      sub\n        /* \"#utility.yul\":20373:20374   */\n      0x00\n        /* \"#utility.yul\":20362:20371   */\n      dup4\n        /* \"#utility.yul\":20358:20375   */\n      add\n        /* \"#utility.yul\":20351:20398   */\n      mstore\n        /* \"#utility.yul\":20415:20546   */\n      tag_367\n        /* \"#utility.yul\":20541:20545   */\n      dup2\n        /* \"#utility.yul\":20415:20546   */\n      tag_153\n      jump\t// in\n    tag_367:\n        /* \"#utility.yul\":20407:20546   */\n      swap1\n      pop\n        /* \"#utility.yul\":20134:20553   */\n      swap2\n      swap1\n      pop\n      jump\t// out\n        /* \"#utility.yul\":20559:20736   */\n    tag_154:\n        /* \"#utility.yul\":20699:20728   */\n      0x56657374696e6720706572696f64206e6f74206f766572207965740000000000\n        /* \"#utility.yul\":20695:20696   */\n      0x00\n        /* \"#utility.yul\":20687:20693   */\n      dup3\n        /* \"#utility.yul\":20683:20697   */\n      add\n        /* \"#utility.yul\":20676:20729   */\n      mstore\n        /* \"#utility.yul\":20559:20736   */\n      pop\n      jump\t// out\n        /* \"#utility.yul\":20742:21108   */\n    tag_155:\n        /* \"#utility.yul\":20884:20887   */\n      0x00\n        /* \"#utility.yul\":20905:20972   */\n      tag_370\n        /* \"#utility.yul\":20969:20971   */\n      0x1b\n        /* \"#utility.yul\":20964:20967   */\n      dup4\n        /* \"#utility.yul\":20905:20972   */\n      tag_123\n      jump\t// in\n    tag_370:\n        /* \"#utility.yul\":20898:20972   */\n      swap2\n      pop\n        /* \"#utility.yul\":20981:21074   */\n      tag_371\n        /* \"#utility.yul\":21070:21073   */\n      dup3\n        /* \"#utility.yul\":20981:21074   */\n      tag_154\n      jump\t// in\n    tag_371:\n        /* \"#utility.yul\":21099:21101   */\n      0x20\n        /* \"#utility.yul\":21094:21097   */\n      dup3\n        /* \"#utility.yul\":21090:21102   */\n      add\n        /* \"#utility.yul\":21083:21102   */\n      swap1\n      pop\n        /* \"#utility.yul\":20742:21108   */\n      swap2\n      swap1\n      pop\n      jump\t// out\n        /* \"#utility.yul\":21114:21533   */\n    tag_88:\n        /* \"#utility.yul\":21280:21284   */\n      0x00\n        /* \"#utility.yul\":21318:21320   */\n      0x20\n        /* \"#utility.yul\":21307:21316   */\n      dup3\n        /* \"#utility.yul\":21303:21321   */\n      add\n        /* \"#utility.yul\":21295:21321   */\n      swap1\n      pop\n        /* \"#utility.yul\":21367:21376   */\n      dup2\n        /* \"#utility.yul\":21361:21365   */\n      dup2\n        /* \"#utility.yul\":21357:21377   */\n      sub\n        /* \"#utility.yul\":21353:21354   */\n      0x00\n        /* \"#utility.yul\":21342:21351   */\n      dup4\n        /* \"#utility.yul\":21338:21355   */\n      add\n        /* \"#utility.yul\":21331:21378   */\n      mstore\n        /* \"#utility.yul\":21395:21526   */\n      tag_373\n        /* \"#utility.yul\":21521:21525   */\n      dup2\n        /* \"#utility.yul\":21395:21526   */\n      tag_155\n      jump\t// in\n    tag_373:\n        /* \"#utility.yul\":21387:21526   */\n      swap1\n      pop\n        /* \"#utility.yul\":21114:21533   */\n      swap2\n      swap1\n      pop\n      jump\t// out\n        /* \"#utility.yul\":21539:21708   */\n    tag_156:\n        /* \"#utility.yul\":21679:21700   */\n      0x4e6f20636c61696d61626c6520746f6b656e7300000000000000000000000000\n        /* \"#utility.yul\":21675:21676   */\n      0x00\n        /* \"#utility.yul\":21667:21673   */\n      dup3\n        /* \"#utility.yul\":21663:21677   */\n      add\n        /* \"#utility.yul\":21656:21701   */\n      mstore\n        /* \"#utility.yul\":21539:21708   */\n      pop\n      jump\t// out\n        /* \"#utility.yul\":21714:22080   */\n    tag_157:\n        /* \"#utility.yul\":21856:21859   */\n      0x00\n        /* \"#utility.yul\":21877:21944   */\n      tag_376\n        /* \"#utility.yul\":21941:21943   */\n      0x13\n        /* \"#utility.yul\":21936:21939   */\n      dup4\n        /* \"#utility.yul\":21877:21944   */\n      tag_123\n      jump\t// in\n    tag_376:\n        /* \"#utility.yul\":21870:21944   */\n      swap2\n      pop\n        /* \"#utility.yul\":21953:22046   */\n      tag_377\n        /* \"#utility.yul\":22042:22045   */\n      dup3\n        /* \"#utility.yul\":21953:22046   */\n      tag_156\n      jump\t// in\n    tag_377:\n        /* \"#utility.yul\":22071:22073   */\n      0x20\n        /* \"#utility.yul\":22066:22069   */\n      dup3\n        /* \"#utility.yul\":22062:22074   */\n      add\n        /* \"#utility.yul\":22055:22074   */\n      swap1\n      pop\n        /* \"#utility.yul\":21714:22080   */\n      swap2\n      swap1\n      pop\n      jump\t// out\n        /* \"#utility.yul\":22086:22505   */\n    tag_91:\n        /* \"#utility.yul\":22252:22256   */\n      0x00\n        /* \"#utility.yul\":22290:22292   */\n      0x20\n        /* \"#utility.yul\":22279:22288   */\n      dup3\n        /* \"#utility.yul\":22275:22293   */\n      add\n        /* \"#utility.yul\":22267:22293   */\n      swap1\n      pop\n        /* \"#utility.yul\":22339:22348   */\n      dup2\n        /* \"#utility.yul\":22333:22337   */\n      dup2\n        /* \"#utility.yul\":22329:22349   */\n      sub\n        /* \"#utility.yul\":22325:22326   */\n      0x00\n        /* \"#utility.yul\":22314:22323   */\n      dup4\n        /* \"#utility.yul\":22310:22327   */\n      add\n        /* \"#utility.yul\":22303:22350   */\n      mstore\n        /* \"#utility.yul\":22367:22498   */\n      tag_379\n        /* \"#utility.yul\":22493:22497   */\n      dup2\n        /* \"#utility.yul\":22367:22498   */\n      tag_157\n      jump\t// in\n    tag_379:\n        /* \"#utility.yul\":22359:22498   */\n      swap1\n      pop\n        /* \"#utility.yul\":22086:22505   */\n      swap2\n      swap1\n      pop\n      jump\t// out\n\n    auxdata: 0xa264697066735822122031dbd097bd5669f4509cedc571134452276b2eaf15122d980a616de74aa3849064736f6c63430008120033\n}\n",
				"bytecode": {
					"linkReferences": {},
					"object": "608060405234801561001057600080fd5b506118c7806100206000396000f3fe608060405234801561001057600080fd5b506004361061007d5760003560e01c80634c0be4491161005b5780634c0be449146100ea5780635a1f740614610106578063a9e7c2e51461013a578063c07cfca9146101565761007d565b806306c933d81461008257806341566585146100b2578063436c91df146100ce575b600080fd5b61009c60048036038101906100979190610cf6565b61018b565b6040516100a99190610d3e565b60405180910390f35b6100cc60048036038101906100c79190610cf6565b6101ab565b005b6100e860048036038101906100e39190610ed5565b61030e565b005b61010460048036038101906100ff9190610f74565b61041b565b005b610120600480360381019061011b9190610cf6565b61076b565b604051610131959493929190611094565b60405180910390f35b610154600480360381019061014f91906110f5565b6108d1565b005b610170600480360381019061016b9190610cf6565b610ba0565b60405161018296959493929190611122565b60405180910390f35b60016020528060005260406000206000915054906101000a900460ff1681565b3373ffffffffffffffffffffffffffffffffffffffff16600260003373ffffffffffffffffffffffffffffffffffffffff1673ffffffffffffffffffffffffffffffffffffffff16815260200190815260200160002060000160009054906101000a900473ffffffffffffffffffffffffffffffffffffffff1673ffffffffffffffffffffffffffffffffffffffff161461027b576040517f08c379a0000000000000000000000000000000000000000000000000000000008152600401610272906111fc565b60405180910390fd5b60018060008373ffffffffffffffffffffffffffffffffffffffff1673ffffffffffffffffffffffffffffffffffffffff16815260200190815260200160002060006101000a81548160ff0219169083151502179055507f2279719af4080e08a5a2b25c8234a83b76079141524127d1096409ac07fa5d0f428260405161030392919061121c565b60405180910390a150565b6040518060a001604052808573ffffffffffffffffffffffffffffffffffffffff1681526020018481526020018381526020018281526020016000815250600260008673ffffffffffffffffffffffffffffffffffffffff1673ffffffffffffffffffffffffffffffffffffffff16815260200190815260200160002060008201518160000160006101000a81548173ffffffffffffffffffffffffffffffffffffffff021916908373ffffffffffffffffffffffffffffffffffffffff16021790555060208201518160010190816103e79190611451565b5060408201518160020190816103fd9190611451565b50606082015181600301556080820151816004015590505050505050565b3373ffffffffffffffffffffffffffffffffffffffff16600260003373ffffffffffffffffffffffffffffffffffffffff1673ffffffffffffffffffffffffffffffffffffffff16815260200190815260200160002060000160009054906101000a900473ffffffffffffffffffffffffffffffffffffffff1673ffffffffffffffffffffffffffffffffffffffff16146104eb576040517f08c379a00000000000000000000000000000000000000000000000000000000081526004016104e29061156f565b60405180910390fd5b80600260003373ffffffffffffffffffffffffffffffffffffffff1673ffffffffffffffffffffffffffffffffffffffff168152602001908152602001600020600301541015610570576040517f08c379a000000000000000000000000000000000000000000000000000000000815260040161056790611601565b60405180910390fd5b6040518060c001604052808573ffffffffffffffffffffffffffffffffffffffff16815260200184815260200183815260200142815260200182815260200160008152506000808673ffffffffffffffffffffffffffffffffffffffff1673ffffffffffffffffffffffffffffffffffffffff16815260200190815260200160002060008201518160000160006101000a81548173ffffffffffffffffffffffffffffffffffffffff021916908373ffffffffffffffffffffffffffffffffffffffff160217905550602082015181600101908161064e9190611451565b5060408201518160020155606082015181600301556080820151816004015560a0820151816005015590505080600260003373ffffffffffffffffffffffffffffffffffffffff1673ffffffffffffffffffffffffffffffffffffffff16815260200190815260200160002060030160008282546106cc9190611650565b9250508190555080600260003373ffffffffffffffffffffffffffffffffffffffff1673ffffffffffffffffffffffffffffffffffffffff16815260200190815260200160002060040160008282546107259190611684565b925050819055507f6b14c643c7a21d055dece27d5b28b6c529fdf91f89c8a4d6feabd94cc9926768428360405161075d9291906116b8565b60405180910390a150505050565b60026020528060005260406000206000915090508060000160009054906101000a900473ffffffffffffffffffffffffffffffffffffffff16908060010180546107b490611274565b80601f01602080910402602001604051908101604052809291908181526020018280546107e090611274565b801561082d5780601f106108025761010080835404028352916020019161082d565b820191906000526020600020905b81548152906001019060200180831161081057829003601f168201915b50505050509080600201805461084290611274565b80601f016020809104026020016040519081016040528092919081815260200182805461086e90611274565b80156108bb5780601f10610890576101008083540402835291602001916108bb565b820191906000526020600020905b81548152906001019060200180831161089e57829003601f168201915b5050505050908060030154908060040154905085565b600160003373ffffffffffffffffffffffffffffffffffffffff1673ffffffffffffffffffffffffffffffffffffffff16815260200190815260200160002060009054906101000a900460ff1661095d576040517f08c379a00000000000000000000000000000000000000000000000000000000081526004016109549061172d565b60405180910390fd5b60008060003373ffffffffffffffffffffffffffffffffffffffff1673ffffffffffffffffffffffffffffffffffffffff16815260200190815260200160002090503373ffffffffffffffffffffffffffffffffffffffff16600260003373ffffffffffffffffffffffffffffffffffffffff1673ffffffffffffffffffffffffffffffffffffffff16815260200190815260200160002060000160009054906101000a900473ffffffffffffffffffffffffffffffffffffffff1673ffffffffffffffffffffffffffffffffffffffff161480610a8a57503373ffffffffffffffffffffffffffffffffffffffff168160000160009054906101000a900473ffffffffffffffffffffffffffffffffffffffff1673ffffffffffffffffffffffffffffffffffffffff16145b610ac9576040517f08c379a0000000000000000000000000000000000000000000000000000000008152600401610ac090611799565b60405180910390fd5b80600201548160030154610add9190611684565b421015610b1f576040517f08c379a0000000000000000000000000000000000000000000000000000000008152600401610b1690611805565b60405180910390fd5b6000816004015411610b66576040517f08c379a0000000000000000000000000000000000000000000000000000000008152600401610b5d90611871565b60405180910390fd5b81816004016000828254610b7a9190611650565b9250508190555081816005016000828254610b959190611684565b925050819055505050565b60006020528060005260406000206000915090508060000160009054906101000a900473ffffffffffffffffffffffffffffffffffffffff1690806001018054610be990611274565b80601f0160208091040260200160405190810160405280929190818152602001828054610c1590611274565b8015610c625780601f10610c3757610100808354040283529160200191610c62565b820191906000526020600020905b815481529060010190602001808311610c4557829003601f168201915b5050505050908060020154908060030154908060040154908060050154905086565b6000604051905090565b600080fd5b600080fd5b600073ffffffffffffffffffffffffffffffffffffffff82169050919050565b6000610cc382610c98565b9050919050565b610cd381610cb8565b8114610cde57600080fd5b50565b600081359050610cf081610cca565b92915050565b600060208284031215610d0c57610d0b610c8e565b5b6000610d1a84828501610ce1565b91505092915050565b60008115159050919050565b610d3881610d23565b82525050565b6000602082019050610d536000830184610d2f565b92915050565b600080fd5b600080fd5b6000601f19601f8301169050919050565b7f4e487b7100000000000000000000000000000000000000000000000000000000600052604160045260246000fd5b610dac82610d63565b810181811067ffffffffffffffff82111715610dcb57610dca610d74565b5b80604052505050565b6000610dde610c84565b9050610dea8282610da3565b919050565b600067ffffffffffffffff821115610e0a57610e09610d74565b5b610e1382610d63565b9050602081019050919050565b82818337600083830152505050565b6000610e42610e3d84610def565b610dd4565b905082815260208101848484011115610e5e57610e5d610d5e565b5b610e69848285610e20565b509392505050565b600082601f830112610e8657610e85610d59565b5b8135610e96848260208601610e2f565b91505092915050565b6000819050919050565b610eb281610e9f565b8114610ebd57600080fd5b50565b600081359050610ecf81610ea9565b92915050565b60008060008060808587031215610eef57610eee610c8e565b5b6000610efd87828801610ce1565b945050602085013567ffffffffffffffff811115610f1e57610f1d610c93565b5b610f2a87828801610e71565b935050604085013567ffffffffffffffff811115610f4b57610f4a610c93565b5b610f5787828801610e71565b9250506060610f6887828801610ec0565b91505092959194509250565b60008060008060808587031215610f8e57610f8d610c8e565b5b6000610f9c87828801610ce1565b945050602085013567ffffffffffffffff811115610fbd57610fbc610c93565b5b610fc987828801610e71565b9350506040610fda87828801610ec0565b9250506060610feb87828801610ec0565b91505092959194509250565b61100081610cb8565b82525050565b600081519050919050565b600082825260208201905092915050565b60005b83811015611040578082015181840152602081019050611025565b60008484015250505050565b600061105782611006565b6110618185611011565b9350611071818560208601611022565b61107a81610d63565b840191505092915050565b61108e81610e9f565b82525050565b600060a0820190506110a96000830188610ff7565b81810360208301526110bb818761104c565b905081810360408301526110cf818661104c565b90506110de6060830185611085565b6110eb6080830184611085565b9695505050505050565b60006020828403121561110b5761110a610c8e565b5b600061111984828501610ec0565b91505092915050565b600060c0820190506111376000830189610ff7565b8181036020830152611149818861104c565b90506111586040830187611085565b6111656060830186611085565b6111726080830185611085565b61117f60a0830184611085565b979650505050505050565b7f4f6e6c79206f7267616e697a6174696f6e206f776e65722063616e207768697460008201527f656c697374000000000000000000000000000000000000000000000000000000602082015250565b60006111e6602583611011565b91506111f18261118a565b604082019050919050565b60006020820190508181036000830152611215816111d9565b9050919050565b60006040820190506112316000830185611085565b61123e6020830184610ff7565b9392505050565b7f4e487b7100000000000000000000000000000000000000000000000000000000600052602260045260246000fd5b6000600282049050600182168061128c57607f821691505b60208210810361129f5761129e611245565b5b50919050565b60008190508160005260206000209050919050565b60006020601f8301049050919050565b600082821b905092915050565b6000600883026113077fffffffffffffffffffffffffffffffffffffffffffffffffffffffffffffffff826112ca565b61131186836112ca565b95508019841693508086168417925050509392505050565b6000819050919050565b600061134e61134961134484610e9f565b611329565b610e9f565b9050919050565b6000819050919050565b61136883611333565b61137c61137482611355565b8484546112d7565b825550505050565b600090565b611391611384565b61139c81848461135f565b505050565b5b818110156113c0576113b5600082611389565b6001810190506113a2565b5050565b601f821115611405576113d6816112a5565b6113df846112ba565b810160208510156113ee578190505b6114026113fa856112ba565b8301826113a1565b50505b505050565b600082821c905092915050565b60006114286000198460080261140a565b1980831691505092915050565b60006114418383611417565b9150826002028217905092915050565b61145a82611006565b67ffffffffffffffff81111561147357611472610d74565b5b61147d8254611274565b6114888282856113c4565b600060209050601f8311600181146114bb57600084156114a9578287015190505b6114b38582611435565b86555061151b565b601f1984166114c9866112a5565b60005b828110156114f1578489015182556001820191506020850194506020810190506114cc565b8683101561150e578489015161150a601f891682611417565b8355505b6001600288020188555050505b505050505050565b7f556e617574686f72697a65640000000000000000000000000000000000000000600082015250565b6000611559600c83611011565b915061156482611523565b602082019050919050565b600060208201905081810360008301526115888161154c565b9050919050565b7f546f6b656e20616d6f756e742065786365656473206f7267616e697a6174696f60008201527f6e2062616c616e63650000000000000000000000000000000000000000000000602082015250565b60006115eb602983611011565b91506115f68261158f565b604082019050919050565b6000602082019050818103600083015261161a816115de565b9050919050565b7f4e487b7100000000000000000000000000000000000000000000000000000000600052601160045260246000fd5b600061165b82610e9f565b915061166683610e9f565b925082820390508181111561167e5761167d611621565b5b92915050565b600061168f82610e9f565b915061169a83610e9f565b92508282019050808211156116b2576116b1611621565b5b92915050565b60006040820190506116cd6000830185611085565b6116da6020830184611085565b9392505050565b7f596f75277265206e6f742077686974656c697374656400000000000000000000600082015250565b6000611717601683611011565b9150611722826116e1565b602082019050919050565b600060208201905081810360008301526117468161170a565b9050919050565b7f4e6f7420617574686f72697a6564000000000000000000000000000000000000600082015250565b6000611783600e83611011565b915061178e8261174d565b602082019050919050565b600060208201905081810360008301526117b281611776565b9050919050565b7f56657374696e6720706572696f64206e6f74206f766572207965740000000000600082015250565b60006117ef601b83611011565b91506117fa826117b9565b602082019050919050565b6000602082019050818103600083015261181e816117e2565b9050919050565b7f4e6f20636c61696d61626c6520746f6b656e7300000000000000000000000000600082015250565b600061185b601383611011565b915061186682611825565b602082019050919050565b6000602082019050818103600083015261188a8161184e565b905091905056fea264697066735822122031dbd097bd5669f4509cedc571134452276b2eaf15122d980a616de74aa3849064736f6c63430008120033",
					"opcodes": "PUSH1 0x80 PUSH1 0x40 MSTORE CALLVALUE DUP1 ISZERO PUSH2 0x10 JUMPI PUSH1 0x0 DUP1 REVERT JUMPDEST POP PUSH2 0x18C7 DUP1 PUSH2 0x20 PUSH1 0x0 CODECOPY PUSH1 0x0 RETURN INVALID PUSH1 0x80 PUSH1 0x40 MSTORE CALLVALUE DUP1 ISZERO PUSH2 0x10 JUMPI PUSH1 0x0 DUP1 REVERT JUMPDEST POP PUSH1 0x4 CALLDATASIZE LT PUSH2 0x7D JUMPI PUSH1 0x0 CALLDATALOAD PUSH1 0xE0 SHR DUP1 PUSH4 0x4C0BE449 GT PUSH2 0x5B JUMPI DUP1 PUSH4 0x4C0BE449 EQ PUSH2 0xEA JUMPI DUP1 PUSH4 0x5A1F7406 EQ PUSH2 0x106 JUMPI DUP1 PUSH4 0xA9E7C2E5 EQ PUSH2 0x13A JUMPI DUP1 PUSH4 0xC07CFCA9 EQ PUSH2 0x156 JUMPI PUSH2 0x7D JUMP JUMPDEST DUP1 PUSH4 0x6C933D8 EQ PUSH2 0x82 JUMPI DUP1 PUSH4 0x41566585 EQ PUSH2 0xB2 JUMPI DUP1 PUSH4 0x436C91DF EQ PUSH2 0xCE JUMPI JUMPDEST PUSH1 0x0 DUP1 REVERT JUMPDEST PUSH2 0x9C PUSH1 0x4 DUP1 CALLDATASIZE SUB DUP2 ADD SWAP1 PUSH2 0x97 SWAP2 SWAP1 PUSH2 0xCF6 JUMP JUMPDEST PUSH2 0x18B JUMP JUMPDEST PUSH1 0x40 MLOAD PUSH2 0xA9 SWAP2 SWAP1 PUSH2 0xD3E JUMP JUMPDEST PUSH1 0x40 MLOAD DUP1 SWAP2 SUB SWAP1 RETURN JUMPDEST PUSH2 0xCC PUSH1 0x4 DUP1 CALLDATASIZE SUB DUP2 ADD SWAP1 PUSH2 0xC7 SWAP2 SWAP1 PUSH2 0xCF6 JUMP JUMPDEST PUSH2 0x1AB JUMP JUMPDEST STOP JUMPDEST PUSH2 0xE8 PUSH1 0x4 DUP1 CALLDATASIZE SUB DUP2 ADD SWAP1 PUSH2 0xE3 SWAP2 SWAP1 PUSH2 0xED5 JUMP JUMPDEST PUSH2 0x30E JUMP JUMPDEST STOP JUMPDEST PUSH2 0x104 PUSH1 0x4 DUP1 CALLDATASIZE SUB DUP2 ADD SWAP1 PUSH2 0xFF SWAP2 SWAP1 PUSH2 0xF74 JUMP JUMPDEST PUSH2 0x41B JUMP JUMPDEST STOP JUMPDEST PUSH2 0x120 PUSH1 0x4 DUP1 CALLDATASIZE SUB DUP2 ADD SWAP1 PUSH2 0x11B SWAP2 SWAP1 PUSH2 0xCF6 JUMP JUMPDEST PUSH2 0x76B JUMP JUMPDEST PUSH1 0x40 MLOAD PUSH2 0x131 SWAP6 SWAP5 SWAP4 SWAP3 SWAP2 SWAP1 PUSH2 0x1094 JUMP JUMPDEST PUSH1 0x40 MLOAD DUP1 SWAP2 SUB SWAP1 RETURN JUMPDEST PUSH2 0x154 PUSH1 0x4 DUP1 CALLDATASIZE SUB DUP2 ADD SWAP1 PUSH2 0x14F SWAP2 SWAP1 PUSH2 0x10F5 JUMP JUMPDEST PUSH2 0x8D1 JUMP JUMPDEST STOP JUMPDEST PUSH2 0x170 PUSH1 0x4 DUP1 CALLDATASIZE SUB DUP2 ADD SWAP1 PUSH2 0x16B SWAP2 SWAP1 PUSH2 0xCF6 JUMP JUMPDEST PUSH2 0xBA0 JUMP JUMPDEST PUSH1 0x40 MLOAD PUSH2 0x182 SWAP7 SWAP6 SWAP5 SWAP4 SWAP3 SWAP2 SWAP1 PUSH2 0x1122 JUMP JUMPDEST PUSH1 0x40 MLOAD DUP1 SWAP2 SUB SWAP1 RETURN JUMPDEST PUSH1 0x1 PUSH1 0x20 MSTORE DUP1 PUSH1 0x0 MSTORE PUSH1 0x40 PUSH1 0x0 KECCAK256 PUSH1 0x0 SWAP2 POP SLOAD SWAP1 PUSH2 0x100 EXP SWAP1 DIV PUSH1 0xFF AND DUP2 JUMP JUMPDEST CALLER PUSH20 0xFFFFFFFFFFFFFFFFFFFFFFFFFFFFFFFFFFFFFFFF AND PUSH1 0x2 PUSH1 0x0 CALLER PUSH20 0xFFFFFFFFFFFFFFFFFFFFFFFFFFFFFFFFFFFFFFFF AND PUSH20 0xFFFFFFFFFFFFFFFFFFFFFFFFFFFFFFFFFFFFFFFF AND DUP2 MSTORE PUSH1 0x20 ADD SWAP1 DUP2 MSTORE PUSH1 0x20 ADD PUSH1 0x0 KECCAK256 PUSH1 0x0 ADD PUSH1 0x0 SWAP1 SLOAD SWAP1 PUSH2 0x100 EXP SWAP1 DIV PUSH20 0xFFFFFFFFFFFFFFFFFFFFFFFFFFFFFFFFFFFFFFFF AND PUSH20 0xFFFFFFFFFFFFFFFFFFFFFFFFFFFFFFFFFFFFFFFF AND EQ PUSH2 0x27B JUMPI PUSH1 0x40 MLOAD PUSH32 0x8C379A000000000000000000000000000000000000000000000000000000000 DUP2 MSTORE PUSH1 0x4 ADD PUSH2 0x272 SWAP1 PUSH2 0x11FC JUMP JUMPDEST PUSH1 0x40 MLOAD DUP1 SWAP2 SUB SWAP1 REVERT JUMPDEST PUSH1 0x1 DUP1 PUSH1 0x0 DUP4 PUSH20 0xFFFFFFFFFFFFFFFFFFFFFFFFFFFFFFFFFFFFFFFF AND PUSH20 0xFFFFFFFFFFFFFFFFFFFFFFFFFFFFFFFFFFFFFFFF AND DUP2 MSTORE PUSH1 0x20 ADD SWAP1 DUP2 MSTORE PUSH1 0x20 ADD PUSH1 0x0 KECCAK256 PUSH1 0x0 PUSH2 0x100 EXP DUP2 SLOAD DUP2 PUSH1 0xFF MUL NOT AND SWAP1 DUP4 ISZERO ISZERO MUL OR SWAP1 SSTORE POP PUSH32 0x2279719AF4080E08A5A2B25C8234A83B76079141524127D1096409AC07FA5D0F TIMESTAMP DUP3 PUSH1 0x40 MLOAD PUSH2 0x303 SWAP3 SWAP2 SWAP1 PUSH2 0x121C JUMP JUMPDEST PUSH1 0x40 MLOAD DUP1 SWAP2 SUB SWAP1 LOG1 POP JUMP JUMPDEST PUSH1 0x40 MLOAD DUP1 PUSH1 0xA0 ADD PUSH1 0x40 MSTORE DUP1 DUP6 PUSH20 0xFFFFFFFFFFFFFFFFFFFFFFFFFFFFFFFFFFFFFFFF AND DUP2 MSTORE PUSH1 0x20 ADD DUP5 DUP2 MSTORE PUSH1 0x20 ADD DUP4 DUP2 MSTORE PUSH1 0x20 ADD DUP3 DUP2 MSTORE PUSH1 0x20 ADD PUSH1 0x0 DUP2 MSTORE POP PUSH1 0x2 PUSH1 0x0 DUP7 PUSH20 0xFFFFFFFFFFFFFFFFFFFFFFFFFFFFFFFFFFFFFFFF AND PUSH20 0xFFFFFFFFFFFFFFFFFFFFFFFFFFFFFFFFFFFFFFFF AND DUP2 MSTORE PUSH1 0x20 ADD SWAP1 DUP2 MSTORE PUSH1 0x20 ADD PUSH1 0x0 KECCAK256 PUSH1 0x0 DUP3 ADD MLOAD DUP2 PUSH1 0x0 ADD PUSH1 0x0 PUSH2 0x100 EXP DUP2 SLOAD DUP2 PUSH20 0xFFFFFFFFFFFFFFFFFFFFFFFFFFFFFFFFFFFFFFFF MUL NOT AND SWAP1 DUP4 PUSH20 0xFFFFFFFFFFFFFFFFFFFFFFFFFFFFFFFFFFFFFFFF AND MUL OR SWAP1 SSTORE POP PUSH1 0x20 DUP3 ADD MLOAD DUP2 PUSH1 0x1 ADD SWAP1 DUP2 PUSH2 0x3E7 SWAP2 SWAP1 PUSH2 0x1451 JUMP JUMPDEST POP PUSH1 0x40 DUP3 ADD MLOAD DUP2 PUSH1 0x2 ADD SWAP1 DUP2 PUSH2 0x3FD SWAP2 SWAP1 PUSH2 0x1451 JUMP JUMPDEST POP PUSH1 0x60 DUP3 ADD MLOAD DUP2 PUSH1 0x3 ADD SSTORE PUSH1 0x80 DUP3 ADD MLOAD DUP2 PUSH1 0x4 ADD SSTORE SWAP1 POP POP POP POP POP POP JUMP JUMPDEST CALLER PUSH20 0xFFFFFFFFFFFFFFFFFFFFFFFFFFFFFFFFFFFFFFFF AND PUSH1 0x2 PUSH1 0x0 CALLER PUSH20 0xFFFFFFFFFFFFFFFFFFFFFFFFFFFFFFFFFFFFFFFF AND PUSH20 0xFFFFFFFFFFFFFFFFFFFFFFFFFFFFFFFFFFFFFFFF AND DUP2 MSTORE PUSH1 0x20 ADD SWAP1 DUP2 MSTORE PUSH1 0x20 ADD PUSH1 0x0 KECCAK256 PUSH1 0x0 ADD PUSH1 0x0 SWAP1 SLOAD SWAP1 PUSH2 0x100 EXP SWAP1 DIV PUSH20 0xFFFFFFFFFFFFFFFFFFFFFFFFFFFFFFFFFFFFFFFF AND PUSH20 0xFFFFFFFFFFFFFFFFFFFFFFFFFFFFFFFFFFFFFFFF AND EQ PUSH2 0x4EB JUMPI PUSH1 0x40 MLOAD PUSH32 0x8C379A000000000000000000000000000000000000000000000000000000000 DUP2 MSTORE PUSH1 0x4 ADD PUSH2 0x4E2 SWAP1 PUSH2 0x156F JUMP JUMPDEST PUSH1 0x40 MLOAD DUP1 SWAP2 SUB SWAP1 REVERT JUMPDEST DUP1 PUSH1 0x2 PUSH1 0x0 CALLER PUSH20 0xFFFFFFFFFFFFFFFFFFFFFFFFFFFFFFFFFFFFFFFF AND PUSH20 0xFFFFFFFFFFFFFFFFFFFFFFFFFFFFFFFFFFFFFFFF AND DUP2 MSTORE PUSH1 0x20 ADD SWAP1 DUP2 MSTORE PUSH1 0x20 ADD PUSH1 0x0 KECCAK256 PUSH1 0x3 ADD SLOAD LT ISZERO PUSH2 0x570 JUMPI PUSH1 0x40 MLOAD PUSH32 0x8C379A000000000000000000000000000000000000000000000000000000000 DUP2 MSTORE PUSH1 0x4 ADD PUSH2 0x567 SWAP1 PUSH2 0x1601 JUMP JUMPDEST PUSH1 0x40 MLOAD DUP1 SWAP2 SUB SWAP1 REVERT JUMPDEST PUSH1 0x40 MLOAD DUP1 PUSH1 0xC0 ADD PUSH1 0x40 MSTORE DUP1 DUP6 PUSH20 0xFFFFFFFFFFFFFFFFFFFFFFFFFFFFFFFFFFFFFFFF AND DUP2 MSTORE PUSH1 0x20 ADD DUP5 DUP2 MSTORE PUSH1 0x20 ADD DUP4 DUP2 MSTORE PUSH1 0x20 ADD TIMESTAMP DUP2 MSTORE PUSH1 0x20 ADD DUP3 DUP2 MSTORE PUSH1 0x20 ADD PUSH1 0x0 DUP2 MSTORE POP PUSH1 0x0 DUP1 DUP7 PUSH20 0xFFFFFFFFFFFFFFFFFFFFFFFFFFFFFFFFFFFFFFFF AND PUSH20 0xFFFFFFFFFFFFFFFFFFFFFFFFFFFFFFFFFFFFFFFF AND DUP2 MSTORE PUSH1 0x20 ADD SWAP1 DUP2 MSTORE PUSH1 0x20 ADD PUSH1 0x0 KECCAK256 PUSH1 0x0 DUP3 ADD MLOAD DUP2 PUSH1 0x0 ADD PUSH1 0x0 PUSH2 0x100 EXP DUP2 SLOAD DUP2 PUSH20 0xFFFFFFFFFFFFFFFFFFFFFFFFFFFFFFFFFFFFFFFF MUL NOT AND SWAP1 DUP4 PUSH20 0xFFFFFFFFFFFFFFFFFFFFFFFFFFFFFFFFFFFFFFFF AND MUL OR SWAP1 SSTORE POP PUSH1 0x20 DUP3 ADD MLOAD DUP2 PUSH1 0x1 ADD SWAP1 DUP2 PUSH2 0x64E SWAP2 SWAP1 PUSH2 0x1451 JUMP JUMPDEST POP PUSH1 0x40 DUP3 ADD MLOAD DUP2 PUSH1 0x2 ADD SSTORE PUSH1 0x60 DUP3 ADD MLOAD DUP2 PUSH1 0x3 ADD SSTORE PUSH1 0x80 DUP3 ADD MLOAD DUP2 PUSH1 0x4 ADD SSTORE PUSH1 0xA0 DUP3 ADD MLOAD DUP2 PUSH1 0x5 ADD SSTORE SWAP1 POP POP DUP1 PUSH1 0x2 PUSH1 0x0 CALLER PUSH20 0xFFFFFFFFFFFFFFFFFFFFFFFFFFFFFFFFFFFFFFFF AND PUSH20 0xFFFFFFFFFFFFFFFFFFFFFFFFFFFFFFFFFFFFFFFF AND DUP2 MSTORE PUSH1 0x20 ADD SWAP1 DUP2 MSTORE PUSH1 0x20 ADD PUSH1 0x0 KECCAK256 PUSH1 0x3 ADD PUSH1 0x0 DUP3 DUP3 SLOAD PUSH2 0x6CC SWAP2 SWAP1 PUSH2 0x1650 JUMP JUMPDEST SWAP3 POP POP DUP2 SWAP1 SSTORE POP DUP1 PUSH1 0x2 PUSH1 0x0 CALLER PUSH20 0xFFFFFFFFFFFFFFFFFFFFFFFFFFFFFFFFFFFFFFFF AND PUSH20 0xFFFFFFFFFFFFFFFFFFFFFFFFFFFFFFFFFFFFFFFF AND DUP2 MSTORE PUSH1 0x20 ADD SWAP1 DUP2 MSTORE PUSH1 0x20 ADD PUSH1 0x0 KECCAK256 PUSH1 0x4 ADD PUSH1 0x0 DUP3 DUP3 SLOAD PUSH2 0x725 SWAP2 SWAP1 PUSH2 0x1684 JUMP JUMPDEST SWAP3 POP POP DUP2 SWAP1 SSTORE POP PUSH32 0x6B14C643C7A21D055DECE27D5B28B6C529FDF91F89C8A4D6FEABD94CC9926768 TIMESTAMP DUP4 PUSH1 0x40 MLOAD PUSH2 0x75D SWAP3 SWAP2 SWAP1 PUSH2 0x16B8 JUMP JUMPDEST PUSH1 0x40 MLOAD DUP1 SWAP2 SUB SWAP1 LOG1 POP POP POP POP JUMP JUMPDEST PUSH1 0x2 PUSH1 0x20 MSTORE DUP1 PUSH1 0x0 MSTORE PUSH1 0x40 PUSH1 0x0 KECCAK256 PUSH1 0x0 SWAP2 POP SWAP1 POP DUP1 PUSH1 0x0 ADD PUSH1 0x0 SWAP1 SLOAD SWAP1 PUSH2 0x100 EXP SWAP1 DIV PUSH20 0xFFFFFFFFFFFFFFFFFFFFFFFFFFFFFFFFFFFFFFFF AND SWAP1 DUP1 PUSH1 0x1 ADD DUP1 SLOAD PUSH2 0x7B4 SWAP1 PUSH2 0x1274 JUMP JUMPDEST DUP1 PUSH1 0x1F ADD PUSH1 0x20 DUP1 SWAP2 DIV MUL PUSH1 0x20 ADD PUSH1 0x40 MLOAD SWAP1 DUP2 ADD PUSH1 0x40 MSTORE DUP1 SWAP3 SWAP2 SWAP1 DUP2 DUP2 MSTORE PUSH1 0x20 ADD DUP3 DUP1 SLOAD PUSH2 0x7E0 SWAP1 PUSH2 0x1274 JUMP JUMPDEST DUP1 ISZERO PUSH2 0x82D JUMPI DUP1 PUSH1 0x1F LT PUSH2 0x802 JUMPI PUSH2 0x100 DUP1 DUP4 SLOAD DIV MUL DUP4 MSTORE SWAP2 PUSH1 0x20 ADD SWAP2 PUSH2 0x82D JUMP JUMPDEST DUP3 ADD SWAP2 SWAP1 PUSH1 0x0 MSTORE PUSH1 0x20 PUSH1 0x0 KECCAK256 SWAP1 JUMPDEST DUP2 SLOAD DUP2 MSTORE SWAP1 PUSH1 0x1 ADD SWAP1 PUSH1 0x20 ADD DUP1 DUP4 GT PUSH2 0x810 JUMPI DUP3 SWAP1 SUB PUSH1 0x1F AND DUP3 ADD SWAP2 JUMPDEST POP POP POP POP POP SWAP1 DUP1 PUSH1 0x2 ADD DUP1 SLOAD PUSH2 0x842 SWAP1 PUSH2 0x1274 JUMP JUMPDEST DUP1 PUSH1 0x1F ADD PUSH1 0x20 DUP1 SWAP2 DIV MUL PUSH1 0x20 ADD PUSH1 0x40 MLOAD SWAP1 DUP2 ADD PUSH1 0x40 MSTORE DUP1 SWAP3 SWAP2 SWAP1 DUP2 DUP2 MSTORE PUSH1 0x20 ADD DUP3 DUP1 SLOAD PUSH2 0x86E SWAP1 PUSH2 0x1274 JUMP JUMPDEST DUP1 ISZERO PUSH2 0x8BB JUMPI DUP1 PUSH1 0x1F LT PUSH2 0x890 JUMPI PUSH2 0x100 DUP1 DUP4 SLOAD DIV MUL DUP4 MSTORE SWAP2 PUSH1 0x20 ADD SWAP2 PUSH2 0x8BB JUMP JUMPDEST DUP3 ADD SWAP2 SWAP1 PUSH1 0x0 MSTORE PUSH1 0x20 PUSH1 0x0 KECCAK256 SWAP1 JUMPDEST DUP2 SLOAD DUP2 MSTORE SWAP1 PUSH1 0x1 ADD SWAP1 PUSH1 0x20 ADD DUP1 DUP4 GT PUSH2 0x89E JUMPI DUP3 SWAP1 SUB PUSH1 0x1F AND DUP3 ADD SWAP2 JUMPDEST POP POP POP POP POP SWAP1 DUP1 PUSH1 0x3 ADD SLOAD SWAP1 DUP1 PUSH1 0x4 ADD SLOAD SWAP1 POP DUP6 JUMP JUMPDEST PUSH1 0x1 PUSH1 0x0 CALLER PUSH20 0xFFFFFFFFFFFFFFFFFFFFFFFFFFFFFFFFFFFFFFFF AND PUSH20 0xFFFFFFFFFFFFFFFFFFFFFFFFFFFFFFFFFFFFFFFF AND DUP2 MSTORE PUSH1 0x20 ADD SWAP1 DUP2 MSTORE PUSH1 0x20 ADD PUSH1 0x0 KECCAK256 PUSH1 0x0 SWAP1 SLOAD SWAP1 PUSH2 0x100 EXP SWAP1 DIV PUSH1 0xFF AND PUSH2 0x95D JUMPI PUSH1 0x40 MLOAD PUSH32 0x8C379A000000000000000000000000000000000000000000000000000000000 DUP2 MSTORE PUSH1 0x4 ADD PUSH2 0x954 SWAP1 PUSH2 0x172D JUMP JUMPDEST PUSH1 0x40 MLOAD DUP1 SWAP2 SUB SWAP1 REVERT JUMPDEST PUSH1 0x0 DUP1 PUSH1 0x0 CALLER PUSH20 0xFFFFFFFFFFFFFFFFFFFFFFFFFFFFFFFFFFFFFFFF AND PUSH20 0xFFFFFFFFFFFFFFFFFFFFFFFFFFFFFFFFFFFFFFFF AND DUP2 MSTORE PUSH1 0x20 ADD SWAP1 DUP2 MSTORE PUSH1 0x20 ADD PUSH1 0x0 KECCAK256 SWAP1 POP CALLER PUSH20 0xFFFFFFFFFFFFFFFFFFFFFFFFFFFFFFFFFFFFFFFF AND PUSH1 0x2 PUSH1 0x0 CALLER PUSH20 0xFFFFFFFFFFFFFFFFFFFFFFFFFFFFFFFFFFFFFFFF AND PUSH20 0xFFFFFFFFFFFFFFFFFFFFFFFFFFFFFFFFFFFFFFFF AND DUP2 MSTORE PUSH1 0x20 ADD SWAP1 DUP2 MSTORE PUSH1 0x20 ADD PUSH1 0x0 KECCAK256 PUSH1 0x0 ADD PUSH1 0x0 SWAP1 SLOAD SWAP1 PUSH2 0x100 EXP SWAP1 DIV PUSH20 0xFFFFFFFFFFFFFFFFFFFFFFFFFFFFFFFFFFFFFFFF AND PUSH20 0xFFFFFFFFFFFFFFFFFFFFFFFFFFFFFFFFFFFFFFFF AND EQ DUP1 PUSH2 0xA8A JUMPI POP CALLER PUSH20 0xFFFFFFFFFFFFFFFFFFFFFFFFFFFFFFFFFFFFFFFF AND DUP2 PUSH1 0x0 ADD PUSH1 0x0 SWAP1 SLOAD SWAP1 PUSH2 0x100 EXP SWAP1 DIV PUSH20 0xFFFFFFFFFFFFFFFFFFFFFFFFFFFFFFFFFFFFFFFF AND PUSH20 0xFFFFFFFFFFFFFFFFFFFFFFFFFFFFFFFFFFFFFFFF AND EQ JUMPDEST PUSH2 0xAC9 JUMPI PUSH1 0x40 MLOAD PUSH32 0x8C379A000000000000000000000000000000000000000000000000000000000 DUP2 MSTORE PUSH1 0x4 ADD PUSH2 0xAC0 SWAP1 PUSH2 0x1799 JUMP JUMPDEST PUSH1 0x40 MLOAD DUP1 SWAP2 SUB SWAP1 REVERT JUMPDEST DUP1 PUSH1 0x2 ADD SLOAD DUP2 PUSH1 0x3 ADD SLOAD PUSH2 0xADD SWAP2 SWAP1 PUSH2 0x1684 JUMP JUMPDEST TIMESTAMP LT ISZERO PUSH2 0xB1F JUMPI PUSH1 0x40 MLOAD PUSH32 0x8C379A000000000000000000000000000000000000000000000000000000000 DUP2 MSTORE PUSH1 0x4 ADD PUSH2 0xB16 SWAP1 PUSH2 0x1805 JUMP JUMPDEST PUSH1 0x40 MLOAD DUP1 SWAP2 SUB SWAP1 REVERT JUMPDEST PUSH1 0x0 DUP2 PUSH1 0x4 ADD SLOAD GT PUSH2 0xB66 JUMPI PUSH1 0x40 MLOAD PUSH32 0x8C379A000000000000000000000000000000000000000000000000000000000 DUP2 MSTORE PUSH1 0x4 ADD PUSH2 0xB5D SWAP1 PUSH2 0x1871 JUMP JUMPDEST PUSH1 0x40 MLOAD DUP1 SWAP2 SUB SWAP1 REVERT JUMPDEST DUP2 DUP2 PUSH1 0x4 ADD PUSH1 0x0 DUP3 DUP3 SLOAD PUSH2 0xB7A SWAP2 SWAP1 PUSH2 0x1650 JUMP JUMPDEST SWAP3 POP POP DUP2 SWAP1 SSTORE POP DUP2 DUP2 PUSH1 0x5 ADD PUSH1 0x0 DUP3 DUP3 SLOAD PUSH2 0xB95 SWAP2 SWAP1 PUSH2 0x1684 JUMP JUMPDEST SWAP3 POP POP DUP2 SWAP1 SSTORE POP POP POP JUMP JUMPDEST PUSH1 0x0 PUSH1 0x20 MSTORE DUP1 PUSH1 0x0 MSTORE PUSH1 0x40 PUSH1 0x0 KECCAK256 PUSH1 0x0 SWAP2 POP SWAP1 POP DUP1 PUSH1 0x0 ADD PUSH1 0x0 SWAP1 SLOAD SWAP1 PUSH2 0x100 EXP SWAP1 DIV PUSH20 0xFFFFFFFFFFFFFFFFFFFFFFFFFFFFFFFFFFFFFFFF AND SWAP1 DUP1 PUSH1 0x1 ADD DUP1 SLOAD PUSH2 0xBE9 SWAP1 PUSH2 0x1274 JUMP JUMPDEST DUP1 PUSH1 0x1F ADD PUSH1 0x20 DUP1 SWAP2 DIV MUL PUSH1 0x20 ADD PUSH1 0x40 MLOAD SWAP1 DUP2 ADD PUSH1 0x40 MSTORE DUP1 SWAP3 SWAP2 SWAP1 DUP2 DUP2 MSTORE PUSH1 0x20 ADD DUP3 DUP1 SLOAD PUSH2 0xC15 SWAP1 PUSH2 0x1274 JUMP JUMPDEST DUP1 ISZERO PUSH2 0xC62 JUMPI DUP1 PUSH1 0x1F LT PUSH2 0xC37 JUMPI PUSH2 0x100 DUP1 DUP4 SLOAD DIV MUL DUP4 MSTORE SWAP2 PUSH1 0x20 ADD SWAP2 PUSH2 0xC62 JUMP JUMPDEST DUP3 ADD SWAP2 SWAP1 PUSH1 0x0 MSTORE PUSH1 0x20 PUSH1 0x0 KECCAK256 SWAP1 JUMPDEST DUP2 SLOAD DUP2 MSTORE SWAP1 PUSH1 0x1 ADD SWAP1 PUSH1 0x20 ADD DUP1 DUP4 GT PUSH2 0xC45 JUMPI DUP3 SWAP1 SUB PUSH1 0x1F AND DUP3 ADD SWAP2 JUMPDEST POP POP POP POP POP SWAP1 DUP1 PUSH1 0x2 ADD SLOAD SWAP1 DUP1 PUSH1 0x3 ADD SLOAD SWAP1 DUP1 PUSH1 0x4 ADD SLOAD SWAP1 DUP1 PUSH1 0x5 ADD SLOAD SWAP1 POP DUP7 JUMP JUMPDEST PUSH1 0x0 PUSH1 0x40 MLOAD SWAP1 POP SWAP1 JUMP JUMPDEST PUSH1 0x0 DUP1 REVERT JUMPDEST PUSH1 0x0 DUP1 REVERT JUMPDEST PUSH1 0x0 PUSH20 0xFFFFFFFFFFFFFFFFFFFFFFFFFFFFFFFFFFFFFFFF DUP3 AND SWAP1 POP SWAP2 SWAP1 POP JUMP JUMPDEST PUSH1 0x0 PUSH2 0xCC3 DUP3 PUSH2 0xC98 JUMP JUMPDEST SWAP1 POP SWAP2 SWAP1 POP JUMP JUMPDEST PUSH2 0xCD3 DUP2 PUSH2 0xCB8 JUMP JUMPDEST DUP2 EQ PUSH2 0xCDE JUMPI PUSH1 0x0 DUP1 REVERT JUMPDEST POP JUMP JUMPDEST PUSH1 0x0 DUP2 CALLDATALOAD SWAP1 POP PUSH2 0xCF0 DUP2 PUSH2 0xCCA JUMP JUMPDEST SWAP3 SWAP2 POP POP JUMP JUMPDEST PUSH1 0x0 PUSH1 0x20 DUP3 DUP5 SUB SLT ISZERO PUSH2 0xD0C JUMPI PUSH2 0xD0B PUSH2 0xC8E JUMP JUMPDEST JUMPDEST PUSH1 0x0 PUSH2 0xD1A DUP5 DUP3 DUP6 ADD PUSH2 0xCE1 JUMP JUMPDEST SWAP2 POP POP SWAP3 SWAP2 POP POP JUMP JUMPDEST PUSH1 0x0 DUP2 ISZERO ISZERO SWAP1 POP SWAP2 SWAP1 POP JUMP JUMPDEST PUSH2 0xD38 DUP2 PUSH2 0xD23 JUMP JUMPDEST DUP3 MSTORE POP POP JUMP JUMPDEST PUSH1 0x0 PUSH1 0x20 DUP3 ADD SWAP1 POP PUSH2 0xD53 PUSH1 0x0 DUP4 ADD DUP5 PUSH2 0xD2F JUMP JUMPDEST SWAP3 SWAP2 POP POP JUMP JUMPDEST PUSH1 0x0 DUP1 REVERT JUMPDEST PUSH1 0x0 DUP1 REVERT JUMPDEST PUSH1 0x0 PUSH1 0x1F NOT PUSH1 0x1F DUP4 ADD AND SWAP1 POP SWAP2 SWAP1 POP JUMP JUMPDEST PUSH32 0x4E487B7100000000000000000000000000000000000000000000000000000000 PUSH1 0x0 MSTORE PUSH1 0x41 PUSH1 0x4 MSTORE PUSH1 0x24 PUSH1 0x0 REVERT JUMPDEST PUSH2 0xDAC DUP3 PUSH2 0xD63 JUMP JUMPDEST DUP2 ADD DUP2 DUP2 LT PUSH8 0xFFFFFFFFFFFFFFFF DUP3 GT OR ISZERO PUSH2 0xDCB JUMPI PUSH2 0xDCA PUSH2 0xD74 JUMP JUMPDEST JUMPDEST DUP1 PUSH1 0x40 MSTORE POP POP POP JUMP JUMPDEST PUSH1 0x0 PUSH2 0xDDE PUSH2 0xC84 JUMP JUMPDEST SWAP1 POP PUSH2 0xDEA DUP3 DUP3 PUSH2 0xDA3 JUMP JUMPDEST SWAP2 SWAP1 POP JUMP JUMPDEST PUSH1 0x0 PUSH8 0xFFFFFFFFFFFFFFFF DUP3 GT ISZERO PUSH2 0xE0A JUMPI PUSH2 0xE09 PUSH2 0xD74 JUMP JUMPDEST JUMPDEST PUSH2 0xE13 DUP3 PUSH2 0xD63 JUMP JUMPDEST SWAP1 POP PUSH1 0x20 DUP2 ADD SWAP1 POP SWAP2 SWAP1 POP JUMP JUMPDEST DUP3 DUP2 DUP4 CALLDATACOPY PUSH1 0x0 DUP4 DUP4 ADD MSTORE POP POP POP JUMP JUMPDEST PUSH1 0x0 PUSH2 0xE42 PUSH2 0xE3D DUP5 PUSH2 0xDEF JUMP JUMPDEST PUSH2 0xDD4 JUMP JUMPDEST SWAP1 POP DUP3 DUP2 MSTORE PUSH1 0x20 DUP2 ADD DUP5 DUP5 DUP5 ADD GT ISZERO PUSH2 0xE5E JUMPI PUSH2 0xE5D PUSH2 0xD5E JUMP JUMPDEST JUMPDEST PUSH2 0xE69 DUP5 DUP3 DUP6 PUSH2 0xE20 JUMP JUMPDEST POP SWAP4 SWAP3 POP POP POP JUMP JUMPDEST PUSH1 0x0 DUP3 PUSH1 0x1F DUP4 ADD SLT PUSH2 0xE86 JUMPI PUSH2 0xE85 PUSH2 0xD59 JUMP JUMPDEST JUMPDEST DUP2 CALLDATALOAD PUSH2 0xE96 DUP5 DUP3 PUSH1 0x20 DUP7 ADD PUSH2 0xE2F JUMP JUMPDEST SWAP2 POP POP SWAP3 SWAP2 POP POP JUMP JUMPDEST PUSH1 0x0 DUP2 SWAP1 POP SWAP2 SWAP1 POP JUMP JUMPDEST PUSH2 0xEB2 DUP2 PUSH2 0xE9F JUMP JUMPDEST DUP2 EQ PUSH2 0xEBD JUMPI PUSH1 0x0 DUP1 REVERT JUMPDEST POP JUMP JUMPDEST PUSH1 0x0 DUP2 CALLDATALOAD SWAP1 POP PUSH2 0xECF DUP2 PUSH2 0xEA9 JUMP JUMPDEST SWAP3 SWAP2 POP POP JUMP JUMPDEST PUSH1 0x0 DUP1 PUSH1 0x0 DUP1 PUSH1 0x80 DUP6 DUP8 SUB SLT ISZERO PUSH2 0xEEF JUMPI PUSH2 0xEEE PUSH2 0xC8E JUMP JUMPDEST JUMPDEST PUSH1 0x0 PUSH2 0xEFD DUP8 DUP3 DUP9 ADD PUSH2 0xCE1 JUMP JUMPDEST SWAP5 POP POP PUSH1 0x20 DUP6 ADD CALLDATALOAD PUSH8 0xFFFFFFFFFFFFFFFF DUP2 GT ISZERO PUSH2 0xF1E JUMPI PUSH2 0xF1D PUSH2 0xC93 JUMP JUMPDEST JUMPDEST PUSH2 0xF2A DUP8 DUP3 DUP9 ADD PUSH2 0xE71 JUMP JUMPDEST SWAP4 POP POP PUSH1 0x40 DUP6 ADD CALLDATALOAD PUSH8 0xFFFFFFFFFFFFFFFF DUP2 GT ISZERO PUSH2 0xF4B JUMPI PUSH2 0xF4A PUSH2 0xC93 JUMP JUMPDEST JUMPDEST PUSH2 0xF57 DUP8 DUP3 DUP9 ADD PUSH2 0xE71 JUMP JUMPDEST SWAP3 POP POP PUSH1 0x60 PUSH2 0xF68 DUP8 DUP3 DUP9 ADD PUSH2 0xEC0 JUMP JUMPDEST SWAP2 POP POP SWAP3 SWAP6 SWAP2 SWAP5 POP SWAP3 POP JUMP JUMPDEST PUSH1 0x0 DUP1 PUSH1 0x0 DUP1 PUSH1 0x80 DUP6 DUP8 SUB SLT ISZERO PUSH2 0xF8E JUMPI PUSH2 0xF8D PUSH2 0xC8E JUMP JUMPDEST JUMPDEST PUSH1 0x0 PUSH2 0xF9C DUP8 DUP3 DUP9 ADD PUSH2 0xCE1 JUMP JUMPDEST SWAP5 POP POP PUSH1 0x20 DUP6 ADD CALLDATALOAD PUSH8 0xFFFFFFFFFFFFFFFF DUP2 GT ISZERO PUSH2 0xFBD JUMPI PUSH2 0xFBC PUSH2 0xC93 JUMP JUMPDEST JUMPDEST PUSH2 0xFC9 DUP8 DUP3 DUP9 ADD PUSH2 0xE71 JUMP JUMPDEST SWAP4 POP POP PUSH1 0x40 PUSH2 0xFDA DUP8 DUP3 DUP9 ADD PUSH2 0xEC0 JUMP JUMPDEST SWAP3 POP POP PUSH1 0x60 PUSH2 0xFEB DUP8 DUP3 DUP9 ADD PUSH2 0xEC0 JUMP JUMPDEST SWAP2 POP POP SWAP3 SWAP6 SWAP2 SWAP5 POP SWAP3 POP JUMP JUMPDEST PUSH2 0x1000 DUP2 PUSH2 0xCB8 JUMP JUMPDEST DUP3 MSTORE POP POP JUMP JUMPDEST PUSH1 0x0 DUP2 MLOAD SWAP1 POP SWAP2 SWAP1 POP JUMP JUMPDEST PUSH1 0x0 DUP3 DUP3 MSTORE PUSH1 0x20 DUP3 ADD SWAP1 POP SWAP3 SWAP2 POP POP JUMP JUMPDEST PUSH1 0x0 JUMPDEST DUP4 DUP2 LT ISZERO PUSH2 0x1040 JUMPI DUP1 DUP3 ADD MLOAD DUP2 DUP5 ADD MSTORE PUSH1 0x20 DUP2 ADD SWAP1 POP PUSH2 0x1025 JUMP JUMPDEST PUSH1 0x0 DUP5 DUP5 ADD MSTORE POP POP POP POP JUMP JUMPDEST PUSH1 0x0 PUSH2 0x1057 DUP3 PUSH2 0x1006 JUMP JUMPDEST PUSH2 0x1061 DUP2 DUP6 PUSH2 0x1011 JUMP JUMPDEST SWAP4 POP PUSH2 0x1071 DUP2 DUP6 PUSH1 0x20 DUP7 ADD PUSH2 0x1022 JUMP JUMPDEST PUSH2 0x107A DUP2 PUSH2 0xD63 JUMP JUMPDEST DUP5 ADD SWAP2 POP POP SWAP3 SWAP2 POP POP JUMP JUMPDEST PUSH2 0x108E DUP2 PUSH2 0xE9F JUMP JUMPDEST DUP3 MSTORE POP POP JUMP JUMPDEST PUSH1 0x0 PUSH1 0xA0 DUP3 ADD SWAP1 POP PUSH2 0x10A9 PUSH1 0x0 DUP4 ADD DUP9 PUSH2 0xFF7 JUMP JUMPDEST DUP2 DUP2 SUB PUSH1 0x20 DUP4 ADD MSTORE PUSH2 0x10BB DUP2 DUP8 PUSH2 0x104C JUMP JUMPDEST SWAP1 POP DUP2 DUP2 SUB PUSH1 0x40 DUP4 ADD MSTORE PUSH2 0x10CF DUP2 DUP7 PUSH2 0x104C JUMP JUMPDEST SWAP1 POP PUSH2 0x10DE PUSH1 0x60 DUP4 ADD DUP6 PUSH2 0x1085 JUMP JUMPDEST PUSH2 0x10EB PUSH1 0x80 DUP4 ADD DUP5 PUSH2 0x1085 JUMP JUMPDEST SWAP7 SWAP6 POP POP POP POP POP POP JUMP JUMPDEST PUSH1 0x0 PUSH1 0x20 DUP3 DUP5 SUB SLT ISZERO PUSH2 0x110B JUMPI PUSH2 0x110A PUSH2 0xC8E JUMP JUMPDEST JUMPDEST PUSH1 0x0 PUSH2 0x1119 DUP5 DUP3 DUP6 ADD PUSH2 0xEC0 JUMP JUMPDEST SWAP2 POP POP SWAP3 SWAP2 POP POP JUMP JUMPDEST PUSH1 0x0 PUSH1 0xC0 DUP3 ADD SWAP1 POP PUSH2 0x1137 PUSH1 0x0 DUP4 ADD DUP10 PUSH2 0xFF7 JUMP JUMPDEST DUP2 DUP2 SUB PUSH1 0x20 DUP4 ADD MSTORE PUSH2 0x1149 DUP2 DUP9 PUSH2 0x104C JUMP JUMPDEST SWAP1 POP PUSH2 0x1158 PUSH1 0x40 DUP4 ADD DUP8 PUSH2 0x1085 JUMP JUMPDEST PUSH2 0x1165 PUSH1 0x60 DUP4 ADD DUP7 PUSH2 0x1085 JUMP JUMPDEST PUSH2 0x1172 PUSH1 0x80 DUP4 ADD DUP6 PUSH2 0x1085 JUMP JUMPDEST PUSH2 0x117F PUSH1 0xA0 DUP4 ADD DUP5 PUSH2 0x1085 JUMP JUMPDEST SWAP8 SWAP7 POP POP POP POP POP POP POP JUMP JUMPDEST PUSH32 0x4F6E6C79206F7267616E697A6174696F6E206F776E65722063616E2077686974 PUSH1 0x0 DUP3 ADD MSTORE PUSH32 0x656C697374000000000000000000000000000000000000000000000000000000 PUSH1 0x20 DUP3 ADD MSTORE POP JUMP JUMPDEST PUSH1 0x0 PUSH2 0x11E6 PUSH1 0x25 DUP4 PUSH2 0x1011 JUMP JUMPDEST SWAP2 POP PUSH2 0x11F1 DUP3 PUSH2 0x118A JUMP JUMPDEST PUSH1 0x40 DUP3 ADD SWAP1 POP SWAP2 SWAP1 POP JUMP JUMPDEST PUSH1 0x0 PUSH1 0x20 DUP3 ADD SWAP1 POP DUP2 DUP2 SUB PUSH1 0x0 DUP4 ADD MSTORE PUSH2 0x1215 DUP2 PUSH2 0x11D9 JUMP JUMPDEST SWAP1 POP SWAP2 SWAP1 POP JUMP JUMPDEST PUSH1 0x0 PUSH1 0x40 DUP3 ADD SWAP1 POP PUSH2 0x1231 PUSH1 0x0 DUP4 ADD DUP6 PUSH2 0x1085 JUMP JUMPDEST PUSH2 0x123E PUSH1 0x20 DUP4 ADD DUP5 PUSH2 0xFF7 JUMP JUMPDEST SWAP4 SWAP3 POP POP POP JUMP JUMPDEST PUSH32 0x4E487B7100000000000000000000000000000000000000000000000000000000 PUSH1 0x0 MSTORE PUSH1 0x22 PUSH1 0x4 MSTORE PUSH1 0x24 PUSH1 0x0 REVERT JUMPDEST PUSH1 0x0 PUSH1 0x2 DUP3 DIV SWAP1 POP PUSH1 0x1 DUP3 AND DUP1 PUSH2 0x128C JUMPI PUSH1 0x7F DUP3 AND SWAP2 POP JUMPDEST PUSH1 0x20 DUP3 LT DUP2 SUB PUSH2 0x129F JUMPI PUSH2 0x129E PUSH2 0x1245 JUMP JUMPDEST JUMPDEST POP SWAP2 SWAP1 POP JUMP JUMPDEST PUSH1 0x0 DUP2 SWAP1 POP DUP2 PUSH1 0x0 MSTORE PUSH1 0x20 PUSH1 0x0 KECCAK256 SWAP1 POP SWAP2 SWAP1 POP JUMP JUMPDEST PUSH1 0x0 PUSH1 0x20 PUSH1 0x1F DUP4 ADD DIV SWAP1 POP SWAP2 SWAP1 POP JUMP JUMPDEST PUSH1 0x0 DUP3 DUP3 SHL SWAP1 POP SWAP3 SWAP2 POP POP JUMP JUMPDEST PUSH1 0x0 PUSH1 0x8 DUP4 MUL PUSH2 0x1307 PUSH32 0xFFFFFFFFFFFFFFFFFFFFFFFFFFFFFFFFFFFFFFFFFFFFFFFFFFFFFFFFFFFFFFFF DUP3 PUSH2 0x12CA JUMP JUMPDEST PUSH2 0x1311 DUP7 DUP4 PUSH2 0x12CA JUMP JUMPDEST SWAP6 POP DUP1 NOT DUP5 AND SWAP4 POP DUP1 DUP7 AND DUP5 OR SWAP3 POP POP POP SWAP4 SWAP3 POP POP POP JUMP JUMPDEST PUSH1 0x0 DUP2 SWAP1 POP SWAP2 SWAP1 POP JUMP JUMPDEST PUSH1 0x0 PUSH2 0x134E PUSH2 0x1349 PUSH2 0x1344 DUP5 PUSH2 0xE9F JUMP JUMPDEST PUSH2 0x1329 JUMP JUMPDEST PUSH2 0xE9F JUMP JUMPDEST SWAP1 POP SWAP2 SWAP1 POP JUMP JUMPDEST PUSH1 0x0 DUP2 SWAP1 POP SWAP2 SWAP1 POP JUMP JUMPDEST PUSH2 0x1368 DUP4 PUSH2 0x1333 JUMP JUMPDEST PUSH2 0x137C PUSH2 0x1374 DUP3 PUSH2 0x1355 JUMP JUMPDEST DUP5 DUP5 SLOAD PUSH2 0x12D7 JUMP JUMPDEST DUP3 SSTORE POP POP POP POP JUMP JUMPDEST PUSH1 0x0 SWAP1 JUMP JUMPDEST PUSH2 0x1391 PUSH2 0x1384 JUMP JUMPDEST PUSH2 0x139C DUP2 DUP5 DUP5 PUSH2 0x135F JUMP JUMPDEST POP POP POP JUMP JUMPDEST JUMPDEST DUP2 DUP2 LT ISZERO PUSH2 0x13C0 JUMPI PUSH2 0x13B5 PUSH1 0x0 DUP3 PUSH2 0x1389 JUMP JUMPDEST PUSH1 0x1 DUP2 ADD SWAP1 POP PUSH2 0x13A2 JUMP JUMPDEST POP POP JUMP JUMPDEST PUSH1 0x1F DUP3 GT ISZERO PUSH2 0x1405 JUMPI PUSH2 0x13D6 DUP2 PUSH2 0x12A5 JUMP JUMPDEST PUSH2 0x13DF DUP5 PUSH2 0x12BA JUMP JUMPDEST DUP2 ADD PUSH1 0x20 DUP6 LT ISZERO PUSH2 0x13EE JUMPI DUP2 SWAP1 POP JUMPDEST PUSH2 0x1402 PUSH2 0x13FA DUP6 PUSH2 0x12BA JUMP JUMPDEST DUP4 ADD DUP3 PUSH2 0x13A1 JUMP JUMPDEST POP POP JUMPDEST POP POP POP JUMP JUMPDEST PUSH1 0x0 DUP3 DUP3 SHR SWAP1 POP SWAP3 SWAP2 POP POP JUMP JUMPDEST PUSH1 0x0 PUSH2 0x1428 PUSH1 0x0 NOT DUP5 PUSH1 0x8 MUL PUSH2 0x140A JUMP JUMPDEST NOT DUP1 DUP4 AND SWAP2 POP POP SWAP3 SWAP2 POP POP JUMP JUMPDEST PUSH1 0x0 PUSH2 0x1441 DUP4 DUP4 PUSH2 0x1417 JUMP JUMPDEST SWAP2 POP DUP3 PUSH1 0x2 MUL DUP3 OR SWAP1 POP SWAP3 SWAP2 POP POP JUMP JUMPDEST PUSH2 0x145A DUP3 PUSH2 0x1006 JUMP JUMPDEST PUSH8 0xFFFFFFFFFFFFFFFF DUP2 GT ISZERO PUSH2 0x1473 JUMPI PUSH2 0x1472 PUSH2 0xD74 JUMP JUMPDEST JUMPDEST PUSH2 0x147D DUP3 SLOAD PUSH2 0x1274 JUMP JUMPDEST PUSH2 0x1488 DUP3 DUP3 DUP6 PUSH2 0x13C4 JUMP JUMPDEST PUSH1 0x0 PUSH1 0x20 SWAP1 POP PUSH1 0x1F DUP4 GT PUSH1 0x1 DUP2 EQ PUSH2 0x14BB JUMPI PUSH1 0x0 DUP5 ISZERO PUSH2 0x14A9 JUMPI DUP3 DUP8 ADD MLOAD SWAP1 POP JUMPDEST PUSH2 0x14B3 DUP6 DUP3 PUSH2 0x1435 JUMP JUMPDEST DUP7 SSTORE POP PUSH2 0x151B JUMP JUMPDEST PUSH1 0x1F NOT DUP5 AND PUSH2 0x14C9 DUP7 PUSH2 0x12A5 JUMP JUMPDEST PUSH1 0x0 JUMPDEST DUP3 DUP2 LT ISZERO PUSH2 0x14F1 JUMPI DUP5 DUP10 ADD MLOAD DUP3 SSTORE PUSH1 0x1 DUP3 ADD SWAP2 POP PUSH1 0x20 DUP6 ADD SWAP5 POP PUSH1 0x20 DUP2 ADD SWAP1 POP PUSH2 0x14CC JUMP JUMPDEST DUP7 DUP4 LT ISZERO PUSH2 0x150E JUMPI DUP5 DUP10 ADD MLOAD PUSH2 0x150A PUSH1 0x1F DUP10 AND DUP3 PUSH2 0x1417 JUMP JUMPDEST DUP4 SSTORE POP JUMPDEST PUSH1 0x1 PUSH1 0x2 DUP9 MUL ADD DUP9 SSTORE POP POP POP JUMPDEST POP POP POP POP POP POP JUMP JUMPDEST PUSH32 0x556E617574686F72697A65640000000000000000000000000000000000000000 PUSH1 0x0 DUP3 ADD MSTORE POP JUMP JUMPDEST PUSH1 0x0 PUSH2 0x1559 PUSH1 0xC DUP4 PUSH2 0x1011 JUMP JUMPDEST SWAP2 POP PUSH2 0x1564 DUP3 PUSH2 0x1523 JUMP JUMPDEST PUSH1 0x20 DUP3 ADD SWAP1 POP SWAP2 SWAP1 POP JUMP JUMPDEST PUSH1 0x0 PUSH1 0x20 DUP3 ADD SWAP1 POP DUP2 DUP2 SUB PUSH1 0x0 DUP4 ADD MSTORE PUSH2 0x1588 DUP2 PUSH2 0x154C JUMP JUMPDEST SWAP1 POP SWAP2 SWAP1 POP JUMP JUMPDEST PUSH32 0x546F6B656E20616D6F756E742065786365656473206F7267616E697A6174696F PUSH1 0x0 DUP3 ADD MSTORE PUSH32 0x6E2062616C616E63650000000000000000000000000000000000000000000000 PUSH1 0x20 DUP3 ADD MSTORE POP JUMP JUMPDEST PUSH1 0x0 PUSH2 0x15EB PUSH1 0x29 DUP4 PUSH2 0x1011 JUMP JUMPDEST SWAP2 POP PUSH2 0x15F6 DUP3 PUSH2 0x158F JUMP JUMPDEST PUSH1 0x40 DUP3 ADD SWAP1 POP SWAP2 SWAP1 POP JUMP JUMPDEST PUSH1 0x0 PUSH1 0x20 DUP3 ADD SWAP1 POP DUP2 DUP2 SUB PUSH1 0x0 DUP4 ADD MSTORE PUSH2 0x161A DUP2 PUSH2 0x15DE JUMP JUMPDEST SWAP1 POP SWAP2 SWAP1 POP JUMP JUMPDEST PUSH32 0x4E487B7100000000000000000000000000000000000000000000000000000000 PUSH1 0x0 MSTORE PUSH1 0x11 PUSH1 0x4 MSTORE PUSH1 0x24 PUSH1 0x0 REVERT JUMPDEST PUSH1 0x0 PUSH2 0x165B DUP3 PUSH2 0xE9F JUMP JUMPDEST SWAP2 POP PUSH2 0x1666 DUP4 PUSH2 0xE9F JUMP JUMPDEST SWAP3 POP DUP3 DUP3 SUB SWAP1 POP DUP2 DUP2 GT ISZERO PUSH2 0x167E JUMPI PUSH2 0x167D PUSH2 0x1621 JUMP JUMPDEST JUMPDEST SWAP3 SWAP2 POP POP JUMP JUMPDEST PUSH1 0x0 PUSH2 0x168F DUP3 PUSH2 0xE9F JUMP JUMPDEST SWAP2 POP PUSH2 0x169A DUP4 PUSH2 0xE9F JUMP JUMPDEST SWAP3 POP DUP3 DUP3 ADD SWAP1 POP DUP1 DUP3 GT ISZERO PUSH2 0x16B2 JUMPI PUSH2 0x16B1 PUSH2 0x1621 JUMP JUMPDEST JUMPDEST SWAP3 SWAP2 POP POP JUMP JUMPDEST PUSH1 0x0 PUSH1 0x40 DUP3 ADD SWAP1 POP PUSH2 0x16CD PUSH1 0x0 DUP4 ADD DUP6 PUSH2 0x1085 JUMP JUMPDEST PUSH2 0x16DA PUSH1 0x20 DUP4 ADD DUP5 PUSH2 0x1085 JUMP JUMPDEST SWAP4 SWAP3 POP POP POP JUMP JUMPDEST PUSH32 0x596F75277265206E6F742077686974656C697374656400000000000000000000 PUSH1 0x0 DUP3 ADD MSTORE POP JUMP JUMPDEST PUSH1 0x0 PUSH2 0x1717 PUSH1 0x16 DUP4 PUSH2 0x1011 JUMP JUMPDEST SWAP2 POP PUSH2 0x1722 DUP3 PUSH2 0x16E1 JUMP JUMPDEST PUSH1 0x20 DUP3 ADD SWAP1 POP SWAP2 SWAP1 POP JUMP JUMPDEST PUSH1 0x0 PUSH1 0x20 DUP3 ADD SWAP1 POP DUP2 DUP2 SUB PUSH1 0x0 DUP4 ADD MSTORE PUSH2 0x1746 DUP2 PUSH2 0x170A JUMP JUMPDEST SWAP1 POP SWAP2 SWAP1 POP JUMP JUMPDEST PUSH32 0x4E6F7420617574686F72697A6564000000000000000000000000000000000000 PUSH1 0x0 DUP3 ADD MSTORE POP JUMP JUMPDEST PUSH1 0x0 PUSH2 0x1783 PUSH1 0xE DUP4 PUSH2 0x1011 JUMP JUMPDEST SWAP2 POP PUSH2 0x178E DUP3 PUSH2 0x174D JUMP JUMPDEST PUSH1 0x20 DUP3 ADD SWAP1 POP SWAP2 SWAP1 POP JUMP JUMPDEST PUSH1 0x0 PUSH1 0x20 DUP3 ADD SWAP1 POP DUP2 DUP2 SUB PUSH1 0x0 DUP4 ADD MSTORE PUSH2 0x17B2 DUP2 PUSH2 0x1776 JUMP JUMPDEST SWAP1 POP SWAP2 SWAP1 POP JUMP JUMPDEST PUSH32 0x56657374696E6720706572696F64206E6F74206F766572207965740000000000 PUSH1 0x0 DUP3 ADD MSTORE POP JUMP JUMPDEST PUSH1 0x0 PUSH2 0x17EF PUSH1 0x1B DUP4 PUSH2 0x1011 JUMP JUMPDEST SWAP2 POP PUSH2 0x17FA DUP3 PUSH2 0x17B9 JUMP JUMPDEST PUSH1 0x20 DUP3 ADD SWAP1 POP SWAP2 SWAP1 POP JUMP JUMPDEST PUSH1 0x0 PUSH1 0x20 DUP3 ADD SWAP1 POP DUP2 DUP2 SUB PUSH1 0x0 DUP4 ADD MSTORE PUSH2 0x181E DUP2 PUSH2 0x17E2 JUMP JUMPDEST SWAP1 POP SWAP2 SWAP1 POP JUMP JUMPDEST PUSH32 0x4E6F20636C61696D61626C6520746F6B656E7300000000000000000000000000 PUSH1 0x0 DUP3 ADD MSTORE POP JUMP JUMPDEST PUSH1 0x0 PUSH2 0x185B PUSH1 0x13 DUP4 PUSH2 0x1011 JUMP JUMPDEST SWAP2 POP PUSH2 0x1866 DUP3 PUSH2 0x1825 JUMP JUMPDEST PUSH1 0x20 DUP3 ADD SWAP1 POP SWAP2 SWAP1 POP JUMP JUMPDEST PUSH1 0x0 PUSH1 0x20 DUP3 ADD SWAP1 POP DUP2 DUP2 SUB PUSH1 0x0 DUP4 ADD MSTORE PUSH2 0x188A DUP2 PUSH2 0x184E JUMP JUMPDEST SWAP1 POP SWAP2 SWAP1 POP JUMP INVALID LOG2 PUSH5 0x6970667358 0x22 SLT KECCAK256 BALANCE 0xDB 0xD0 SWAP8 0xBD JUMP PUSH10 0xF4509CEDC57113445227 PUSH12 0x2EAF15122D980A616DE74AA3 DUP5 SWAP1 PUSH5 0x736F6C6343 STOP ADDMOD SLT STOP CALLER "
				},
				"gasEstimates": {
					"creation": {
						"codeDepositCost": "1268600",
						"executionCost": "1322",
						"totalCost": "1269922"
					},
					"external": {
						"claimToken(uint256)": "infinite",
						"createOrganization(address,string,string,uint256)": "infinite",
						"newStakeholder(address,string,uint256,uint256)": "infinite",
						"organizations(address)": "infinite",
						"stakeholders(address)": "infinite",
						"whitelistAddress(address)": "infinite",
						"whitelistedAddresses(address)": "2846"
					}
				},
				"methodIdentifiers": {
					"claimToken(uint256)": "a9e7c2e5",
					"createOrganization(address,string,string,uint256)": "436c91df",
					"newStakeholder(address,string,uint256,uint256)": "4c0be449",
					"organizations(address)": "5a1f7406",
					"stakeholders(address)": "c07cfca9",
					"whitelistAddress(address)": "41566585",
					"whitelistedAddresses(address)": "06c933d8"
				}
			},
			"storageLayout": {
				"storage": [
					{
						"astId": 30,
						"contract": "contracts/Vesting.sol:Vesting",
						"label": "stakeholders",
						"offset": 0,
						"slot": "0",
						"type": "t_mapping(t_address,t_struct(Stakeholder)25_storage)"
					},
					{
						"astId": 34,
						"contract": "contracts/Vesting.sol:Vesting",
						"label": "whitelistedAddresses",
						"offset": 0,
						"slot": "1",
						"type": "t_mapping(t_address,t_bool)"
					},
					{
						"astId": 39,
						"contract": "contracts/Vesting.sol:Vesting",
						"label": "organizations",
						"offset": 0,
						"slot": "2",
						"type": "t_mapping(t_address,t_struct(Organization)12_storage)"
					}
				],
				"types": {
					"t_address": {
						"encoding": "inplace",
						"label": "address",
						"numberOfBytes": "20"
					},
					"t_bool": {
						"encoding": "inplace",
						"label": "bool",
						"numberOfBytes": "1"
					},
					"t_mapping(t_address,t_bool)": {
						"encoding": "mapping",
						"key": "t_address",
						"label": "mapping(address => bool)",
						"numberOfBytes": "32",
						"value": "t_bool"
					},
					"t_mapping(t_address,t_struct(Organization)12_storage)": {
						"encoding": "mapping",
						"key": "t_address",
						"label": "mapping(address => struct Vesting.Organization)",
						"numberOfBytes": "32",
						"value": "t_struct(Organization)12_storage"
					},
					"t_mapping(t_address,t_struct(Stakeholder)25_storage)": {
						"encoding": "mapping",
						"key": "t_address",
						"label": "mapping(address => struct Vesting.Stakeholder)",
						"numberOfBytes": "32",
						"value": "t_struct(Stakeholder)25_storage"
					},
					"t_string_storage": {
						"encoding": "bytes",
						"label": "string",
						"numberOfBytes": "32"
					},
					"t_struct(Organization)12_storage": {
						"encoding": "inplace",
						"label": "struct Vesting.Organization",
						"members": [
							{
								"astId": 3,
								"contract": "contracts/Vesting.sol:Vesting",
								"label": "orgAddress",
								"offset": 0,
								"slot": "0",
								"type": "t_address"
							},
							{
								"astId": 5,
								"contract": "contracts/Vesting.sol:Vesting",
								"label": "tokenName",
								"offset": 0,
								"slot": "1",
								"type": "t_string_storage"
							},
							{
								"astId": 7,
								"contract": "contracts/Vesting.sol:Vesting",
								"label": "tokenSymbol",
								"offset": 0,
								"slot": "2",
								"type": "t_string_storage"
							},
							{
								"astId": 9,
								"contract": "contracts/Vesting.sol:Vesting",
								"label": "tokenAmount",
								"offset": 0,
								"slot": "3",
								"type": "t_uint256"
							},
							{
								"astId": 11,
								"contract": "contracts/Vesting.sol:Vesting",
								"label": "totalSupply",
								"offset": 0,
								"slot": "4",
								"type": "t_uint256"
							}
						],
						"numberOfBytes": "160"
					},
					"t_struct(Stakeholder)25_storage": {
						"encoding": "inplace",
						"label": "struct Vesting.Stakeholder",
						"members": [
							{
								"astId": 14,
								"contract": "contracts/Vesting.sol:Vesting",
								"label": "userAddress",
								"offset": 0,
								"slot": "0",
								"type": "t_address"
							},
							{
								"astId": 16,
								"contract": "contracts/Vesting.sol:Vesting",
								"label": "role",
								"offset": 0,
								"slot": "1",
								"type": "t_string_storage"
							},
							{
								"astId": 18,
								"contract": "contracts/Vesting.sol:Vesting",
								"label": "vestingPeriod",
								"offset": 0,
								"slot": "2",
								"type": "t_uint256"
							},
							{
								"astId": 20,
								"contract": "contracts/Vesting.sol:Vesting",
								"label": "startTime",
								"offset": 0,
								"slot": "3",
								"type": "t_uint256"
							},
							{
								"astId": 22,
								"contract": "contracts/Vesting.sol:Vesting",
								"label": "tokenAmount",
								"offset": 0,
								"slot": "4",
								"type": "t_uint256"
							},
							{
								"astId": 24,
								"contract": "contracts/Vesting.sol:Vesting",
								"label": "claimedToken",
								"offset": 0,
								"slot": "5",
								"type": "t_uint256"
							}
						],
						"numberOfBytes": "192"
					},
					"t_uint256": {
						"encoding": "inplace",
						"label": "uint256",
						"numberOfBytes": "32"
					}
				}
			},
			"userdoc": {
				"kind": "user",
				"methods": {},
				"version": 1
			}
		}
	}
}